:020000040800F2
:10000000A0080020D50200083D0300083D030008B9
:100010003D0300083D0300083D0300080000000008
:100020000000000000000000000000003D03000888
:100030003D030008000000003D030008110C00080B
:100040003D0300083D0300083D0300083D03000890
:100050003D0300083D0300083D0300083D03000880
:100060003D0300083D0300083D0300083D03000870
:100070003D0300083D0300083D0300083D03000860
:100080003D0300083D0300083D0300083D03000850
:100090003D0300083D0300083D0300083D03000840
:1000A0003D0300083D0300083D0300083D03000830
:1000B0003D0300083D0300083D0300083D03000820
:1000C0003D0300083D0300083D0300083D03000810
:1000D0003D0300083D0300083D0300083D03000800
:1000E0003D0300083D0300083D0300083D030008F0
:1000F0003D0300083D0300083D0300083D030008E0
:100100003D0300083D0300083D0300083D030008CF
:100110003D0300083D0300083D0300083D030008BF
:100120003D0300083D0300083D0300083D030008AF
:100130003D0300083D0300083D0300083D0300089F
:100140003D0300083D0300083D0300083D0300088F
:100150003D0300083D0300083D0300083D0300087F
:100160003D0300083D0300083D0300083D0300086F
:100170003D0300083D0300083D0300083D0300085F
:100180003D0300083D03000880B485B000AF7860EF
:1001900039604FF00003FB604FF00003BB604FF489
:1001A000E843C4F200031B68FB607B6840F6FE7204
:1001B00002FA03F36FEA0303FA681340FB603B683B
:1001C0001A683B685B681A433B689B681A433B6844
:1001D000DB681343BB607B68BA6802FA03F3FA6812
:1001E0001343FB604FF4E843C4F20003FA681A605B
:1001F00007F11407BD4680BC704700BF80B483B0D0
:1002000000AF78600B46FB70FB78002B11D04FF4E9
:10021000E843C4F200034FF4E842C4F2000212685B
:1002200011467A684FF0010000FA02F20A431A60A0
:1002300012E04FF4E843C4F200034FF4E842C4F282
:100240000002126811467A684FF0010000FA02F2CB
:100250006FEA02020A401A6007F10C07BD4680BC33
:10026000704700BF80B485B000AF78600B467B80DC
:100270004FF00003FB604FF4E843C4F20003FB605F
:10028000FA687B68D31803F10803FB60FB687A887F
:100290001A6007F11407BD4680BC704780B485B072
:1002A00000AF78600B467B804FF00003FB604FF49B
:1002B000E843C4F20003FB60FA687B68D31803F1DB
:1002C0001403FB60FB687A881A6007F11407BD46C7
:1002D00080BC704780B582B000AF41F2D833C0F621
:1002E00000037B6040F20003C2F200033B600BE0BE
:1002F0007B681A683B681A603B6803F104033B6043
:100300007B6803F104037B603A6840F27403C2F235
:1003100000039A42ECD3074807494FF00002884295
:10032000B8BF40F8042BFADB00F00CF807F108071F
:10033000BD4680BD740000209C00002080B400AF4A
:10034000FEE700BF80B582B000AF4FF008004FF06D
:10035000010100F041F940F29003C2F200034FF4B2
:1003600070421A6040F29003C2F200034FF00102A3
:100370001A7140F29003C2F200034FF000029A712A
:1003800040F29003C2F200034FF00002DA7140F233
:100390009003C2F200034FF003025A714FF4406021
:1003A000C4F2020040F29001C2F2000100F05CFED3
:1003B00000F004FF00F090FC4FF0000000F068FD3A
:1003C00000F0AEFB4FF0040000F08EFC0346BB8053
:1003D0004FF0030000F088FC03467B804FF00003E1
:1003E000FB800BE0FB88184600F07EFD4FF0050017
:1003F00000F0F6FBFB8803F10103FB80FA8840F66E
:10040000FF739A42EED9DDE780B489B000AF78601F
:100410004FF00003BB614FF000037B614FF000031E
:10042000FB614FF002033B614FF00003FB604FF0B4
:100430000203BB604FF46053C4F202039B6803F0F5
:100440000C03BB61BB69042B0AD0082B0FD0002B17
:1004500062D17A684FF41053C0F2F403136062E083
:100460007A6847F64003C0F27D1313605BE04FF4F7
:100470006053C4F202035B6803F480034FEA9353B2
:10048000FB604FF46053C4F202035B6803F03F0368
:10049000BB60FB68002B15D047F64003C0F27D130C
:1004A000BA68B3FBF2F24FF46053C4F202035B6824
:1004B000194647F6C0730B404FEA931303FB02F350
:1004C000FB6114E04FF41053C0F2F403BA68B3FBBD
:1004D000F2F24FF46053C4F202035B68194647F628
:1004E000C0730B404FEA931303FB02F3FB614FF41D
:1004F0006053C4F202035B6803F440334FEA1343D2
:1005000003F101034FEA43033B61FA693B69B2FB24
:10051000F3F27B681A6006E07A684FF41053C0F279
:10052000F403136000BF4FF46053C4F202039B68EE
:1005300003F0F003BB61BB694FEA1313BB6140F2E8
:100540000003C2F20003BA699B181B78DBB27B611F
:100550007B681A687B6922FA03F27B685A604FF461
:100560006053C4F202039B6803F4E053BB61BB69B0
:100570004FEA9323BB6140F20003C2F20003BA6961
:100580009B181B78DBB27B617B685A687B6922FA17
:1005900003F27B689A604FF46053C4F202039B68D5
:1005A00003F46043BB61BB694FEA5333BB6140F264
:1005B0000003C2F20003BA699B181B78DBB27B61AF
:1005C0007B685A687B6922FA03F27B68DA6007F17C
:1005D0002407BD4680BC704780B483B000AF78600C
:1005E0000B46FB70FB78002B0DD04FF46053C4F228
:1005F00002034FF46052C4F20202126B11467A6891
:100600000A431A630EE04FF46053C4F202034FF43E
:100610006052C4F20202126B11467A686FEA02025B
:100620000A401A6307F10C07BD4680BC704700BF43
:1006300080B483B000AF78600B46FB70FB78002B72
:100640000DD04FF46053C4F202034FF46052C4F271
:100650000202126C11467A680A431A640EE04FF4E3
:100660006053C4F202034FF46052C4F20202126CEF
:1006700011467A686FEA02020A401A6407F10C0711
:10068000BD4680BC704700BF80B483B000AF7860C7
:100690000B46FB70FB78002B0DD04FF46053C4F277
:1006A00002034FF46052C4F20202526C11467A689F
:1006B0000A435A640EE04FF46053C4F202034FF44D
:1006C0006052C4F20202526C11467A686FEA02026A
:1006D0000A405A6407F10C07BD4680BC704700BF52
:1006E00080B485B000AF786039604FF00003FB60E4
:1006F0004FF00003FB727B685B68FB60FB6823F0D4
:10070000407323F48073FB603B681B794FEA03223C
:100710003B681B681343FA681343FB607B68FA6805
:100720005A607B689B68FB60FA684FF2FD73CCF2FD
:10073000FF031340FB603B681A693B68DB681A43A0
:100740003B689B681A433B685B794FEA430313435A
:10075000FA681343FB607B68FA689A607B68DB6A1F
:10076000FB60FB6823F47003FB603B681B7D03F1B7
:10077000FF33DAB2FB7A1343FB72FB7A4FEA03537F
:10078000FA681343FB607B68FA68DA6207F11407C2
:10079000BD4680BC704700BF80B485B000AF7860B4
:1007A0004FF00003FB604FF40C53C4F201035B688D
:1007B000FB60FA6843F2E003CFF6FC731340FB6082
:1007C0007B681A687B685B681A437B689B681A437E
:1007D0007B68DB681343FA681343FB604FF40C53E8
:1007E000C4F20103FA685A6007F11407BD4680BCE1
:1007F000704700BF80B483B000AF78600B46FB70D9
:10080000FB78002B06D07B689B6843F001027B6875
:100810009A6005E07B689B6823F001027B689A6020
:1008200007F10C07BD4680BC704700BF80B485B09F
:1008300000AF7860F970BA707B704FF00003FB6016
:100840004FF00003BB60FB78092B27D97B68DB687E
:10085000FB60FA7813464FEA43039B18A3F11E038B
:100860004FF0070202FA03F3BB60BB686FEA0303B1
:10087000FA681340FB607978FA7813464FEA43032D
:100880009B18A3F11E0301FA03F3BB60FA68BB686F
:100890001343FB607B68FA68DA6022E07B681B69BF
:1008A000FB60FA7813464FEA43039B184FF00702A8
:1008B00002FA03F3BB60BB686FEA0303FA681340F4
:1008C000FB607978FA7813464FEA43039B1801FAE4
:1008D00003F3BB60FA68BB681343FB607B68FA688C
:1008E0001A61BB78062B27D87B685B6BFB60BB78F3
:1008F00003F1FF3213464FEA83039B184FF01F02A8
:1009000002FA03F3BB60BB686FEA0303FA681340A3
:10091000FB60F978BB7803F1FF3213464FEA83039B
:100920009B1801FA03F3BB60FA68BB681343FB60D2
:100930007B68FA685A6351E0BB780C2B27D87B6838
:100940001B6BFB60BA7813464FEA83039B18A3F135
:1009500023034FF01F0202FA03F3BB60BB686FEA88
:100960000303FA681340FB60F978BA7813464FEA3C
:1009700083039B18A3F1230301FA03F3BB60FA6816
:10098000BB681343FB607B68FA681A6326E07B68E8
:10099000DB6AFB60BA7813464FEA83039B18A3F126
:1009A00041034FF01F0202FA03F3BB60BB686FEA1A
:1009B0000303FA681340FB60F978BA7813464FEAEC
:1009C00083039B18A3F1410301FA03F3BB60FA68A8
:1009D000BB681343FB607B68FA68DA6207F11407AF
:1009E000BD4680BC704700BF80B483B000AF786064
:1009F0007B689B6843F080427B689A6007F10C0734
:100A0000BD4680BC704700BF80B483B000AF786043
:100A10007B68DB6C9BB2184607F10C07BD4680BCB7
:100A2000704700BF80B485B000AF78600B46FB70A4
:100A30004FF00003FB737B681B681A46FB7813407A
:100A4000002B03D04FF00103FB7302E04FF00003D3
:100A5000FB73FB7B184607F11407BD4680BC70474B
:100A600080B483B000AF03463960FB7197F907305B
:100A7000002B10DA4FF46D43CEF20003FA7902F046
:100A80000F02A2F104013A68D2B24FEA0212D2B2C6
:100A90005B181A760DE04FF46143CEF2000397F92C
:100AA00007103A68D2B24FEA0212D2B25B1883F84A
:100AB000002307F10C07BD4680BC704780B582B0AB
:100AC00000AF78607A686FF07F439A4202D94FF0A6
:100AD00001031FE04EF21003CEF200037A6822F009
:100AE0007F4202F1FF325A604FF0FF304FF00F01AA
:100AF000FFF7B6FF4EF21003CEF200034FF00002F4
:100B00009A604EF21003CEF200034FF007021A6013
:100B10004FF00003184607F10807BD4680BD00BF2F
:100B200080B584B000AF40F27403C2F200034FF00E
:100B300000021A6040F27803C2F200034FF0000294
:100B40001A6040F27C03C2F200034FF000021A6008
:100B500040F28003C2F200034FF000021A6040F23C
:100B60008003C2F200034FF000025A6040F2880393
:100B7000C2F200034FF000021A6040F28803C2F292
:100B800000034FF000025A603B461846FFF73CFC5A
:100B90007A684DF68363C4F21B33A3FB02134FEA5A
:100BA00093431846FFF78AFF07F11007BD4680BD43
:100BB00080B483B000AF78607A6840F27403C2F208
:100BC00000031A6000BF40F27403C2F200031B6806
:100BD000002BF8D107F10C07BD4680BC704700BF61
:100BE00080B584B000AF78604FF00003FB6007E091
:100BF0004FF47A70FFF7DCFFFB6803F10103FB6041
:100C00007B68FA689A42F3D307F11007BD4680BDAE
:100C100080B400AF40F27403C2F200031B68002BE3
:100C20000BD040F27403C2F200031B6803F1FF32E1
:100C300040F27403C2F200031A6040F27803C2F279
:100C400000031B68002B0BD040F27803C2F20003B4
:100C50001B6803F1FF3240F27803C2F200031A600E
:100C600040F27C03C2F200031B68002B0BD040F261
:100C70007C03C2F200031B6803F1FF3240F27C03E5
:100C8000C2F200031A6040F28003C2F200031B6844
:100C9000002B0BD040F28003C2F200035B6803F12B
:100CA000010240F28003C2F200035A6040F288035E
:100CB000C2F200031B68002B0BD040F28803C2F283
:100CC00000035B6803F1010240F28803C2F20003F3
:100CD0005A60BD4680BC704780B500AF00F046F852
:100CE00000F096F880BD00BF80B584B000AF034629
:100CF000FB714FF00003FB81F97940F21002C2F260
:100D000000020B464FEA83035B184FEA8303D318B4
:100D100003F110031B784FF40050C4F20100194690
:100D20004FF001024FF00003FFF780FD4FF4005039
:100D3000C4F20100FFF758FE00BF4FF40050C4F2A8
:100D400001004FF00201FFF76DFE0346002BF4D0C7
:100D50004FF40050C4F20100FFF756FE0346FB813A
:100D6000FB89184607F11007BD4680BD80B584B0E9
:100D700000AF4FF00003FB7342E0F97B40F210023A
:100D8000C2F200020B464FEA83035B184FEA83036B
:100D9000D31803F10C031B6818464FF00101FFF74D
:100DA0001BFCF97B40F21002C2F200020B464FEA34
:100DB00083035B184FEA8303D31803F108031B88EE
:100DC0007B604FF003033B724FF00003FB72F97B33
:100DD00040F21002C2F200020B464FEA83035B1896
:100DE0004FEA8303D31803F104031A6807F10403DD
:100DF0001046194600F038F9FB7B03F10103FB7341
:100E0000FB7B042BB9D907F11007BD4680BD00BF9D
:100E100080B58AB000AF4FF480704FF00101FFF74A
:100E200033FC4FF00003BB614FF48033FB614FF0A4
:100E300000033B624FF000037B6207F11803184682
:100E4000FFF7AAFC4FF000033B604FF000033B713B
:100E50004FF000037B714FF00003BB604FF00003C5
:100E60003B614FF001033B753B464FF40050C4F229
:100E700001001946FFF734FC4FF40050C4F20100A2
:100E80004FF00101FFF7B6FC07F12807BD4680BD12
:100E900080B582B000AF0346FB7140F29803C2F206
:100EA0000003FA791A70FB79002B02D0FB79022B30
:100EB00007D100F059F800F093F84FF0000000F06F
:100EC00013F8FB79012B02D0FB79022B07D100F03C
:100ED00069F800F0A7F84FF0000000F025F807F1DE
:100EE0000807BD4680BD00BF80B582B000AF034695
:100EF000FB8040F29803C2F200031B78012B0ED056
:100F0000FA8840F6FF739A4202D940F6FF73FB80DD
:100F1000FB884FF000001946FFF7A4F900E000BF7E
:100F200007F10807BD4680BD80B582B000AF03461B
:100F3000FB8040F29803C2F200031B78002B0ED016
:100F4000FA8840F6FF739A4202D940F6FF73FB809D
:100F5000FB884FF000001946FFF7A0F900E000BF42
:100F600007F10807BD4680BD80B582B000AF4FF0E5
:100F700001004FF00101FFF72FFB4FF010033B6022
:100F80004FF003033B714FF00003FB713B464FF002
:100F90000000C4F20200194600F066F807F10807E5
:100FA000BD4680BD80B582B000AF4FF001004FF06C
:100FB0000101FFF711FB4FF020033B604FF00303EB
:100FC0003B714FF00003FB713B464FF00000C4F251
:100FD0000200194600F048F807F10807BD4680BD39
:100FE00080B584B000AF4FF000504FF00101FFF723
:100FF0001FFB4FF000033B604FF000037B604FF09E
:101000000003FB603B464FF000001946FFF7BCF8B9
:101010004FF000004FF00101FFF7F0F807F1100763
:10102000BD4680BD80B584B000AF4FF000504FF09A
:101030000101FFF7FDFA4FF000033B604FF00003A2
:101040007B604FF00003FB603B464FF010001946F9
:10105000FFF79AF84FF010004FF00101FFF7CEF8BC
:1010600007F11007BD4680BD80B487B000AF78603F
:1010700039604FF000037B614FF000033B614FF09C
:101080000003FB604FF000037B618EE07B694FF053
:10109000010202FA03F33B613B681A683B691340A3
:1010A000FB60FA683B699A427BD17B681B681A46F1
:1010B0007B694FEA43034FF0030101FA03F36FEA40
:1010C00003031A407B681A607B681B681A463B68FA
:1010D0001B7919467B694FEA430301FA03F31A436C
:1010E0007B681A603B681B79012B03D03B681B7936
:1010F000022B38D17B689B681A467B694FEA430311
:101100004FF0030101FA03F36FEA03031A407B680F
:101110009A607B689B681A463B685B7919467B69D5
:101120004FEA430301FA03F31A437B689A607B6832
:101130005B681A467B699BB24FF0010101FA03F329
:101140006FEA03031A407B685A607B685B681A4643
:101150003B689B7919467B699BB201FA03F39BB20A
:101160001A437B685A607B68DB681A467B699BB2CE
:101170004FEA43034FF0030101FA03F36FEA03035D
:101180001A407B68DA607B68DB681A463B68DB796B
:1011900019467B694FEA430301FA03F31A437B685C
:1011A000DA607B6903F101037B617B690F2B7FF6BA
:1011B0006DAF07F11C07BD4680BC704780B500AF1E
:1011C0004FF46053C4F202034FF46052C4F20202BF
:1011D000126842F001021A604FF46053C4F2020335
:1011E0004FF000029A604FF46053C4F202034FF4D0
:1011F0006052C4F20202126822F0847222F4803239
:101200001A604FF46053C4F2020343F21002C2F2B8
:1012100000425A604FF46053C4F202034FF460522C
:10122000C4F20202126822F480221A604FF4605362
:10123000C4F202034FF00002DA6000F009F84FF444
:101240006D43CEF200034FF000629A6080BD00BF94
:1012500080B483B000AF4FF000037B604FF0000319
:101260003B604FF46053C4F202034FF46052C4F287
:101270000202126842F480321A604FF46053C4F2E2
:1012800002031B6803F400333B607B6803F1010336
:101290007B603B68002B03D17B68B3F5A06FECD17A
:1012A0004FF46053C4F202031B6803F40033002BB5
:1012B00003D04FF001033B6002E04FF000033B60BE
:1012C0003B68012B40F082804FF46053C4F202036C
:1012D0004FF46052C4F20202126C42F080521A645F
:1012E0004FF4E043C4F200034FF4E042C4F20002C2
:1012F000126842F480421A604FF46053C4F2020351
:101300004FF46052C4F2020292689A604FF4605344
:10131000C4F202034FF46052C4F20202926842F433
:1013200000429A604FF46053C4F202034FF46052DB
:10133000C4F20202926842F4A0529A604FF46053E1
:10134000C4F2020345F21942C0F240725A604FF4EF
:101350006053C4F202034FF46052C4F202021268F6
:1013600042F080721A6000BF4FF46053C4F202036F
:101370001B6803F00073002BF6D04FF47053C4F2D7
:10138000020340F205621A604FF46053C4F2020394
:101390004FF46052C4F20202926822F003029A6093
:1013A0004FF46053C4F202034FF46052C4F20202DD
:1013B000926842F002029A6000BF4FF46053C4F298
:1013C00002039B6803F00C03082BF6D107F10C070E
:0813D000BD4680BC704700BF60
:1013D80000000000010203040102030406070809D3
:1013E80000000000000002400800000001000000AA
:1013F8000305000001000000000802401000000082
:10140800040000000E060000020000000008024070
:1014180020000000040000000F000000030000008E
:101428000008024001000000010000000A0000005E
:101438000400000000080240020000000100000053
:041448000B00000095
:0400000508000000EF
:00000001FF
