:020000040800F2
:100000009008002089010008E1010008E1010008D2
:10001000E1010008E1010008E10100080000000022
:10002000000000000000000000000000E1010008E6
:10003000E101000800000000E101000839080008A3
:10004000E1010008E1010008E1010008E101000808
:10005000E1010008E1010008E1010008E1010008F8
:10006000E1010008E1010008E1010008E1010008E8
:10007000E1010008E1010008E1010008E1010008D8
:10008000E1010008E1010008E1010008E1010008C8
:10009000E1010008E1010008E1010008E1010008B8
:1000A000E1010008E1010008E1010008E1010008A8
:1000B000E1010008E1010008E1010008E101000898
:1000C000E1010008E1010008E1010008E101000888
:1000D000E1010008E1010008E1010008E101000878
:1000E000E1010008E1010008E1010008E101000868
:1000F000E1010008E1010008E1010008E101000858
:10010000E1010008E1010008E1010008E101000847
:10011000E1010008E1010008E1010008E101000837
:10012000E1010008E1010008E1010008E101000827
:10013000E1010008E1010008E1010008E101000817
:10014000E1010008E1010008E1010008E101000807
:10015000E1010008E1010008E1010008E1010008F7
:10016000E1010008E1010008E1010008E1010008E7
:10017000E1010008E1010008E1010008E1010008D7
:10018000E1010008E101000880B582B000AF0F4B2B
:100190007B600F4B3B6007E03B681A1D3A607A6852
:1001A000111D796012681A603B680A4A9342F3D3C2
:1001B00009480A494FF000028842B8BF40F8042BB2
:1001C000FADB00F011F80837BD4680BDD80F0008F3
:1001D0000000002074000020740000209000002027
:1001E00080B400AFFEE700BF80B586B000AF0EA3BD
:1001F000D3E90023C7E9042300F05CFB00F0E8FA30
:10020000002000F08FFB0346184600F06FFE024608
:100210000B46C7E9022306A3D3E90023C7E900235D
:10022000EEE700BFAFF30080CDCCCCCCCCCCF43F1C
:10023000DCB9E17B93CAD03F80B489B000AF78606D
:100240000023BB6100237B610023FB6102233B6130
:100250000023FB600223BB60484B9B6803F00C0348
:10026000BB61BB69042B07D0082B09D0002B3FD101
:100270007B68434A1A603FE07B68424A1A603BE071
:100280003E4B5B6803F480039B0DFB603B4B5B685C
:1002900003F03F03BB60FB68002B0DD0394ABB68FD
:1002A000B2FBF3F2354B596847F6C0730B409B091C
:1002B00003FB02F3FB610CE0314ABB68B2FBF3F2D3
:1002C0002E4B596847F6C0730B409B0903FB02F3A2
:1002D000FB612A4B5B6803F440331B0C01335B006A
:1002E0003B61FA693B69B2FBF3F27B681A6003E099
:1002F0007B68234A1A6000BF204B9B6803F0F00321
:10030000BB61BB691B09BB611F4ABB6913441B78F6
:10031000DBB27B617B681A687B69DA407B685A6074
:10032000164B9B6803F4E053BB61BB699B0ABB613E
:10033000154ABB6913441B78DBB27B617B685A6842
:100340007B69DA407B689A600C4B9B6803F46043DE
:10035000BB61BB695B0BBB610B4ABB6913441B7878
:10036000DBB27B617B685A687B69DA407B68DA6064
:100370002437BD465DF8047B704700BF003802405B
:100380000024F40040787D010000002080B483B098
:1003900000AF78600B46FB70FB78002B06D0094954
:1003A000084B1A6B7B6813430B6306E00549054B4A
:1003B0001A6B7B68DB4313400B630C37BD465DF85B
:1003C000047B70470038024080B483B000AF78608F
:1003D0000B46FB70FB78002B06D00949084B5A6C82
:1003E0007B6813434B6406E00549054B5A6C7B68F8
:1003F000DB4313404B640C37BD465DF8047B70470C
:100400000038024080B485B000AF786039600023C6
:10041000FB600023FB727B685B68FB60FB6823F07A
:10042000407323F48073FB603B681B791A023B68BE
:100430001B681343FA681343FB607B68FA685A60D1
:100440007B689B68FB60FA68174B1340FB603B6856
:100450001A693B68DB681A433B689B681A433B6830
:100460005B795B001343FA681343FB607B68FA68AF
:100470009A607B68DB6AFB60FB6823F47003FB60B7
:100480003B681B7D013BDAB2FB7A1343FB72FB7ABC
:100490001B05FA681343FB607B68FA68DA6214375D
:1004A000BD465DF8047B7047FDF7FFC080B485B0A2
:1004B00000AF78600023FB600E4B5B68FB60FA685E
:1004C0000D4B1340FB607B681A687B685B681A43BE
:1004D0007B689B681A437B68DB681343FA681343A5
:1004E000FB60044AFB6853601437BD465DF8047B2B
:1004F000704700BF00230140E030FCFF80B483B0B0
:1005000000AF78600B46FB70FB78002B06D07B6851
:100510009B6843F001027B689A6005E07B689B68FA
:1005200023F001027B689A600C37BD465DF8047BBE
:10053000704700BF80B485B000AF786008461146B0
:100540001A460346FB700B46BB7013467B700023B4
:10055000FB600023BB60FB78092B23D97B68DB6839
:10056000FB60FB78A3F10A0213465B0013440722E9
:1005700002FA03F3BB60BB68DB43FA681340FB601D
:100580007978FB78A3F10A0213465B00134401FA61
:1005900003F3BB60FA68BB681343FB607B68FA68CF
:1005A000DA601EE07B681B69FB60FA7813465B002B
:1005B0001344072202FA03F3BB60BB68DB43FA680B
:1005C0001340FB607978FA7813465B00134401FA14
:1005D00003F3BB60FA68BB681343FB607B68FA688F
:1005E0001A61BB78062B21D87B685B6BFB60BB78FC
:1005F0005A1E13469B0013441F2202FA03F3BB60EA
:10060000BB68DB43FA681340FB60F978BB785A1E7D
:1006100013469B00134401FA03F3BB60FA68BB68FE
:100620001343FB607B68FA685A6347E0BB780C2B86
:1006300021D87B681B6BFB60BB78DA1F13469B00DD
:1006400013441F2202FA03F3BB60BB68DB43FA6862
:100650001340FB60F978BB78DA1F13469B00134404
:1006600001FA03F3BB60FA68BB681343FB607B6865
:10067000FA681A6322E07B68DB6AFB60BB78A3F14F
:100680000D0213469B0013441F2202FA03F3BB60C2
:10069000BB68DB43FA681340FB60F978BB78A3F1D1
:1006A0000D0213469B00134401FA03F3BB60FA6882
:1006B000BB681343FB607B68FA68DA621437BD4697
:1006C0005DF8047B704700BF80B483B000AF7860F2
:1006D0007B689B6843F080427B689A600C37BD461C
:1006E0005DF8047B704700BF80B483B000AF7860D2
:1006F0007B68DB6C9BB218460C37BD465DF8047B0B
:10070000704700BF80B485B000AF78600B46FB70C7
:100710000023FB737B681A68FB781340002B02D020
:100720000123FB7301E00023FB73FB7B18461437A6
:10073000BD465DF8047B704780B483B000AF0346CC
:100740003960FB7197F90730002B0BDA0D49FB7903
:1007500003F00F03043B3A68D2B21201D2B20B4449
:100760001A7609E0084997F907303A68D2B21201BF
:10077000D2B20B4483F800230C37BD465DF8047BEE
:10078000704700BF00ED00E000E100E080B582B0FE
:1007900000AF78607B68B3F1807F01D3012311E063
:1007A0000A4A7B6823F07F43013B53604FF0FF30E0
:1007B0000F21FFF7C1FF054B00229A60034B072270
:1007C0001A60002318460837BD4680BD10E000E0DF
:1007D00080B584B000AF124B00221A60114B00228A
:1007E0001A60114B00221A60104B00221A600F4B46
:1007F00000225A600E4B00221A600D4B00225A60F4
:100800003B461846FFF718FD7B680A4AA2FB032304
:100810009B0C1846FFF7BAFF1037BD4680BD00BFDE
:1008200074000020780000207C0000208000002060
:100830008800002083DE1B4380B400AF184B1B6888
:10084000002B04D0164B1B68013B154A1360154B57
:100850001B68002B04D0134B1B68013B114A13602B
:10086000114B1B68002B04D00F4B1B68013B0E4A39
:1008700013600E4B1B68002B04D00C4B5B680133DC
:100880000A4A53600A4B1B68002B04D0084B5B6874
:100890000133074A5360BD465DF8047B704700BFD3
:1008A00074000020780000207C00002080000020E0
:1008B0008800002080B500AF00F0DEF800F016F9E7
:1008C00080BD00BF80B584B000AF0346FB7100233C
:1008D000FB81FA79114913469B0013449B000B449A
:1008E00010331B780E48194601220023FFF722FE21
:1008F0000B48FFF7E9FE00BF09480221FFF702FF9E
:100900000346002BF8D00648FFF7EEFE0346FB81B6
:10091000FB8918461037BD4680BD00BF100000207F
:100920000020014080B586B000AF0346FB71002374
:100930007B6101233B820023FB81FA794D491346F9
:100940009B0013449B000B4410335B78002B04D1B5
:1009500001233B820023FB816EE0FA79454913466F
:100960009B0013449B000B4410335B78012B04D194
:1009700002233B820123FB815EE0FA793D49134665
:100980009B0013449B000B4410335B78022B04D173
:1009900004233B820223FB814EE0FA79354913465A
:1009A0009B0013449B000B4410335B78032B04D152
:1009B00008233B820323FB813EE0FA792D4913464D
:1009C0009B0013449B000B4410335B78042B04D131
:1009D00010233B820423FB812EE0FA79254913463C
:1009E0009B0013449B000B4410335B78052B04D110
:1009F00020233B820523FB811EE0FA791D49134623
:100A00009B0013449B000B4410335B78062B04D1EE
:100A100040233B820623FB810EE0FA7915491346F9
:100A20009B0013449B000B4410335B78072B03D1CE
:100A300080233B820723FB8100237B820CE0FB7930
:100A40001846FFF73FFF0346BB81BB897A69134411
:100A50007B617B8A01337B827A8A3B8A9A42EED31E
:100A6000FB897A6922FA03F3BB81BB8918461837E0
:100A7000BD4680BD1000002080B584B000AF0023CB
:100A8000FB732AE0FA7B184913469B0013449B0032
:100A90000B4408335B6818460121FFF777FCFA7BAB
:100AA000114913469B0013449B000B4408331B88D9
:100AB0007B6003233B720023FB72FA7B0A491346D7
:100AC0009B0013449B000B445A683B1D104619467B
:100AD00000F03CF8FB7B0133FB73FB7B042BD1D98B
:100AE0001037BD4680BD00BF1000002080B58AB021
:100AF00000AF4FF480700121FFF766FC0023BB615B
:100B00000023FB6100233B6200237B6207F1180393
:100B10001846FFF7CBFC00233B6000233B7100230A
:100B20007B710023BB6000233B6101233B753B4687
:100B300005481946FFF766FC03480121FFF7DEFC74
:100B40002837BD4680BD00BF0020014080B487B07B
:100B500000AF7860396000237B6100233B61002394
:100B6000FB6000237B6176E07B69012202FA03F3DC
:100B70003B613B681A683B691340FB60FA683B695C
:100B80009A4265D17B681A687B695B00194603232A
:100B90008B40DB431A407B681A607B681A683B68AD
:100BA0001B7919467B695B0001FA03F31A437B68E2
:100BB0001A603B681B79012B03D03B681B79022B21
:100BC0002ED17B689A687B695B00194603238B40B2
:100BD000DB431A407B689A607B689A683B685B7964
:100BE00019467B695B0001FA03F31A437B689A603C
:100BF0007B685A687B699BB2194601238B40DB43B3
:100C00001A407B685A607B685B683A689279114643
:100C10007A6992B201FA02F292B21A437B685A6080
:100C20007B68DA687B699BB25B00032101FA03F3FE
:100C3000DB431A407B68DA607B68DA683B68DB7903
:100C400019467B695B0001FA03F31A437B68DA609B
:100C50007B6901337B617B690F2B85D91C37BD46CE
:100C60005DF8047B704700BF81F0004102E000BFE7
:100C700083F0004330B54FEA41044FEA430594EA5C
:100C8000050F08BF90EA020F1FBF54EA000C55EA97
:100C9000020C7FEA645C7FEA655C00F0E2804FEA68
:100CA0005454D4EB5555B8BF6D420CDD2C4480EA4A
:100CB000020281EA030382EA000083EA010180EA7A
:100CC000020281EA0303362D88BF30BD11F0004FC8
:100CD0004FEA01314FF4801C4CEA113102D04042FE
:100CE00061EB410113F0004F4FEA03334CEA133339
:100CF00002D0524263EB430394EA050F00F0A78051
:100D0000A4F10104D5F1200E0DDB02FA0EFC22FA4B
:100D100005F2801841F1000103FA0EF2801843FA3F
:100D200005F359410EE0A5F120050EF1200E012A30
:100D300003FA0EFC28BF4CF0020C43FA05F3C0186E
:100D400051EBE37101F0004507D54FF0000EDCF1E7
:100D5000000C7EEB00006EEB0101B1F5801F1BD390
:100D6000B1F5001F0CD349085FEA30004FEA3C0C94
:100D700004F101044FEA445212F5800F80F09A808A
:100D8000BCF1004F08BF5FEA500C50F1000041EB8E
:100D9000045141EA050130BD5FEA4C0C404141EB92
:100DA000010111F4801FA4F10104E9D191F0000FB9
:100DB00004BF01460020B1FA81F308BF2033A3F13C
:100DC0000B03B3F120020CDA0C3208DD02F1140C33
:100DD000C2F10C0201FA0CF021FA02F10CE002F16E
:100DE0001402D8BFC2F1200C01FA02F120FA0CFC67
:100DF000DCBF41EA0C019040E41AA2BF01EB0451B0
:100E0000294330BD6FEA04041F3C1CDA0C340EDCAD
:100E100004F11404C4F1200220FA04F001FA02F3F0
:100E200040EA030021FA04F345EA030130BDC4F1AE
:100E30000C04C4F1200220FA02F001FA04F340EAA3
:100E40000300294630BD21FA04F0294630BD94F054
:100E5000000F83F4801306BF81F480110134013D3B
:100E60004EE77FEA645C18BF7FEA655C29D094EAAC
:100E7000050F08BF90EA020F05D054EA000C04BF2A
:100E80001946104630BD91EA030F1EBF0021002015
:100E900030BD5FEA545C05D14000494128BF41F0B4
:100EA000004130BD14F580043CBF01F5801130BD18
:100EB00001F0004545F0FE4141F470014FF00000A3
:100EC00030BD7FEA645C1ABF194610467FEA655C54
:100ED0001CBF0B46024650EA013406BF52EA0335F6
:100EE00091EA030F41F4002130BD00BF90F0000FE4
:100EF00004BF0021704730B54FF4806404F1320420
:100F00004FF000054FF0000150E700BF90F0000FD8
:100F100004BF0021704730B54FF4806404F13204FF
:100F200010F0004548BF40424FF000013EE700BFCF
:100F300042004FEAE2014FEA31014FEA02701FBF5F
:100F400012F07F4393F07F4F81F06051704792F031
:100F5000000F14BF93F07F4F704730B54FF46074AB
:100F600001F0004521F0004120E700BF50EA0102F6
:100F700008BF704730B54FF000050AE050EA0102A3
:100F800008BF704730B511F0004502D5404261EB13
:100F900041014FF4806404F132045FEA915C3FF454
:100FA000DCAE4FF003025FEADC0C18BF03325FEAED
:100FB000DC0C18BF033202EBDC02C2F1200300FAA2
:100FC00003FC20FA02F001FA03FE40EA0E0021FAC7
:080FD00002F11444C1E600BF68
:100FD80000000000010203040102030406070809D7
:100FE80000000000000802400100000004000000AA
:100FF8000A0700000100000000080240020000008B
:10100800040000000B00000002000000000802407D
:1010180004000000040000000C00000003000000B1
:101028000008024008000000040000000D00000055
:101038000400000000080240100000000400000046
:041048000E00000096
:0400000508000000EF
:00000001FF
