:020000040800F2
:1000000018080020F90100086102000861020008D8
:10001000610200086102000861020008000000009F
:100020000000000000000000000000006102000865
:100030006102000800000000610200088901000858
:100040006102000861020008610200086102000804
:1000500061020008610200086102000861020008F4
:1000600061020008610200086102000861020008E4
:1000700061020008610200086102000861020008D4
:1000800061020008610200086102000861020008C4
:1000900061020008610200086102000861020008B4
:1000A00061020008610200086102000861020008A4
:1000B0006102000861020008610200086102000894
:1000C0006102000861020008610200086102000884
:1000D0006102000861020008610200086102000874
:1000E0006102000861020008610200086102000864
:1000F0006102000861020008610200086102000854
:100100006102000861020008610200086102000843
:100110006102000861020008610200086102000833
:100120006102000861020008610200086102000823
:100130006102000861020008610200086102000813
:100140006102000861020008610200086102000803
:1001500061020008610200086102000861020008F3
:1001600061020008610200086102000861020008E3
:1001700061020008610200086102000861020008D3
:10018000610200086102000880B400AF40F204037D
:10019000C2F200031B6803F1010240F20403C2F241
:1001A00000031A6040F20803C2F200031B68002B30
:1001B0000BD040F20803C2F200031B6803F1FF32C8
:1001C00040F20803C2F200031A6040F20003C2F2D8
:1001D00000031B68002B0BD040F20003C2F20003A7
:1001E0001B6803F1FF3240F20003C2F200031A6001
:1001F000BD4680BC704700BF80B582B000AF40F6FE
:100200005433C0F600037B6040F20003C2F20003E7
:100210003B600BE07B681A683B681A603B6803F13F
:1002200004033B607B6803F104037B603A6840F29F
:100230000003C2F200039A42ECD3074807494FF08B
:1002400000028842B8BF40F8042BFADB00F0B2F895
:1002500007F10807BD4680BD0000002018000020FF
:1002600080B400AFFEE700BF80B584B000AF4FF0B0
:1002700004004FF0010100F005F94FF00603BB80C8
:100280004FF00003FB8040F25723BB604FF00003A8
:10029000BB814FF00003BB7307F104034FF4006010
:1002A000C4F20000194600F027FB07F11007BD4615
:1002B00080BD00BF80B586B000AF4FF07003BB803B
:1002C0004FF00103FB804FF002033B8240F22B13FF
:1002D000FB6007F104034FF40060C4F2000019460C
:1002E00000F084FB4FF40060C4F200004FF00801FE
:1002F00000F010FC4FF008004FF0010100F096F8FC
:100300004FF44060C4F202004FF00C014FF00202C3
:1003100000F08EF94FF44060C4F202004FF00D017E
:100320004FF0020200F084F94FF44060C4F2020082
:100330004FF00E014FF0020200F07AF94FF44060E6
:10034000C4F202004FF00F014FF0020200F070F90A
:1003500040F21003C2F200034FF470421A6040F200
:100360001003C2F200034FF000029A7140F2100332
:10037000C2F200034FF00002DA7140F21003C2F241
:1003800000034FF002021A7140F21003C2F20003A0
:100390004FF003025A714FF44060C4F2020040F281
:1003A0001001C2F2000100F099F807F11807BD46EC
:1003B00080BD00BF80B500AF4FF001004FF00101DC
:1003C00000F034F800F08AF940F21003C2F20003A2
:1003D0004FF001021A6040F21003C2F200034FF026
:1003E00000029A7140F21003C2F200034FF00002C3
:1003F000DA7140F21003C2F200034FF000021A71EA
:1004000040F21003C2F200034FF003025A714FF0A2
:100410000000C4F2020040F21001C2F2000100F03C
:100420005DF8FFF721FFFFF745FFFEE780B483B0DB
:1004300000AF78600B46FB70FB78002B0DD04FF4BB
:100440006053C4F202034FF46052C4F20202126B12
:1004500011467A680A431A630EE04FF46053C4F2FF
:1004600002034FF46052C4F20202126B11467A6822
:100470006FEA02020A401A6307F10C07BD4680BC0E
:10048000704700BF80B483B000AF78600B46FB704C
:10049000FB78002B0DD04FF46053C4F202034FF4ED
:1004A0006052C4F20202126C11467A680A431A645E
:1004B0000EE04FF46053C4F202034FF46052C4F2F2
:1004C0000202126C11467A686FEA02020A401A644C
:1004D00007F10C07BD4680BC704700BF80B487B0F1
:1004E00000AF786039604FF000037B614FF000038C
:1004F0003B614FF00003FB604FF000037B618EE037
:100500007B694FF0010202FA03F33B613B681A6812
:100510003B691340FB60FA683B699A427BD17B6878
:100520001B681A467B694FEA43034FF0030101FA47
:1005300003F36FEA03031A407B681A607B681B6849
:100540001A463B681B7919467B694FEA430301FA57
:1005500003F31A437B681A603B681B79012B03D0B5
:100560003B681B79022B38D17B689B681A467B69F4
:100570004FEA43034FF0030101FA03F36FEA030369
:100580001A407B689A607B689B681A463B685B7977
:1005900019467B694FEA430301FA03F31A437B6868
:1005A0009A607B685B681A467B699BB24FF00101D9
:1005B00001FA03F36FEA03031A407B685A607B6811
:1005C0005B681A463B689B7919467B699BB201FAC6
:1005D00003F39BB21A437B685A607B68DB681A4658
:1005E0007B699BB24FEA43034FF0030101FA03F327
:1005F0006FEA03031A407B68DA607B68DB681A469F
:100600003B68DB7919467B694FEA430301FA03F340
:100610001A437B68DA607B6903F101037B617B69C4
:100620000F2B7FF66DAF07F11C07BD4680BC7047EE
:1006300080B485B000AF786013460A467A807B703C
:100640004FF00003FB604FF00003BB607A787B88BB
:1006500003F007034FEA830302FA03F3FB607B888E
:100660004FEAD3039BB21A467B884FEAD3039BB26F
:1006700019467B6801F1080153F8213019467B883F
:1006800003F007034FEA83034FF00F0000FA03F370
:100690006FEA030319407B6802F1080243F8221055
:1006A0007B884FEAD3039BB21A467B6802F10802AB
:1006B00053F822301A46FB681343BB607B884FEA2D
:1006C000D3039BB21A467B6802F10802B96843F86B
:1006D000221007F11407BD4680BC704780B500AFFB
:1006E0004FF46053C4F202034FF46052C4F20202AA
:1006F000126842F001021A604FF46053C4F2020320
:100700004FF000029A604FF46053C4F202034FF4BA
:100710006052C4F20202126822F0847222F4803223
:100720001A604FF46053C4F2020343F21002C2F2A3
:1007300000425A604FF46053C4F202034FF4605217
:10074000C4F20202126822F480221A604FF460534D
:10075000C4F202034FF00002DA6000F009F84FF42F
:100760006D43CEF200034FF000629A6080BD00BF7F
:1007700080B483B000AF4FF000037B604FF0000304
:100780003B604FF46053C4F202034FF46052C4F272
:100790000202126842F480321A604FF46053C4F2CD
:1007A00002031B6803F400333B607B6803F1010321
:1007B0007B603B68002B03D17B68B3F5A06FECD165
:1007C0004FF46053C4F202031B6803F40033002BA0
:1007D00003D04FF001033B6002E04FF000033B60A9
:1007E0003B68012B40F082804FF46053C4F2020357
:1007F0004FF46052C4F20202126C42F080521A644A
:100800004FF4E043C4F200034FF4E042C4F20002AC
:10081000126842F480421A604FF46053C4F202033B
:100820004FF46052C4F2020292689A604FF460532F
:10083000C4F202034FF46052C4F20202926842F41E
:1008400000429A604FF46053C4F202034FF46052C6
:10085000C4F20202926842F4A0529A604FF46053CC
:10086000C4F2020345F21942C0F240725A604FF4DA
:100870006053C4F202034FF46052C4F202021268E1
:1008800042F080721A6000BF4FF46053C4F202035A
:100890001B6803F00073002BF6D04FF47053C4F2C2
:1008A000020340F205621A604FF46053C4F202037F
:1008B0004FF46052C4F20202926822F003029A607E
:1008C0004FF46053C4F202034FF46052C4F20202C8
:1008D000926842F002029A6000BF4FF46053C4F283
:1008E00002039B6803F00C03082BF6D107F10C07F9
:1008F000BD4680BC704700BF80B485B000AF786053
:1009000039604FF00003FB817B681B88FB817A68AC
:100910004FF00003C4F201039A421FD07A684FF4EB
:100920008063C4F201039A4218D07B68B3F1804F10
:1009300014D07A684FF48063C4F200039A420DD059
:100940007A684FF40063C4F200039A4206D07A68D2
:100950004FF44063C4F200039A4208D1FB8923F0AC
:100960007003FB813B685A88FB891343FB817A68DB
:100970004FF48053C4F200039A420FD07A684FF4C8
:10098000A053C4F200039A4208D0FB8923F44073B9
:10099000FB813B681A89FB891343FB817B68FA89D9
:1009A0001A803B685A687B68DA623B681A887B6801
:1009B0001A857A684FF00003C4F201039A4206D008
:1009C0007A684FF48063C4F201039A4204D13B6811
:1009D0009B7A1A467B681A867B684FF001029A82DE
:1009E00007F11407BD4680BC704700BF80B485B0D6
:1009F00000AF786039604FF000037B814FF0000357
:100A0000FB814FF00003BB817B681B8C9BB223F002
:100A100010039AB27B681A847B681B8CFB817B680D
:100A20009B88BB817B681B8B7B817B8923F4E043A4
:100A30007B817B8923F440737B813B681B884FEA71
:100A400003239AB27B8913437B81FB8923F0200324
:100A5000FB813B689B894FEA03139AB2FB891343DE
:100A6000FB813B685B884FEA03139AB2FB8913430F
:100A7000FB817A684FF00003C4F201039A4206D06A
:100A80007A684FF48063C4F201039A422FD1FB8944
:100A900023F08003FB813B68DB894FEA03139AB2A2
:100AA000FB891343FB81FB8923F04003FB813B68F7
:100AB0009B884FEA03139AB2FB891343FB81BB89DE
:100AC00023F48063BB81BB8923F40063BB813B6853
:100AD0001B8A4FEA83039AB2BB891343BB813B68ED
:100AE0005B8A4FEA83039AB2BB891343BB817B685D
:100AF000BA899A807B687A891A833B689A687B688E
:100B00009A637B68FA891A8407F11407BD4680BC92
:100B1000704700BF80B485B000AF78600B467B8023
:100B20004FF00003FB817B681B8BFB81FB8923F467
:100B30000063FB817B884FEA03239AB2FB8913434E
:100B4000FB817B68FA891A8307F11407BD4680BCD4
:040B5000704700BF2B
:0400000508000000EF
:00000001FF
