:020000040800F2
:10000000300800204D030008B5030008B5030008C0
:10001000B5030008B5030008B503000800000000A0
:10002000000000000000000000000000B503000810
:10003000B503000800000000B503000879020008BD
:10004000B5030008B5030008B5030008B5030008B0
:10005000B5030008B5030008B5030008B5030008A0
:10006000B5030008B5030008B5030008B503000890
:10007000B5030008B5030008B5030008B503000880
:10008000B5030008B5030008B5030008B503000870
:10009000B5030008B5030008B5030008B503000860
:1000A000B5030008B5030008B5030008B503000850
:1000B000B5030008B5030008B5030008B503000840
:1000C000B5030008B5030008B5030008B503000830
:1000D000B5030008B5030008B5030008B503000820
:1000E000B5030008B5030008B5030008B503000810
:1000F000B5030008B5030008B5030008B503000800
:10010000B5030008B5030008B5030008B5030008EF
:10011000B5030008B5030008B5030008B5030008DF
:10012000B5030008B5030008B5030008B5030008CF
:10013000B5030008B5030008B5030008B5030008BF
:10014000B5030008B5030008B5030008B5030008AF
:10015000B5030008B5030008B5030008B50300089F
:10016000B5030008B5030008B5030008B50300088F
:10017000B5030008B5030008B5030008B50300087F
:10018000B5030008B503000880B483B000AF034690
:100190003960FB7197F90730002B10DA4FF46D438B
:1001A000CEF20003FA7902F00F02A2F104013A68DC
:1001B000D2B24FEA0212D2B25B181A760DE04FF4B7
:1001C0006143CEF2000397F907103A68D2B24FEAC2
:1001D0000212D2B25B1883F8002307F10C07BD4668
:1001E00080BC704780B582B000AF78607A686FF0ED
:1001F0007F439A4202D94FF001031FE04EF21003F1
:10020000CEF200037A6822F07F4202F1FF325A6098
:100210004FF0FF304FF00F01FFF7B6FF4EF2100323
:10022000CEF200034FF000029A604EF21003CEF2BD
:1002300000034FF007021A604FF00003184607F161
:100240000807BD4680BD00BF80B483B000AF7860B2
:100250007A6840F21403C2F200031A6000BF40F251
:100260001403C2F200031B68002BF8D107F10C073E
:10027000BD4680BC704700BF80B400AF40F2180399
:10028000C2F200031B6803F1010240F21803C2F23C
:1002900000031A6040F21C03C2F200031B68002B2B
:1002A0000BD040F21C03C2F200031B6803F1FF32C3
:1002B00040F21C03C2F200031A6040F21403C2F2BF
:1002C00000031B68002B0BD040F21403C2F20003A2
:1002D0001B6803F1FF3240F21403C2F200031A60FC
:1002E000BD4680BC704700BF80B500AF40F2200320
:1002F000C2F200031B78002B25D14FF0010000F063
:10030000E7F800BF00F0FCF80346002BFAD040F2FB
:100310000003C2F200031A684DF68363C4F21B3374
:10032000A3FB02134FEA93431846FFF75BFF034614
:10033000002B00D0FEE740F22003C2F200034FF092
:1003400001021A7000E000BF80BD00BF80B582B01E
:1003500000AF40F2D873C0F600037B6040F20003A8
:10036000C2F200033B600BE07B681A683B681A60CE
:100370003B6803F104033B607B6803F104037B608B
:100380003A6840F21403C2F200039A42ECD30748E1
:1003900007494FF000028842B8BF40F8042BFADB4F
:1003A00000F056F807F10807BD4680BD1400002094
:1003B0002C00002080B400AFFEE700BF80B500AF86
:1003C0004FF44060C4F202004FF4005100F0F6F91F
:1003D0004FF44060C4F202004FF4804100F0EEF9A7
:1003E00080BD00BF80B584B000AF786039604FF445
:1003F0004060C4F202004FF4804100F0DFF94FF09A
:100400000003FB601BE04FF44060C4F202004FF4B5
:10041000005100F0C5F93B681846FFF715FF4FF48F
:100420004060C4F202004FF4005100F0C7F93B688D
:100430001846FFF709FFFB6803F10103FB60FA6848
:100440007B689A42DFDD07F11007BD4680BD00BF23
:1004500080B500AF4FF008004FF0010100F082F8C6
:1004600040F22403C2F200034FF4C0421A6040F28B
:100470002403C2F200034FF001021A7140F2240378
:10048000C2F200034FF000029A7140F22403C2F25C
:1004900000034FF00002DA7140F22403C2F20003BD
:1004A0004FF003025A714FF44060C4F2020040F270
:1004B0002401C2F2000100F0C9F8FFF715FFFFF7B1
:1004C0007DFF4FF448504FF06401FFF78BFFFEE7CC
:1004D00080B483B000AF0346FB7143F60203C4F25D
:1004E00002034FF000021A7043F60203C4F2020343
:1004F000FA791A7007F10C07BD4680BC704700BF3F
:1005000080B582B000AF4FF000033B604FF00003B6
:10051000FB714FF00003BB714FF0310000F04EF85B
:100520000346BB713B6803F101033B603B68B3F5D5
:10053000A06F02D0BB79002BEED04FF0310000F05D
:100540003DF80346002B03D04FF00103FB7102E09E
:100550004FF00003FB71FB79184607F10807BD4611
:1005600080BD00BF80B483B000AF78600B46FB70E5
:10057000FB78002B0DD04FF46053C4F202034FF40C
:100580006052C4F20202126B11467A680A431A637F
:100590000EE04FF46053C4F202034FF46052C4F211
:1005A0000202126B11467A686FEA02020A401A636D
:1005B00007F10C07BD4680BC704700BF80B487B010
:1005C00000AF0346FB714FF00003FB604FF00003E8
:1005D0007B614FF00003FB74FB794FEA5313DBB2EE
:1005E000FB60FB68012B06D14FF46053C4F2020399
:1005F0001B687B610FE0FB68022B06D14FF4605350
:10060000C4F202031B6F7B6105E04FF46053C4F238
:1006100002035B6F7B61FB7903F01F03FB60FB68E8
:100620007A6922FA03F303F00103DBB2002B03D053
:100630004FF00103FB7402E04FF00003FB74FB7CFE
:10064000184607F11C07BD4680BC704780B487B0D0
:1006500000AF786039604FF000037B614FF000031A
:100660003B614FF00003FB604FF000037B618EE0C5
:100670007B694FF0010202FA03F33B613B681A68A1
:100680003B691340FB60FA683B699A427BD17B6807
:100690001B681A467B694FEA43034FF0030101FAD6
:1006A00003F36FEA03031A407B681A607B681B68D8
:1006B0001A463B681B7919467B694FEA430301FAE6
:1006C00003F31A437B681A603B681B79012B03D044
:1006D0003B681B79022B38D17B689B681A467B6983
:1006E0004FEA43034FF0030101FA03F36FEA0303F8
:1006F0001A407B689A607B689B681A463B685B7906
:1007000019467B694FEA430301FA03F31A437B68F6
:100710009A607B685B681A467B699BB24FF0010167
:1007200001FA03F36FEA03031A407B685A607B689F
:100730005B681A463B689B7919467B699BB201FA54
:1007400003F39BB21A437B685A607B68DB681A46E6
:100750007B699BB24FEA43034FF0030101FA03F3B5
:100760006FEA03031A407B68DA607B68DB681A462D
:100770003B68DB7919467B694FEA430301FA03F3CF
:100780001A437B68DA607B6903F101037B617B6953
:100790000F2B7FF66DAF07F11C07BD4680BC70477D
:1007A00080B483B000AF78600B467B807B687A882A
:1007B0001A8307F10C07BD4680BC704780B483B034
:1007C00000AF78600B467B807B687A885A8307F19C
:0807D0000C07BD4680BC704718
:1007D800007A030A00000000000000000102030480
:0407E80006070809EF
:0400000508000000EF
:00000001FF
