:104000000080002089CF0000F5CE0000F9CE00002E
:1040100000000000000000000000000000000000A0
:10402000000000000000000000000000FDCE0000C5
:10403000000000000000000001CF0000498A0000DD
:1040400009CF00000DCF000011CF000015CF0000F8
:1040500019CF0000E1AA000021CF000025CF000009
:1040600029CF00004DAB000031CF000035CF00005C
:1040700039CF00003DCF000041CF0000098600008D
:1040800049CF00004DCF000051CF000055CF0000B8
:1040900059CF00005DCF000061CF000065CF000068
:1040A00069CF00006DCF00001142000075CF000005
:1040B00079CF00007DCF000081CF000085CF0000C8
:0840C000FFFFFFFFFFFFFFFF00
:1040C80062B6704772B6704710B5444A042313614C
:1040D80043498D239B01CB6080231B0493603F4B96
:1040E8000122596B1142FAD03E493F489962DA627F
:1040F8003E4A00215A643E4A9A64012252421A6199
:1041080008F0B8FA3848012108F0FCFAE22000016A
:1041180008F0BAF8012008F067F8304C8022236CC8
:104128001342FAD0304B042019690A431A6108F087
:1041380007F9002008F0AAF9636B5A060BD42D483A
:1041480008F0AAF8012008F05DF8244B4022596BCA
:104158001142FAD0DA63032008F0EEFC00F0BAF955
:1041680000F068FA07F09CF8234A8023DB0423490F
:10417800D367C02252008B500B6000F02BF904F07B
:10418800EDFC04F0B1F906F07BFC00F033F91C4CAF
:10419800A31DD87F00F0B6F8207804F0CDFAE078B7
:1041A80004F0B6FA6079A168226904F0ADFB05F065
:1041B80061F906F023FC06F059FD01F08BFB04F0D1
:1041C800DFFC03F0B3FB05F091F904F0EBFC0D4BB9
:1041D8001B78002BF5D0002010BDC046000002401F
:1041E800000003402C080000000001400000DCAC87
:1041F8000000C5A3280E000004E100E000E100E093
:10420800080000207809002008B507F019FA08BD51
:1042180000B5072818D80D4B8000C3589F46802347
:104228005B0001E080239B00094AD3620CE0042272
:1042380008E0022206E0012204E0202202E0102227
:1042480000E00822034BDA6200BDC046B8E800006F
:10425800001005400000054000B5072818D80D4B90
:104268008000C3589F4680235B0001E080239B00A9
:10427800094A13630CE0042208E0022206E0012246
:1042880004E0202202E0102200E00822034B1A6317
:1042980000BDC046D8E800000010054000000540F9
:1042A80000B5072803D8144B8000C3589F46002048
:1042B80020E0124B586BC0051BE0104B586B800573
:1042C80017E00F4B586B400713E00D4B586B8007F6
:1042D8000FE00B4B586B012318400BE0084B586B51
:1042E800800606E0064B586BC00602E0044B586B8C
:1042F8000007C00F00BDC046F8E8000000100540E8
:104308000000054000B5C30703D5194B0422DA6144
:1043180002E0174B04221A620223184202D0144A00
:10432800D36101E0124A1362430703D5104B0122FF
:10433800DA6102E00E4B01221A62030703D50C4B27
:104348002022DA6102E00A4B20221A621023184266
:1043580002D0074AD36101E0054A1362830603D5F8
:10436800034B0822DA6102E0014B08221A6200BD01
:104378000000054000B5164B9B68C20702D5042211
:10438800134301E0042293430222104201D0134355
:1043980000E09343420702D50122134301E00122C2
:1043A8009343020702D52022134301E020229343BE
:1043B8001022104201D0134300E09343820602D535
:1043C8000822134301E008229343014A936000BD89
:1043D8000080054062B6704772B6704700B5002885
:1043E80001D0002003E0024B986BC002C00F00BD53
:1043F8000010054000B5124B83B01B78002B1CD071
:10440800104B8022DA6240221A63002301E0019BEC
:1044180001330193019A0C4B9A42F8D9094B802237
:104428001A634022DA62002301E0019B0133019301
:10443800019A054B9A42E3D8F7E703B000BDC0469E
:1044480074080020001005409F86010008B5002868
:1044580002D1C90804F00EFD08BDC04608B5002801
:1044680002D008F007FC01E008F00CFC08BDC046CB
:1044780008B5062803D8144B8000C3589F4600206F
:1044880020E0002006F0F0FA104B834280414042C1
:1044980018E00F4B986B800602E00D4B986BC00636
:1044A800C00F0FE00A4B986B0007F9E7084B986BB1
:1044B8004007F5E7064B986B8007F1E7044B986BCC
:1044C8000123184008BDC04618E90000FF0300009A
:1044D8000000054030B5334B334901225A609A60D9
:1044E800D961324983B01962202119638021C9003A
:1044F800D9622F4938238B602E4B01205A609A606D
:10450800E02252031A622C4ADA61C0221201DA62EE
:10451800C02292001A63C0231B048B61012215215B
:1045280008F046FA0021002200231E480424C46231
:1045380001240463002001E0019801300190019CEE
:104548001E488442F8D91748846BA50603D5806BAA
:10455800040700D4013313480124C462042404630B
:10456800002001E0019801300190019C1348844229
:10457800F8D90C48846BA50603D4806B040700D5D2
:10458800013201310A29D0D10649052008630A2AD7
:1045980003D10A2B01D1012200E00022084B03B00D
:1045A8001A7030BD0000054007040000380000C044
:1045B8000080054000100540E00F4000E7030000C0
:1045C8007408002000B5012808D0002803D002286C
:1045D8000BD0002025E080231B0101E08023DB00B5
:1045E80010480363104B996006E080230F48DB00F6
:1045F80003630F4B996004E00B4BD968C806FBD4E2
:1046080003E00B4BD968C806FBD49868C0B2002AEF
:1046180007D0064A8023DB00D362C023014A1B016E
:10462800D36200BD0010054000100940000005409D
:104638000000094008B500200721012208F0B8F958
:1046480000200821012208F0B3F9002009210122E5
:1046580008F0AEF901200E21032208F0A9F9012083
:104668000D21032208F0A4F901200C21032208F0EF
:104678009FF90A4A8023DB00D362094AC0231B0141
:10468800D362084B0222C721082019605A601861BA
:10469800054B19605A6028221A6108BD00000540C0
:1046A800001005400000094000100940F0B585B031
:1046B800041C0D1C171C002949D0002847D0A14212
:1046C80045D05601F6B206233343191C0020019346
:1046D80005F0B2FE0C2131430390002005F0ACFE3A
:1046E8000290201C09F0ACF9041C281C09F0A8F958
:1046F800011C201C08F0E4FD041C039809F0A0F933
:10470800211C08F0DDFD08F0C3FD061C029809F025
:1047180097F9211C08F0D4FD08F0BAFD051C002EFD
:1047280000D10126002D00D10125201C094908F0DF
:1047380087FD002803D0381C291C06F0D3F8321C4A
:104748000020019905F02AFF034B0122DA5505B034
:10475800F0BDC0460000A04158000020F8B50C4F3D
:10476800041C3B5C002B11D0C6B20623710119430F
:10477800084B8500EA58C9B2002005F091FF064BA6
:10478800301CE95806F0AEF800233B55F8BDC0468A
:1047980058000020180800200C04002070B5B34A07
:1047A80082B05378991FC9B201290FD98C2B0DD02B
:1047B800C02B0BD0C72B09D0191C6031C9B21829DE
:1047C80004D9191C3431C9B2322904D8A74A9278BD
:1047D800002A05D002E09278022A01D9042217E3C0
:1047E800A42B00D162E2A42B67D8842B00D1E0E08F
:1047F800842B2DD8062B00D128E1062B12D8022BAA
:1048080000D1D6E0022B06D8002B00D1BFE0012B47
:1048180000D0FCE2BFE0042B00D1EEE0042B00D96D
:1048280004E1E5E0802B00D1B1E0802B09D80C2B06
:1048380000D125E10D2B00D137E1072B00D0E6E2AE
:104848000CE1822B00D145E1822B00D9D5E0A2E012
:10485800942B00D114E1942B18D88A2B00D14CE169
:104868008A2B09D8862B00D1E0E0862B00D2BFE046
:10487800872B00D0CBE23BE18D2B00D162E1932B5B
:1048880000D112E18C2B00D0C1E24CE1A02B00D169
:10489800F6E1A02B09D8992B00D178E19A2B00D109
:1048A80087E1952B00D0B2E251E1A22B00D1F2E1D1
:1048B8006E4CA22B00D9F4E1E8E1B32B00D150E211
:1048C800B32B2DD8AB2B00D118E2AB2B13D8A72BC9
:1048D80000D1FDE1A72B06D8A52B00D1ECE1A62B32
:1048E80000D094E2EEE1A92B00D1FCE15F4CA92BAA
:1048F80000D9FEE1F2E1AF2B00D11CE2AF2B07D8C3
:10490800AD2B00D10BE2594CAD2B00D90DE2FBE1E8
:10491800B12B00D11AE2554CB12B00D91CE210E2A0
:10492800C32B00D16FE1C32B18D8B82B00D142E2BA
:10493800B82B09D8B62B00D124E2B62B00D932E225
:10494800B52B00D063E212E2C12B00D14AE1C12BA2
:1049580000D94EE1C02B00D059E27FE0D22B00D124
:104968003EE2D22B09D8CC2B00D157E1D12B00D174
:1049780027E2C72B00D04AE268E0D62B00D163E1DA
:10498800FE2B00D16BE1D42B00D040E251E1374B34
:104998009978490104E0354B02229978490111437D
:1049A8005A68D87812020243C9B2002005F0F6FD11
:1049B80030E22E4C0823A178626849011943E37854
:1049C80012021A43C9B2002005F06AFEA178062334
:1049D800626849011943E37812021A43D317D218BF
:1049E800C9B25A40002005F05BFEA37801211AE005
:1049F8001E4B0A229978490170E01C4C0623A178C5
:104A0800626849011943E37812021A43C9B20020C7
:104A180005F046FE6068E278A37800021043144A65
:104A2800990088500021134AD154F3E10F4C616872
:104A3800E37809021943A07805F054FF6068E2782A
:104A4800A3780002104399000B4AEAE7074B0B4989
:104A58009A78DB7852018A185372DBE1034B0749D5
:104A68009A78DB7852018A189372D3E1E002002029
:104A780018080020580000200C040020D808002046
:104A8800D44C1423A17801AD49011943C9B22A1C99
:104A9800002005F025FD6168E27809026B78114372
:104AA80001D0022265E0022266E0CA4C1423A178F4
:104AB80001AD49011943C9B22A1C002005F010FDB7
:104AC8006168E27809026B78114301D0012250E055
:104AD800012251E0BF4B04229978490111435A68D9
:104AE800D87812020243C9B2002005F0D9FD91E13D
:104AF800B84B0E2299784901F0E7B64C1426A178F4
:104B080001AD49013143C9B22A1C002005F0E8FC77
:104B1800E3780020AB70A1782A1C49010E43F1B25A
:104B280005F058FE76E1AB4C0821E378A078C91A65
:104B3800C9B204F029FCA378A74A5B01D318E2782C
:104B4800DA7267E1A34B1A2299784901C6E7A14CAA
:104B58001423A17801AD49011943C9B22A1C0020C8
:104B680005F0BEFC6168E27809026B78114302D057
:104B78000422134301E0042293436B70954B0020F9
:104B88009978142349011943C9B201AAC8E7914D7C
:104B98001826A97801AC49013143C9B2221C00206A
:104BA80005F09EFC61780F23EA7899431A400B1CA4
:104BB8000FE0884D1826A97801AC49013143C9B2E4
:104BC800221C002005F08CFCEA7861780F23120182
:104BD8000B4013436370A978002049010E43F1B2DA
:104BE800221C9DE77B4B9A78D978520108327A4B80
:104BF8001AE7784B59689A78D8780902764B5201A7
:104C08000143D15006E1734B73499A785201521807
:104C1800D9785B681B020B435360FBE06D4B9978B6
:104C28005A68D8786C4B4901120202435B18DA8142
:104C3800F0E0684B68499A7852018A18D9785B681D
:104C48001B020B435361E5E0624B63499A785201BA
:104C58005218D9785B681B020B439383DAE05D4BEB
:104C68005D4A5868D97800029B78014304D05B01FB
:104C78009A1801231373CDE05B019A181173C9E0E8
:104C8800544B9878D97804F071FBC3E0A078E178A8
:104C980004F062FBBEE04F4B9878D97804F058FADC
:104CA800B8E0A078E17804F049FAB3E0494B987885
:104CB800D97804F02FFAADE0464B9878D97804F00B
:104CC8001FFAA7E0434B9878D97804F00FFAA1E0CF
:104CD800404B9878D97804F0FFF99BE0A078E17808
:104CE80004F06CF996E03B4B9878D97804F05AF9BF
:104CF80090E0A078E17804F049F98BE0354B98789A
:104D0800D97804F037F985E0E178A07804F026F93D
:104D1800A3783249DB00E2785B185A717AE02D4BB0
:104D28009878D97804F0BEF874E0A0780321615629
:104D380004F0ACF86EE0274B9878D97804F0C0FA04
:104D480068E0A078E17804F0AFFA63E0214B987846
:104D5800D97804F09DFA5DE0A078E17804F08CFA47
:104D680058E01C4B9878D97804F06EFA52E0194B49
:104D780019499A7852015218D9785B681B020B437B
:104D8800936147E0134BDA7898785B68C1001B029F
:104D98001343124A8B50002B3CD1104BCB18597936
:104DA80004F0DCF836E00B4B0C499878DA78C00050
:104DB80043181A712EE0074B9878D97804F0B4F9A3
:104DC80028E0044B5968DA7809029878114305F00D
:104DD80023FF1FE0E0020020D8080020440800203C
:104DE8000D4C0E4AA0786568E37841012D021D43F9
:104DF80010318D501F21194005F0D2FE6168E3780B
:104E080009021943A078491105F0C0FE02E0032207
:104E1800034B1A7002B070BDE0020020D8080020D1
:104E28000004002030B5A74A83B05378991FC9B24F
:104E380001290FD98C2B0DD0C02B0BD0C72B09D033
:104E4800191C6031C9B2182904D9191C3431C9B2E6
:104E5800322904D89B4A9278002A07D002E0927837
:104E6800022A03D9984B04221A7002E3A32B00D11B
:104E780052E2954DA32B00D984E0832B00D125E184
:104E8800832B39D8082B00D138E1082B18D8032BED
:104E980000D10DE1032B06D8012B00D1F8E0012B3E
:104EA80000D900E1F0E0052B00D114E1052B00D278
:104EB8000CE1062B00D113E1072B00D0C4E216E168
:104EC8000C2B00D124E10C2B06D80A2B00D153E17E
:104ED8000A2B00D93FE138E1802B00D1D4E0802BA8
:104EE80003D80D2B00D0AFE221E1812B00D1CFE018
:104EF800822B00D0A8E24DE1942B00D108E1942B3D
:104F08001BD8872B00D14AE1872B06D8852B00D1E7
:104F1800CEE0852B00D9DEE0C5E08C2B00D150E136
:104F28008C2B03D88A2B00D08EE23DE18D2B00D14B
:104F380053E1932B00D087E2F9E09C2B00D11BE1D1
:104F48009C2B0FD8992B00D162E1992B03D8952B74
:104F580000D079E24BE19A2B00D168E19B2B00D07D
:104F680072E2F8E0A02B00D1C7E1A02B03D89D2B5B
:104F780000D069E2C2E0A12B00D1C3E1A22B00D08E
:104F880062E2C4E1B52B00D11FE2B52B38D8AC2BB7
:104F980000D1ECE1AC2B19D8A72B00D1CEE1A72B7F
:104FA80007D8A52B00D1C0E1464AA52B00D9C1E1FD
:104FB800B7E1A92B00D1CBE1A92B00D2C3E1AA2BE1
:104FC80000D1CAE1AB2B00D03EE2CBE1B02B00D13F
:104FD800E2E1B02B07D8AE2B00D1D3E1394AAE2B92
:104FE80000D9D5E1CAE1B22B00D1DFE1B22B00D262
:104FF800D7E1B32B00D1DEE1B42B00D024E2DFE10E
:10500800C72B6DD0C72B1AD8C02B70D0C02B09D88E
:10501800B72B00D1E5E1B72B00D2DDE1B82B00D0EA
:1050280012E2E6E1C22B00D115E1C22B00D20CE15D
:10503800C32B00D114E1C42B00D005E217E1D12B1A
:1050480000D1F5E1D12B0FD8CE2B00D11BE1CE2B0F
:1050580003D8CC2B00D0F7E10EE1CF2B00D118E11B
:10506800D02B00D0F0E12FE1D42B00D130E1D42BAC
:1050780003D8D22B00D0E7E1DFE1D62B00D12EE117
:10508800FE2B00D0E0E131E10E4B9978490104E0B4
:105098000C4B9978022349011943C9B2002005F045
:1050A800CBF96860D2E1074B99780823490103E0FE
:1050B800044B99780A2349011943C9B2002005F025
:1050C800F9F9EEE7E002002000040020CC4B9A78C2
:1050D800CC4B9200B6E1CA4B9A78CB4B9200D6E003
:1050E800C74BCA4A9B785B01D3185B7A7FE1C44BF4
:1050F800C64A9B785B01D3189B7A78E1002005F0BB
:10510800A3F8BF4B9B785B00184101231840C8E700
:10511800BB4B01AC9978142349011943C9B200204B
:10512800221C05F0DDF963789B07DB0F5FE1B44BC8
:1051380001AC9978142349011943221CC9B20020F3
:1051480005F0CEF9627801236FE00020FFF790F9AF
:10515800431E984151E101AC221C00207C2105F03E
:10516800BFF9A74B02229B785B009A40131CA278D8
:1051780013405A1E93413AE101AC221C00207C21C5
:1051880005F0AEF99E4BA2789B785B001A41131C80
:1051980001224AE09A4B99780423490121E0984B6F
:1051A80099780E23490187E7954B01AC9978142328
:1051B80049011943221CC9B2002005F091F9A278CF
:1051C80023E08F4B9B78002B05D1002003F002FDD4
:1051D8000823181A65E7042337E1894B99781A23BD
:1051E80049011943C9B2002005F064F905E1844B6F
:1051F80001AC9978142349011943221CC9B2002033
:1052080005F06EF962785207D20F814B5A601DE1A2
:105218007B4B01AC9978182349011943221CC9B268
:10522800002005F05DF962780F231340DFE0744B2E
:1052380001AC9978182349011943221CC9B20020EE
:1052480005F04EF962781209DFE76D4B9A786F4BDB
:1052580052010832B7E06A4B9A786C4B520116E05B
:10526800674B6A4A9B785B019B185A68CDE7644B89
:105278009A78684B9200E5E0614B644A9B785B0141
:10528800D318DA89C1E75E4B9A78634B9200D358FA
:10529800ADE05F4A00235360594B60499B78C95C75
:1052A800002901D0012151605C4A0021D1545C4A97
:1052B800D25C002A04D0564A02215068014351604A
:1052C800574A0021D154C1E04D4B564A9B787AE0A9
:1052D8004B4B4E4A9B785B01D3185B6987E0484B80
:1052E8004A4A9B785B019B189A8B8EE7444B474A46
:1052F8009B785B01D3181A7B87E7414B987803F0BA
:1053080071FCCEE63E4B987803F074FC75E03C4B9C
:10531800987803F077FC70E0394B987803F07AFCC2
:105328006BE0907803F086FCBBE6354B987803F089
:1053380089FCB6E6907803F08DFCB2E6304B98789D
:1053480003F090FCADE62E4B987803F093FC54E004
:105358002B4B987803F096FCA3E6294B987803F03A
:1053680099FC4AE0264B987803F09CFC45E0244BD6
:105378002D4A9B78DB009B185B7938E0907803F026
:10538800A1FC8EE61E4B987803F0A4FC40B288E698
:10539800907803F0B1FC84E6194B987803F0B4FCDC
:1053A8007FE6174B987803F0B7FC26E0144B987803
:1053B80003F0BAFC75E6124B987803F0C7FC1CE0C2
:1053C8000F4B1A4A9B78D25C1FE70D4B0F4A9B780C
:1053D8005B019B189B690AE0094B9A78124BD20033
:1053E80030E0074B104A9B78DB009B181B796B60F9
:1053F8002CE0034B987803F015FC054B586025E02A
:10540800E0020020180800200C040020D808002022
:10541800000400202C08002068080020D008002084
:1054280060080020D408002044080020400800201C
:10543800114B987805F0E2FB33E60F4B9A780F4B47
:1054480052011032D258E0E603232B700C4B1B7824
:10545800002B0ED00B4B5A680B4B1A600B4B002AD3
:1054680003D1196808220A4302E01A6808218A430E
:105478001A6003B030BDC046E0020020D808002002
:10548800FA03002000040020E8030020E8020020BE
:1054980038B5AD4A5378991FC9B201290AD98C2B5E
:1054A80008D0C02B06D0C72B04D0191C3431C9B280
:1054B800322904D8A44A9278002A04D0C7E0927806
:1054C800022A00D9C3E0952B27D8932B00D3A3E059
:1054D8000D2B10D80C2B00D39EE0052B61D0052B8B
:1054E80003D8042B00D02BE146E0062B72D0072B03
:1054F80000D025E17FE0862B53D0862B06D8822B5F
:1055080000D18DE0832B00D01AE135E08C2B00D13F
:105518008AE08D2B00D013E19BE0C32B00D1C7E0BC
:10552800C32B14D8B52B00D19DE0B52B05D8673314
:10553800DBB2012B00D903E18FE0C12B00D19FE042
:10554800C12B00D9ACE0C02B00D0F9E053E0D22B3E
:1055580000D1C3E0D22B05D8C72B3BD0CC2B00D031
:10556800EEE0AEE0D62B00D1CDE0FE2B00D1D7E0A7
:10557800D42B00D0E4E0B8E0734C0621A07805F005
:105588008FF9A578062369011943C9B2002004F0F0
:1055980091FF6E4BAD00E850A3786D4A0021D154BD
:1055A800D1E0694C0C21A07805F07AF9A5780C2394
:1055B80069011943C9B2002004F07CFF654BAD00B6
:1055C800E850A078624A002111548200D15805F0B1
:1055D80089F9B8E05C4B604A9B785C01083414197F
:1055E800981C611C5B0140014018D218801A02F017
:1055F8008BFD6070A7E0544B574A9B785C010834D8
:105608001419981CA11C5B0140014018D218801A7B
:1056180002F07AFDA07096E04B4B142198781FE0B9
:10562800494B042198781BE0474CA378002B0ED1F6
:105638004A4D4B20291C012202F042FDA078082186
:105648004301EB5CC91AC9B203F09EFE7BE0042259
:1056580077E03D4B1A21987802E03B4B1821987867
:1056680005F01EF96FE0384B3B4A98784301191C46
:1056780018310230511840014018D318C01A40E0C0
:10568800314B354C9B785D01981C083562194001F7
:105698005B018018E318C01A02F036FD285552E065
:1056A800294B2D49987843010230C918400128E058
:1056B800254B294998784301C918181C04314430EE
:1056C8001FE0214B244A9B7859018918981C0E31F8
:1056D80040015B014018D218801A1FE01A4B1E4A7D
:1056E8009B7859011031511805E0174B1A4A9B78DD
:1056F800590189181431981C40015B014018D218CF
:10570800801A042219E0104B134A9878430199181B
:1057180002301C3140014018D318C01A02220CE094
:10572800094B0D4A9B7859018918981C0C31400186
:105738005B01D2184018801A012202F0C1FC02E075
:105748000322074B1A7038BDE00200201808002019
:10575800580000200C040020D8080020E30800208E
:1057680000040020F8B52C4A5378142B50D89278AE
:10577800022A19D85900CB189A1828499200284BA0
:1057880052585A60274B1B78002B44D0264B1A607E
:10579800264B002A03D1196808220A4302E01A6836
:1057A80008218A431A6036E0FF2A2FD1002B16D130
:1057B800C324E4000EE0301C291C0422013702F047
:1057C8007FFC04360435032FF5D1E1230C34DB00CC
:1057D8009C4220D0164D261C2D190027EBE70024EB
:1057E8000D4B5B785A1E500080185900CB18873033
:1057F800E3180A49FF3000199B008000C9180422E9
:10580800013402F05DFC032CEAD104E0042200E03C
:105818000322034B1A70F8BDE0020020EC020020BE
:1058280000040020FA030020E8030020E80200201A
:10583800E0FCFF1F30B5144C83B06578002D02D012
:10584800012D1BD111E001A90422104802F038FCF7
:105858006168E3780902019A19430D4B914202D11C
:1058680001225A600DE05D600BE0A3782A2B05D178
:10587800E11C0648042202F05FFC02E0044B03220C
:105888001A7003B030BDC046E0020020FB070000DC
:105898000004002008B50C4B5A78002A12D19A78D7
:1058A800002A0FD15A68D9781202084B0A439A4243
:1058B80008D10748002102F0BBFC02F091FD01204D
:1058C800FEF7CCFD08BDC046E0020020D20400006F
:1058D800FF070000F8B5354900230B603449354A05
:1058E8000B60354953600B601372002400256E016C
:1058F800F6B206213143002004F09EFD2F4B0C2107
:10590800E0503143002004F097FD2D4B0135E05065
:105918000434032DEBD12B4B0821DB7A0020C91A64
:10592800C9B203F031FD284B8021C9005A18002163
:1059380002C39342FBD1254B9B7E002B16D0C32478
:10594800E4000EE0301C291C0422013702F0B8FBE9
:1059580004360435032FF5D1E1230C34DB009C42D7
:1059680004D01B4D261C2D190027EBE7174BDB7EB7
:10597800002B0ED1A724E400134A164B201CD11883
:105988000919042202F09CFBC3230434DB009C4267
:10599800F2D10E4C0020631DD97F04F0EDFC627D2E
:1059A800044B002A00D001225A72F8BDE8030020F7
:1059B8000804002058000020E802002018080020F1
:1059C8000C040020D808002018040020080000203B
:1059D800E0FCFF1FC8FAFFFF10B5C34A9378022BFB
:1059E80000D14CE1032B00D152E1002B00D017E28B
:1059F8005178CBB24D2B00D1BAE04D2B29D8452B8D
:105A08007AD0452B11D8422B61D0422B06D8402B97
:105A180051D0C9B2412900D000E250E0432B5BD0FD
:105A2800C9B2442900D0F9E15CE0492B00D180E0FB
:105A3800492B06D8462B64D0C9B2472900D0EDE1DE
:105A48006CE04B2B00D182E0C9B24C2900D0E5E1D3
:105A580088E0542B00D1CDE0542B14D8512B00D121
:105A68009BE0512B07D84E2B00D186E0C9B25029B4
:105A780000D0D3E18BE0522B00D19EE0C9B253296C
:105A880000D0CBE1A3E0832B00D1DFE0832B07D844
:105A9800552B00D1BAE0C9B2562900D0BEE1C3E007
:105AA800852B00D1E0E0C9B2852900D2D4E0FF29D6
:105AB80000D0B3E1DFE08C4B8C48D97804E08A4B06
:105AC8000020D9788A4B197002F0B2FBABE1D1788B
:105AD800874B01205970F7E7834B0420D978844B12
:105AE8001971F1E7804B8249DA785B681C201B0248
:105AF8001343CB611C310DE0D1787D4B05205971E2
:105B0800E2E7794B7A49DA785B680C201B02134389
:105B1800CB600C31042202F00FFB84E1724B744C11
:105B2800DA785B68211C1B021343A3600831082044
:105B380057E0D3786E4A002B01D1D37503E00123D7
:105B4800D3756C4A53606A4B1720D97DBCE7664B06
:105B5800674CD9780320E17002F06AFBE07802F024
:105B6800D7FD60E1604B0220D978614B9970ABE7B3
:105B7800D1785F4B15205975A6E75B4B5C4CD878FC
:105B88000634E077FEF7BEFBE17F25209CE7564B05
:105B98001620D978564B997596E7554B197D0123F0
:105BA800194204D0D2781A4201D102F019FC4E4BA6
:105BB8001420D9784E4B197586E74B4B4C49DA7847
:105BC8005B6820201B0213430B622031A2E7464B7F
:105BD800474CDA785B68211C1B02134323611031A0
:105BE8001020042202F0A8FA6079A168226902F064
:105BF8008BFE18E1D378526812021A43012A00D9A1
:105C08000EE13B491A208B761A310BE0364AD378DD
:105C1800526812021A43012A00D901E134491B20B3
:105C2800CB761B31012276E72F4C6368E1781B02A3
:105C38000B430F2B00D9F3E0002004F09DFB2C4907
:105C4800E2784B1DDA7724312420EBE7D3785268C9
:105C580012021A43284B61E0234B5A68D978120282
:105C6800264B0A431A60DEE01F4B5A68D9781202A5
:105C78000A43214B5AE01C4BDA78214BD2E0D37807
:105C880051785268890012021A431E4BCA50CAE062
:105C980053782E2B00D9C1E01B4A9B009B589F4686
:105CA800114B5A68D9781202184B0A431A6002F04D
:105CB8004FFF114B5861B6E00B4B5A68D978120266
:105CC800124B0A435A6002F043FF0B4B9861AAE05B
:105CD800054B5A68D97812020C4B0A439A6002F0B5
:105CE80037FF054BD8619EE0E0020020FF07000067
:105CF800080000200004002058000020FC030020B9
:105D0800F90300201804002034E900003C090020B1
:105D1800454B5A68D9781202444B0A43DA6082E04C
:105D2800414B5A68D9781202404B0A431A617AE00B
:105D38003D4B5A68D97812023C4B0A435A6172E0CB
:105D4800394B00205968DA78090211431AE0364BBA
:105D580000205968DA78090211431CE0324B01200F
:105D68005968DA78090211430CE02F4B0120596871
:105D7800DA78090211430EE02B4B02205968DA78D1
:105D88000902114304F062FD4DE0274B02205968D7
:105D9800DA780902114304F02DFD44E0224B5A68D9
:105DA800D9781202214B0A439A613CE01E4B5A688B
:105DB800D97812021D4B0A43DA6134E01A4B5A684B
:105DC800D9781202194B0A431A622CE0164B5A680A
:105DD800D9781202154B0A435A6224E0124B5A68CA
:105DE800D9781202114B0A439A621CE00E4B5A688A
:105DF800D97812020D4B0A43DA6214E00A4B5A684A
:105E0800D9781202094B0A431A630CE0064B5A6808
:105E1800D9781202054B0A435A6304E0032200E0D2
:105E28000422034B1A7010BDE00200203C09002038
:105E38000004002010B5974B9A78022A00D1C5E0DB
:105E4800032A00D1C9E0002A00D00CE15A78D3B265
:105E5800512B00D183E0512B2CD8462B68D0462BF0
:105E680012D8422B5AD0422B06D8402B4ED0D2B251
:105E7800412A00D0F5E04FE0442B54D0D2B2864CF2
:105E8800864B442A52D84CE04C2B5CD04C2B08D87B
:105E9800492B52D0D2B24B2A52D0472A00D0E0E048
:105EA80048E04E2B55D0D2B24E2A4FD3502A00D0BC
:105EB800D7E051E0812B68D0812B13D8542B57D0D1
:105EC800542B06D8522B4DD0D2B2532A00D0C8E05A
:105ED8004BE0562B52D0D2B2562A4CD3802A00D04F
:105EE800BFE04FE0852B5DD0852B06D8832B54D09F
:105EF800D2B2694C832A53D84DE0FE2B5ED0D2B281
:105F0800FE2A5ED8F02A00D0ABE057E0644802F0E1
:105F1800FBF8614B5860A9E0604B50E05F4B5A7842
:105F280058E01B7966E05D4BDA6953E05B7961E024
:105F38005A4B33E0594B9A684CE0584BDA7D42E0B3
:105F4800564BDA7846E0554B9A7843E0534B5A7DE6
:105F580040E0524B063313E0504B9A7D3AE04F4BEA
:105F68001A7D37E04D4B1A6A34E04C4B1A6931E020
:105F78004A4B9A7E2EE0494BDA7E2BE0474B05339D
:105F8800DA7F27E0474B5A7A24E0464B5A7A043A9C
:105F980053425A411EE0434B2BE0424BDA6819E06A
:105FA800414B23E03F4A414B11694B4340495B1841
:105FB8001361404A1340384A536057E03E4B1A7801
:105FC80008E03E4B1A78531E9A4103E05A783C4B3E
:105FD8009200D258304B5A6048E05B782E2B40D85C
:105FE800384A9B009B582C4C9F46374B1B6801E056
:105FF800354B5B68636039E0334B9B68FAE7324B9B
:10600800DB68F7E7304B1B69F4E72F4B5B69F1E777
:10601800002002E0002008E0012004F089FA06E0F0
:10602800012002E00220F8E7022004F06DFA606027
:106038001CE0254B9B69DDE7234BDB69DAE7224B44
:106048001B6AD7E7204B5B6AD4E71F4B9B6AD1E7F3
:106058001D4BDB6ACEE71C4B1B6BCBE71A4B5B6B0C
:10606800C8E7032200E004220B4B1A70174B1B7879
:10607800002B0ED0084B5A68154B1A60154B002A96
:1060880003D1196808220A4302E01A6808218A43E2
:106098001A6010BDE0020020000400200800002063
:1060A800FF07000058000020FC0300206D4EC64189
:1060B80039300000FFFFFF7F79090020F903002035
:1060C80018040020F0E900003C090020FA03002031
:1060D800E8030020E802002010B50F4B987802284A
:1060E80015D85B78012B08D0002B03D00B4C022B62
:1060F8000AD105E003F096FD0CE003F09DFD09E0F0
:1061080003F0A4FD606005E00323237002E0034B65
:1061180004221A7010BDC046E002002000040020CE
:1061280030B5554B83B01A7A002A12D153494A68C0
:10613800C87812020243511C01D1514A12689100D9
:106148008A1852001A6202F003FD4B4B0122586272
:106158001A724A4B5B78042B00D98BE0494A9B00A2
:106168009B589F4602F0F4FC434B5A6A801AC217A8
:10617800801850401A6A904279D900221A7279E040
:106188003E4B987803F062FD3B4C002801D1207209
:1061980053E0236A002B69D002F0DAFC636AC01A64
:1061A800C317C0185840236A98425FD90023237246
:1061B80056E0002004F048F8304B2F4C9D7801231E
:1061C8006D002841051C1D4035D1236A002B4DD098
:1061D80002F0BEFC636AC01AC117401848403BE091
:1061E80001AC221C00207C2104F07AF9234B9D7815
:1061F80002236D00AB401D1CA3781F4C1D401AD113
:10620800236A002B32D002F0A3FC636AC01AC217BB
:106218008018504020E001AC221C00207C2104F0B2
:106228005FF9164AA3789578134C6D002B411D1C15
:1062380001231D4006D000232372134B10211A6836
:106248008A4311E0236A002B10D002F081FC636AB4
:10625800C01AC317C0185840236A984206D9257235
:10626800094B102219680A431A6003E0024B5A6866
:10627800013A5A6003B030BD58000020E002002007
:10628800E8030020ACEA0000E802002008B50F4B44
:106298009A78002A02D0022A13D106E05868DA78E0
:1062A80000021043FEF766F80EE05968DA78090232
:1062B8005878114302D1FDF7CFFF05E0FDF7A8FF9D
:1062C80002E0034B04221A7008BDC046E002002019
:1062D8000004002010B51B4B9A78012A10D0002A20
:1062E80003D0194C022A16D110E05878082802D891
:1062F800FEF7BEF807E00A280FD1134B5A600CE0EE
:10630800587804F0B1FB104B586006E05878FDF758
:10631800C7FF606001E0042323700C4B1B78002B3F
:106328000ED0094B5A680A4B1A600A4B002A03D14F
:10633800196808220A4302E01A6808218A431A6089
:1063480010BDC046E002002000040020FA0300202F
:10635800E8030020E802002010B52D4B5A78812A66
:1063680054D19A78922A51D19A79A32A4ED15A793E
:10637800B42A4BD11A79C52A48D1DB78D62B45D116
:106388008023244ADB03D362234B28331B78072B53
:106398002BD102F0DDFB041C02F0DAFB001BC31753
:1063A800C01858401D4B9842F6DD04F035FF1C4AD2
:1063B8008023DB04D3671B49C02252008B50F02294
:1063C800012192023023184806F0C4F902F0C0FBFC
:1063D800041C02F0BDFB001BC317C01858400F4B2C
:1063E8009842F6DD0120FEF739F8FDF7F5FF0020A9
:1063F80005F008FF06F036FD00220320002106F014
:106408004DFD06F065FB094B01221A7010BDC04610
:10641800E00200200010054058000020E7030000BB
:1064280004E100E000E100E00000014078090020FC
:10643800F0B5D34CD34A2178642351701370656842
:10644800E37828021843CBB287B05060212B01D1E2
:1064580000F062FF212B77D80E2B01D100F0D1FC80
:106468000E2B32D8072B00D10BE3072B13D8032BA5
:1064780000D152E1032B07D8012B00D1F3E0022B06
:1064880001D001F0B2F91BE1052B00D1F1E2052B97
:1064980000D9F2E260E10A2B01D100F070FC0A2B6E
:1064A80009D8082B01D100F062FC092B01D001F0BA
:1064B8009CF900F060FC0C2B01D100F081FC0C2B46
:1064C80001D900F09AFC00F05EFC182B01D100F015
:1064D80009FE182B19D8142B01D100F000FD142B3C
:1064E80009D80F2B01D100F090FC132B01D001F03B
:1064F8007CF900F08EFC162B01D100F0DEFD162B86
:1065080001D900F0DDFD00F026FD1C2B01D100F0C3
:106518001DFE1C2B09D81A2B01D100F002FE1A2BE4
:1065280001D900F010FE00F0E9FD1F2B01D100F0A9
:1065380071FE1F2B01D900F085FEC9B21E2901D0BA
:1065480001F053F900F006FE802B01D100F0CFFFD7
:10655800802B43D8402B01D100F0B1FF402B1ED82F
:10656800242B01D100F03AFF242B09D8222B01D18A
:1065780000F018FF232B01D001F037F900F01FFFBE
:10658800262B01D100F062FF262B01D200F04DFF2F
:10659800C9B2272901D001F028F900F078FF442B6F
:1065A80001D100F098FF442B09D8422B01D100F00B
:1065B8008CFF422B01D900F08BFF00F083FF462BA4
:1065C80001D100F08EFF462B01D200F087FFC9B23F
:1065D800472901D001F009F900F086FF872B01D186
:1065E80001F062F8872B1AD8832B01D100F0C4FF81
:1065F800832B09D8812B01D100F07DFF822B01D09C
:1066080001F0F3F800F097FF852B01D100F0ECFFC3
:106618005D4A852B01D900F0EBFF00F0CCFF8C2BF5
:1066280001D101F082F88C2B0ED8892B01D101F011
:1066380063F8892B01D201F016F8C9B28A2901D072
:1066480001F0D3F801F05BF8F22B01D101F0BDF8AD
:10665800FF2B01D101F0BCF8C9B28D2901D001F09E
:10666800C4F801F065F8A378022B24D8474A012121
:10667800D1544749424C0022CA54A178454B0020C6
:106688005A54022203F0B6FEA178062349011943A1
:10669800C9B20020404A04F003F8A17808236268D0
:1066A80049011943E3781202C9B21A43002003F0E2
:1066B800F7FF01F09DF8334B04221A7001F098F8A7
:1066C8002F4CA178022923D8304B01225A54304A42
:1066D800002353542F4A00205354022203F08AFE09
:1066E800A178062349011943C9B200202A4A03F0B8
:1066F800D7FFA1780823626849011943E378120299
:106708001A43C9B25242002003F0CAFF01F070F8E0
:106718001C4B04221A7001F06BF8A078022817D8D5
:1067280003F08AFA0222A178002003F063FEA17820
:10673800082349011943C9B2002003F0C1FFA37817
:10674800124A0121D154134A0021D15401F050F8C2
:106758000423137001F04CF8094B9878022803D9E8
:106768005B78022B00D07FE1054C6578012D2CD099
:10677800002D13D0022D4CD0032D00D06FE14AE13B
:10678800E00200200004002008000020580000203B
:10679800D008002060080020FF070000FDF7DEFF9A
:1067A800A178D24B00205D54D14B5D546268E378E8
:1067B800490112021A43C9B203F0F0FEA178002081
:1067C800002203F017FE01F013F8FDF7C7FFA178C8
:1067D800C64A00235354C64A002053540223490191
:1067E8001943C9B203F028FE6568E378A1782D0241
:1067F8001D4345194901C9B200202A1C03F0CEFEE9
:10680800A1780020002203F0F5FDBA4B5D6000F08E
:10681800EFFFC025054026D102281FD86368E2781B
:106828001B021343142B19DC5A00D3181B18B24A45
:106838009B009E58FDF792FFA178AC4B321C5D542B
:10684800AB4B00205D544901C9B203F0A7FEA17803
:106858000020002203F0CEFD00F0CAFFA54B042261
:106868001A7000F0C5FF402D00D09BE06768E37800
:106878003F021F43142F00DD8FE0002301AA01937C
:10688800536093600024021C1A41D10704D504AA5E
:1068980013550134032C02D00133032BF3D1002507
:1068A80019E004AB5E5D301CFDF758FF022371014F
:1068B8001943C9B2002003F0BFFD7A00D219961916
:1068C8008D4AB600B258AB00801AC21780185040E3
:1068D80001AAD0500135A542E3DB012C0ADD022CC8
:1068E8000ED1019B029904AC8B4205DD6278181C1D
:1068F800FDF7DCFE00242BE0081C2278191CF7E7C2
:10690800032CF7D101AB019D5F689E68BD420ADD8B
:1069180004ACB54213DD6278281C391CFDF7C6FEAD
:10692800A278281C09E004ACB74208DD2278381C9C
:10693800291CFDF7BBFEA278381C311CD8E7227849
:10694800301C291CFDF7B2FE6278301C391CCFE7D9
:106958006A4A9378191C2141C80719D5D178526819
:10696800624812020A4351008A18121962499200B9
:1069780052580021C1545E48E5B2C1546901C9B2F8
:10698800002003F00BFE0020291C002203F032FD3A
:106998000134032CDCD100F02BFF564B04221A7073
:1069A80000F026FF802D01D000F022FF6368E27816
:1069B8001B021343142B29DC0025504CA3782B41D0
:1069C800D9071ED56368E2781B0213435A00D3180F
:1069D8005B19494A9B00281C9E58FDF7BFFEA37807
:1069E80042490022CA544249ECB2CA546101C9B2B0
:1069F8000020321C03F0D2FD0020211C002203F0ED
:106A0800F9FC0135032DD8D100F0F2FE394B0422F0
:106A18001A7000F0EDFE43B2002B01DA00F0E8FE38
:106A28006368E2781B0213435A00D3181B18324AD2
:106A38009B009D58FDF792FEA1782C4A00235354E1
:106A48002B4A0020535449012A1CC9B203F0A6FD61
:106A5800A1780020002203F0CDFC00F0C9FE254BF0
:106A680003221A7000F0C4FE224B04221A7000F0B0
:106A7800BFFEFDF793FE00F0BBFEFEF7D3F900F072
:106A8800B7FE63789A1FD2B2012A0AD98C2B08D094
:106A9800C02B06D0C72B04D01A1C3432D2B2322AEB
:106AA80008D8164A9278002A0DD0124B04221A7080
:106AB80000F09EFE114A9278022A04D90D4B042256
:106AC8001A7000F095FE952B30D8932B00D38EE0EA
:106AD8000D2B1BD80C2B00D389E0052B5CD0052B84
:106AE8000ED8042B00D03DE14FE0C04660080020DE
:106AF800D008002000040020EC020020E002002062
:106B0800062B50D0072B00D02CE15EE0862B43D01B
:106B1800862B05D8822B71D0832B00D022E134E05C
:106B28008C2B72D08D2B00D01CE17EE0C32B00D1C2
:106B3800B7E0C32B14D8B52B00D184E0B52B05D80A
:106B48006733DBB2012B00D90CE175E0C12B00D112
:106B58008AE0C12B00D998E0C02B00D002E134E0D4
:106B6800D22B00D1BBE0D22B05D8C72B1BD0CC2B06
:106B780000D0F7E0A2E0D62B00D1D2E0FE2B00D166
:106B8800DFE0D42B00D0EDE0BAE0DE4B06219878A8
:106B980003F0E2FC00F02CFEDA4B0C21987803F0AD
:106BA800DBFC00F025FED74BD7499B785A01083209
:106BB8008A18981C541C5B014001C9180019401A16
:106BC800517801F035FB00F013FECE4BCE499B788F
:106BD8005A0108328A18981C941C5B014001C91894
:106BE8000019401A917801F023FB00F001FEC54B13
:106BF8001421987803F0B0FC00F0FAFDC14B042191
:106C0800987803F0A9FC00F0F3FDBE4B9B78002BAD
:106C180006D14B20BD49012201F08EFA00F0E8FDB3
:106C2800BB4B04221A7000F0E3FDB64B1A2198788A
:106C380003F092FC00F0DCFDB24B1821987803F0C9
:106C48008BFC00F0D5FDAF4BAF4A98784301191C77
:106C58001831023051184001D3184018C01A0422C4
:106C680001F06AFA00F0C4FDA64B9A78A64B5101D0
:106C7800901C08315C184001520100199A18801ABA
:106C8800C95C01F0D5FA00F0B3FD9E4B9E49987897
:106C9800042243010230C918400101F04DFA00F006
:106CA800A7FD984B9849987804224301C918181CE5
:106CB8000431443001F040FA00F09AFD914B924AB9
:106CC8009B7859018918981C0E315B014001D21834
:106CD8004018801A022201F02FFA00F089FD894B32
:106CE800894A9B785901981C103151185B01400161
:106CF800D2184018801A042201F01EFA00F078FD1C
:106D0800804B814A9B7859018918981C14315B0182
:106D18004001D2184018801A042201F00DFA00F040
:106D280067FD784B784A98784301991802301C31EE
:106D38004001D3184018C01A022201F0FDF900F0F2
:106D480057FD704B704A9B7859018918981C0C3173
:106D58005B014001D2184018801A012201F0ECF9B9
:106D680000F046FD6A4B03221A7000F041FDFEF761
:106D78008FFB00F03DFDFEF72FFE00F039FDFFF719
:106D880059F800F035FD5F4B9A78022A13D15978EB
:106D980037290BD8A72252005E4B8818890080003B
:106DA8005918042201F0C8F900F022FD584B0322BB
:106DB8001A7000F01DFD564B04221A7000F018FDE1
:106DC800A378022B14D14F4B597837290BD8A72316
:106DD8005B00C8184F4B890080005918042201F045
:106DE8006FF900F005FD4A4B03221A7000F000FD10
:106DF800474B04221A7000F0FBFCFFF76DF900F016
:106E0800F7FCFFF743FA00F0F3FCFFF763FA00F032
:106E1800EFFC3C4B5B78092B50D83F4A9B009B58B2
:106E28003E4C9F46374BDA785B681B021343226857
:106E38009B1842E0334BDA785B681B0213432268E5
:106E4800D31A3AE02F4BDA785B681B0213432268A7
:106E5800534332E02B4B20685968DA780902114312
:106E680006F07AF9206029E0264B20685968DA781C
:106E78000902114306F0C6F921601FE0214BDA78B8
:106E88005B681B0213432268134016E01D4BDA7837
:106E98005B681B02134322680EE01A4BDA785B68C2
:106EA8001B0213432268534007E02368DB4304E0D6
:106EB800144BDA785B681B0213432360174B1A687C
:106EC800174B002A05D1196808220A431A6000F0F6
:106ED8008FFC1A6808218A431A6000F089FC0F4B5E
:106EE8001A68824205DD0E4B04211A680A43032101
:106EF8001EE00B4B824215D11A6806218A430121F4
:106F08000A4316E0E0020020D8080020E308002029
:106F18000004002018040020C0EA0000E803002054
:106F2800E80200201A6804218A4302210A43012149
:106F38008A431A60B94B1A68B94B002A05D11968F7
:106F480008220A431A6000F053FC1A6808218A4391
:106F58001A6000F04DFCB34B5B780C2B01D900F0A4
:106F680047FCB14A9B009A58AD4B97461B681807D7
:106F780001D400F03DFCAB4B5A68D9781202AB4BF8
:106F88000A435A6000F034FC1B68190701D500F069
:106F98002FFCA44B5A68D9781202A44B0A435A60B2
:106FA80000F026FC1B68DA0701D400F021FC9D4B99
:106FB8005A68D97812029D4B0A435A6000F018FCAF
:106FC8001B68D80701D500F013FC964B5A68D9788E
:106FD8001202964B0A435A6000F00AFC1B685907D4
:106FE80001D400F005FC8F4B5A68D97812028F4BF8
:106FF8000A435A6000F0FCFB1A6805231A4200D1C4
:10700800F6E3884B5A68D9781202884B0A435A60CB
:10701800EEE31B689A0700D4EAE3824B5A68D978F2
:107028001202824B0A435A60E2E31B68980700D1B8
:10703800DEE37C4B5A68D97812027C4B0A435A60CB
:10704800D6E31B68D90600D4D2E3764B5A68D978C0
:107058001202764B0A435A60CAE31B689A0600D4A8
:10706800C6E3704B5A68D9781202704B0A435A60CB
:10707800BEE31B68580600D4BAE36A4B5A68D9784D
:1070880012026A4B0A435A60B2E31B68190600D41D
:10709800AEE3644B5A68D9781202644B0A435A60CB
:1070A800A6E31B68DA0500D4A2E35E4B5A68D978D8
:1070B80012025E4B0A435A609AE35C4B586097E3AE
:1070C8005A4BDA6A072A00D992E3910058680132CC
:1070D800DA62C918534A0863D178526812020A431F
:1070E8005A6085E3514BDA6A002A00D180E3013AFD
:1070F800DA629200D218126B5A6079E3494B5B78D6
:107108002E2B03D84A4A0121D15471E3FF2B04D115
:10711800464B012250331A706AE3464B03221A7019
:1071280066E363782E2B03D8414A0021D1545FE3EC
:10713800FF2B04D13D4B002250331A7058E33D4BCE
:1071480003221A7054E3FEF7EBFF51E3374B00229A
:107158005A724DE333484378142B57D88278022A61
:107168001DD8C57859004068C918334C89180002E1
:107178002843890008513148807E002800D137E330
:10718800002B00D134E3013B58008732FF32C3188B
:10719800D01880006118042200F0CEFF28E3FF2AEF
:1071A80030D1002B17D1C324E4000FE0301C291C78
:1071B8000422013700F0C0FF04360435032FF5D14F
:1071C800E1230C34DB009C4200D111E31C4D261C4A
:1071D8002D190027EAE70024124B5B785A1E50004D
:1071E80080185900CB188730E3181349FF3000196D
:1071F8009B008000C9180422013400F09DFF032C75
:10720800EAD1F5E20B4B04221A70F1E2094B032292
:107218001A70EDE2FEF7A6FAEAE2C046E80300209B
:10722800E8020020E0020020E8EA00005800002000
:107238009409002000040020EC020020080000202F
:10724800E0FCFF1FBE4D6E78142E61D8AC7863B297
:10725800002B2FDA0024BA4B9A782241D0070DD59B
:107268005D78610102231943C9B2002003F0E4F8F4
:107278006B005D192D19B34BAD00E850B24B9B7EE6
:10728800002B13D0AE4B5B78002B0FD05A1E50004A
:1072980080185900CB188730FF30E318A949001926
:1072A8009B008000C918042200F046FF0134032C1B
:1072B800D1D19DE2022C27D8022361011943C9B21A
:1072C800002003F0B9F873009E199E4A3419A400EF
:1072D8009D4BA0509B7E002B00D189E26B78002B40
:1072E80000D185E2AC78C32149006018591E4D00D1
:1072F800691840185900C9180919890051188000DF
:10730800042200F019FF73E2904B04221A706FE216
:107318008E4B03221A706BE263780A2B33D88C4A9F
:107328009B009A588B4C8C4B97461A682368D31845
:1073380002E022681B68D31A236024E01B682268D5
:107348005343F9E72068196805F006FF20601AE042
:107358002068196805F056FF216014E01A68236850
:107368001340E9E71A6823681343E5E71A682368B6
:107378005340E1E71A68D24304E0226802E0196842
:10738800226821601A60734B1A68744B002A04D172
:10739800196808220A431A602AE21A6808218A43EF
:1073A8001A6025E26B4B1A78E2701A68FF231B06F5
:1073B800120A2B4013436360FDF7F0F918E2654A9F
:1073C8005F4B11785868D9701168FF221206090AB4
:1073D80002400A435A60FEF7FFFA09E26378052B78
:1073E80000D905E25E4A9B009A585C4B974619689B
:1073F8000F220A401A60FBE11A6810218A431A60BA
:10740800F6E11A6820218A431A60F1E11A684021DE
:107418008A431A60ECE11A6880218A431A60E7E11E
:107428001968504A0A401A60E2E1454B5A782E2AF8
:1074380008D84D4992005218D9785B681B020B4353
:107448005365D5E1414B03221A70D1E1474B414ABC
:107458001969D869116059693F4A1160424A9969A6
:1074680051603E490860196A1172596A5162996AF5
:107478002C3311621B783E4AD25C002A02D03C4A67
:107488000121D154394B002230331A70B0E12C4B12
:107498009A78022A0FD85B78142B08D85900CB1891
:1074A8009A182C4B27491B6892005350A0E1274B90
:1074B80003221A709CE1254B04221A7098E101F00E
:1074C80061FB95E101F060FB92E101F05FFB8FE168
:1074D80001F05EFB8CE101F05DFB89E101F05CFBF2
:1074E80086E101F05BFB83E101F05AFB80E11E4B72
:1074F80000225A727CE16178CBB2002B03D0C9B26A
:10750800012914D103E0184B01225A7270E10C4B87
:107518005A68D8781202174B02439A4203D8124B82
:1075280059725A6064E1094B04221A7060E1074BF2
:1075380003221A705CE10C4B02225A7258E1C046D1
:10754800E0020020EC0200200800002000040020D7
:107558001CEB0000E803002008040020E8020020DB
:1075680048EB0000FFFEFFFF5800002058010020F4
:1075780094090020FF0700009E4900230A1C50328E
:1075880013709D4A543130321370002201235B423C
:107598009A4808C10023835401322F2AF6D1954A0C
:1075A80053725360D3621372954A1360954A1360FD
:1075B800954A13601CE1137D9A0711D4934A5368C6
:1075C800D1781B02924A0B43934205D8894A042179
:1075D8005172894A53630BE18E4B04221A7007E1FA
:1075E8008C4B08221A7003E1824B00225A72FFE08A
:1075F800894901230B709178884C21708349486828
:10760800CD78000282492843884202D8167D1E4060
:1076180002D0834BDA1D1DE004AD291C00F022FFC7
:107628002B7863706B78A370AB78E370AB792371B8
:107638006B7963712B79A371EB782672E37101344E
:10764800E21D764B2078197A013441181972944258
:10765800F7D1CDE00021197001339342FAD16F4B75
:107668001A781A72C4E0694B5A78002A11D16A4B09
:1076780001221A706B4B694A9B7813706A4B196820
:10768800531C093208780131187001339342F9D13B
:10769800AEE0012A00D0ABE05E4B04215620D97140
:1076A80098715A711971A3E06378012B12D0002BDD
:1076B80005D0022B18D0032B00D099E018E04D4BD1
:1076C800597A1B7AD17193714B4B5B6B190A5171C3
:1076D80013718DE0474B597AD171197A5B689171B2
:1076E800190A5171137183E0454B1B6853607FE0A1
:1076F800444B1B6853607BE0FEF7CCF878E0434BC3
:107708005A784A4B002A00D001221A703F4BDA7887
:10771800474B1A70374B28331A78464B1A70464A2B
:1077280000231370454A137062E0FEF783F85FE0A8
:10773800364B5A78012A07D0002A0ED0022A33D0B5
:10774800344B032A3ED13AE058682B4ADC780002D1
:10775800916B20433C32002323E0274A916B09298F
:1077680009D8DC785B6888001B0280182343013144
:10777800C36391633CE0274B09221A7038E010CAB2
:1077880084420DD11C4A98003C320139121802E09B
:107798005068013301C28B42FAD3174B996327E033
:1077A80001338B42EBD323E0134B00229A631A1C5C
:1077B8003C326433002102C29A42FBD118E00A220B
:1077C8005A6015E003221A7012E0FEF7C5FD0FE0BB
:1077D8000E4B5A68D9781202194B0A439A4207D1BC
:1077E800054B012264331A7002E00A4B02221A7018
:1077F80007B0F0BD5800002058010020940900206F
:10780800E803002008040020E8020020E00200202D
:10781800FF07000000040020EC030020F003002014
:10782800F103002008000020040000203808002090
:10783800640800208409002063080020C309002090
:10784800D2040000F0B51F4D83B00C1C6B46291CF8
:10785800C0C9C0C31C4B42781A7082785A70C2786B
:107868009A7002799A7142795A7182791A71C27939
:10787800DA70164B00221A70FEF7DAFD144B1B78EB
:10788800002B0ED1237063702B78A3706B78E37094
:10789800EB792371AB7963716B79A3712B79E37100
:1078A80009E0012B07D100230A4AD2185278E25482
:1078B8000133082BF8D1034B6A4603B011CA11C330
:1078C800F0BDC04600040020E0020020FA030020BA
:1078D800EC030020F0030020F0B585B0104C02AD99
:1078E80001922E1C271C8C4606CF06C60D4E6146FB
:1078F8006A467170111D0A787168B270FF2212060B
:10790800F3700A401B0A1A43074B7260002230705A
:107918001A70FEF78DFD05B0606806CD06C4F0BD8F
:1079280000040020E0020020FA030020F0B5A84B74
:10793800A1B01B78002B0DD0A64B1B78062B09D0C5
:107948000A2B07D00F2B05D01F2B03D0A24B0022E8
:1079580028331A70A04B28331B785A1ED2B2012A3A
:1079680037D89E4AD168012B01D0082200E00722AF
:1079780013AB1A709A4A5960653212785A7000220D
:107988009A70984A1178002911D1944A92681A720B
:10799800954A1078587250789872D079D872907940
:1079A8001873507958731279D9739A730AE00129B8
:1079B80008D100238D49013313AA595CD218D1711B
:1079C800082BF7D113A800F0F3FE002800D0B0E090
:1079D80060E3032B22D1834B1B78002B11D17F4D01
:1079E800814CA8786E7823788619F6186378F6188B
:1079F800E379F618A379F6186379F6182379F61857
:107A080019E0012B00D094E0784C251C093520782A
:107A1800013400F04DFEAC42F9D18AE0042B26D1A6
:107A2800714C00236D4D0122637022706360A87849
:107A38006E788619013600F03BFE687800F038FE53
:107A4800207800F035FE607800F032FEE07900F032
:107A58002FFEA07900F02CFE607900F029FEF6B226
:107A6800207900F025FE301C00F022FE61E0072B93
:107A780040D15C4B1B78002B2AD1584B9E785F78FD
:107A8800594B99791D785C78D87904915A791021E5
:107A980003921B796A469C461AAB8A5C1E70BE1913
:107AA8009D70AD19DC705A7164190C226946515CDD
:107AB80018710019049C5F70039F62469971211820
:107AC800DA717A1862441A726D461AAC71350AE096
:107AD800012BF9D10023454A995C1AAAD1540133E4
:107AE800092BF8D1F0E72078013404F0C3F8AC4250
:107AF800F9D11EE0082B1CD13B4A0023012053700A
:107B080010705360354A1AAC917852786D4662709D
:107B18008A1801322170A070E37023716371A37118
:107B2800E371227271352078013404F0A3F8AC4275
:107B3800F9D12F4B1B78002B00D183E02D4B1B78FC
:107B4800032B21D0032B02D8002B76D002E0072B81
:107B580073D153E0214A0FA8936827490372802301
:107B68005B42437276235B42097883720023C372B7
:107B78000373437343708370D36881730721017063
:107B8800436000F015FE58E0144C1B4DA078667851
:107B98002B7886190A36F61800F08AFD607800F00E
:107BA80087FD802000F084FD8A2000F081FD002000
:107BB80000F07EFD002000F07BFD002000F078FD45
:107BC800F6B2287800F074FD301C00F071FD34E046
:107BD800F9030020E00200205800002008000020DF
:107BE80058010020EC03002000040020F0030020CE
:107BF800C30900208409002063080020894B17ACC2
:107C080098785978884B61701A7880235B42A37002
:107C1800411876235B420A31E370E271002352185F
:107C28006D46207023716371A371227265352078C7
:107C3800013404F01FF8AC42F9D17B4A00231370D9
:107C48007A4A13707A4A002328321370794A1370DB
:107C5800794B64331B78002B02D00120FCF7FEFB24
:107C680013AC201C00F0EAFD051C002826D0227A5F
:107C7800724B1A70627A5A70A27A9A70E27A9A7182
:107C8800227B5A71627B1A71A27BDA706A4B627826
:107C980065331A7000F05CFF694B00221860694B6D
:107CA8001A702378624C072B02D12834012301E093
:107CB8002834022323705E4B5B7A90E068467F305D
:107CC80000F00EFD00285CD000F028FD002802D04E
:107CD800594B66331D70584B6C461A1C6632117826
:107CE8007F34C818247801316830C9B20470117023
:107CF800092900D0B1E0002111704A4902321078F8
:107D08004978884200D0A8E0703300211078013209
:107D18000918C9B29A42F9D1474D454C2B1C70330A
:107D28001B788B422AD12A1C6932444B12781A706C
:107D38002A1C6A3212785A702A1C6B3212789A708E
:107D48002A1C6C3212789A712A1C6D3212785A7178
:107D58002A1C6E3212781A712A1C6F321278663514
:107D6800DA7000F0F5FE384B384A186000231370BB
:107D7800221C2832032111702B702FE02834042391
:107D880039E01DAC201C03F04FFA002835D01FAB9A
:107D98000022217801345218D2B29C42F9D11DAB8D
:107DA800197A234C914224D15978244A1170997830
:107DB8005170D9789170197991715979517199796E
:107DC8001171DB79D37000F0C3FE1F4B00221860DD
:107DD8001E4B1A70231C283307221A70637A5A1E06
:107DE800D2B2012A01D9052B1AD10022184B1A70D8
:107DF80033E02834082323702FE00D4C637A013BCD
:107E0800DBB2012B29D86368124A934224D85A1C42
:107E18006260181C094900F025FB283409232370E7
:107E28000122E3E70800002063080020C3090020BE
:107E380058000020EC03002058010020E002002038
:107E480074090020280800207C09002083090020EC
:107E5800FA030020FF07000060728F4A537A042B50
:107E680005D18E4D29784BB2002B00DBE6E08A4B1A
:107E780028331B78042B07D0002B05D0082B03D000
:107E8800062B01D0FEF7D4FA834C231C28331B7829
:107E9800092B00D0AEE000F05BFE6269804B801ACF
:107EA800C11740181B684840984209D97D4B1A7879
:107EB800012A01D102221A7000F04AFE764B58615D
:107EC80000F046FE744A764B92695B68801AC217C6
:107ED80080185040984209D9724B5A78012A01D12A
:107EE80002225A7000F034FE6B4B986100F030FEAD
:107EF800694A6B4BD2699B68801AC41700196040A5
:107F0800984209D9674B9A78012A01D102229A70BE
:107F180000F01EFE604BD8615F48031C50331B788D
:107F2800002B67D0604A131C30331B78002B61D1BB
:107F38005E4B476A1B680A970D93D7695C4B059798
:107F48001B68176A0C9308975A4B576A016A1B6893
:107F58000497976A0B930991166955699469039771
:107F68002C321278017A0792002243680692543024
:107F780001914C4FB95CBC46022917D101684F1CCE
:107F880011D0D7B2019C07970F1C09990894039147
:107F98000A9C0B9904940591012400210C9D0D9EC7
:107FA8000694019104E000216746B9541F1C231C64
:107FB800013204302F2A02D01C1C3B1CD9E73A4A54
:107FC80035480199089C9361059B017214626946C2
:107FD8001C24D361615C131C2C3347601970049F07
:107FE80003986B461824E35C1661556157629062EA
:107FF80030321370284B1A1C28321078092804D103
:108008005A7A022A01D105225A72274A916B00290D
:1080180040D009283ED1204B587A01283AD15868D7
:108028003C32002307E010CAA04203D11A4B0522B4
:108038005A722FE001338B42F5D32BE0131C2833FF
:108048001B78042B26D0002B24D0082B22D0062BFB
:1080580020D0194E144C71706B68E9781B020B43E1
:108068007360606B154B984210D8291C00F016F904
:10807800606B291C00F04AF9002804D0636B0133B7
:108088006363652300E00723337003E0072333703D
:108098000023537221B0F0BD58000020E0020020F8
:1080A8003C0900209409002058010020E803002022
:1080B80008040020E802002000040020FF07000058
:1080C80070B5041C0E1C151C032100220220FCF7AD
:1080D80079FA210AC9B200220220FCF773FAE1B248
:1080E80002200022FCF76EFA002409E06A1EA21A98
:1080F80053425A4102200021FCF764FA30550134FA
:10810800AC42F3D370BDC04610B5041C0321002255
:108118000220FCF757FA210AC9B200220220FCF714
:1081280051FAE1B200220220FCF74CFA00210122A8
:108138000220FCF747FA10BDF0B583B0041C01918A
:10814800161C022006210122FCF73CFA0521002218
:108158000220FCF737FA022000210122FCF732FA4C
:108168008307F3D5022100220220FCF72BFA210A0B
:10817800C9B200220220FCF725FAE1B2022000224F
:10818800FCF720FA002542E0019B01343F27595DA6
:10819800274001D1012203E0721EAA1A53425A4114
:1081A800D2B20220FCF70EFA002F2FD1731E9D4287
:1081B8002CD2052100220220FCF704FA022000211B
:1081C8000122FCF7FFF9C307F3D40220062101229C
:1081D800FCF7F8F9052100220220FCF7F3F9022048
:1081E80000210122FCF7EEF98307F3D502210022D2
:1081F8000220FCF7E7F9210AC9B200220220FCF7A5
:10820800E1F9E1B202200022FCF7DCF90135B542C0
:10821800BAD3052100220220FCF7D4F9022000215C
:108228000122FCF7CFF9C307F3D403B0F0BDC04671
:1082380038B5041C0D1C022006210122FCF7C2F9E6
:10824800052100220220FCF7BDF9022000210122AD
:10825800FCF7B8F98307F3D5022100220220FCF7C6
:10826800B1F9210AC9B200220220FCF7ABF9E1B248
:1082780000220220FCF7A6F90220291C0122FCF7A3
:10828800A1F9052100220220FCF79CF90220002117
:108298000122FCF797F9C307F3D438BDF8B5C40039
:1082A8008023241A1B010D1CE01809780133E618F5
:1082B800FFF7BEFF104B6978301CE718FFF7B8FFCF
:1082C8000E4BA978381CE618FFF7B2FF0C4BE9787B
:1082D800301CE718FFF7ACFF0A4B2979E618381C61
:1082E800FFF7A6FF6979301CFFF7A2FF064BA979B3
:1082F800E018FFF79DFFF8BD020800000308000022
:10830800040800000508000006080000F0B50C1C71
:10831800C50080212D1A090187B06D18002203219C
:108328000220FCF74FF9290AC9B200220220FCF703
:1083380049F9E9B200220220FCF744F900210022A1
:108348000220FCF73FF900210022051C0220FCF75F
:1083580039F900210022061C0220FCF733F900211C
:108368000022071C0220FCF72DF9002101900022B1
:108378000220FCF727F90021029000220220FCF7D6
:1083880021F90021039001220220FCF71BF9237830
:10839800AB4221D16378B3421ED1A378BB421BD133
:1083A80008216A468A5C04AB1A7169460C22515C42
:1083B800987159715B68019A1B0220791343E2781E
:1083C80000021043627912041043A2791206104386
:1083D800181A4342584100E0002007B0F0BDC046DB
:1083E80038B580242401022006210122FCF7EAF88E
:1083F800052100220220FCF7E5F8022000210122D5
:10840800FCF7E0F88307F3D5022100220220FCF7ED
:10841800D9F8210AC9B200220220FCF7D3F8E1B248
:1084280002200022FCF7CEF800252A1C3F3A5342CE
:108438005A41022000210135FCF7C4F8402DF4D13F
:10844800052100220220FCF7BDF8022000210122AC
:10845800FCF7B8F8C307F3D480234034DB019C420F
:10846800C1D138BD38B5C50080231B012D1AED18C0
:108478000C1C002203210220FCF7A4F8290AC9B227
:1084880000220220FCF79EF8E9B200220220FCF745
:1084980099F8002100220220FCF794F800212070AE
:1084A80000220220FCF78EF80021607000220220D2
:1084B800FCF788F80021A07000220220FCF782F85F
:1084C8000021E07000220220FCF77CF800212071D6
:1084D80000220220FCF776F80021607101220220B8
:1084E800FCF770F8A07138BD30B583B005210022C3
:1084F8000220FCF767F8022000210122FCF762F84D
:1085080071231842F2D100F023FB0024051C06E079
:108518003448FFF7F9FD041CAA3C63425C4100F0B3
:1085280017FB401BC317C01858402F4B984202DC5A
:10853800002CEDD001E0002C03D02C4B1B78002B35
:108548003ED028480021FFF773FEFFF749FF0020BF
:1085580027494022FFF7F0FD802440256400201CB5
:108568002449B422FFF7E8FD281C23492022FFF7FD
:10857800E3FDC723B4349B0020359C42EFD1002390
:10858800C3240193E40001AD201C291C0422FFF739
:10859800D3FDFF230434DB009C42F4D10023A7243D
:1085A8000193E400201C291C0422FFF7C5FDC32306
:1085B8000434DB009C42F5D10A48AA21FFF738FEB3
:1085C80000200B494022FFF77BFD40240B49201C6B
:1085D800091920222034FFF773FDA02CF6D103B02F
:1085E80030BDC046FF070000CF0700007408002018
:1085F8000800002060EB000090EB000098080020C5
:1086080030B5254B5A6A59691140C8071DD5234A08
:10861800526B900601D59B6A17E0214B1A6801320C
:10862800202A00D100221E4B5868824206D01A4CDC
:108638001868A46AC018E4B204721A60194B0522BB
:108648001A60174B9A6A184B1A608A071BD5164B83
:108658001A68002A17D1124BDC6A186B84420FD0B3
:108668000E482024C462186BC418343425780A4C88
:108678000130E5621863186B202804D11A6302E000
:108688000A4A054B5A618B0505D5044B20221A630B
:10869800014B01225A6130BD00100840001005400E
:1086A800CC010020C8090020C409002001020000F4
:1086B80000B5094BDA6A0132202A00D10022064BA4
:1086C800196B8A4207D0D96AC91834310870DA623E
:1086D800024B03225A6100BDCC0100200010084063
:1086E80000B50A4B59681A68914201D100200BE085
:1086F8005A68D118097A013201705A605A68202ADA
:1087080001D100225A60012000BDC046CC010020E2
:10871800014B98627047C046CC01002000B5054B5C
:108728001A78002A01D1002002E000221A700120E4
:1087380000BDC046CC09002030B5194B00245C6050
:1087480083B01C60051C1C6301201C6004210122ED
:1087580004F02EF901220120032104F029F9012057
:10876800032104F061F90F4B0F49AD0020221A6371
:1087780069580E4B01225A609A6019638C210901CD
:1087880019615021D96001A85A610F23037003238E
:1087980043708470C27004F0DFF903B030BDC04686
:1087A800CC01002000100540B0EB0000001008408C
:1087B80000B5C27A837A12061B041A43037A1A4355
:1087C800437A1B021A43174B9A60C17B827B0906C6
:1087D80012040A43017B0A43417B09020A43DA6017
:1087E80041784268002906D00F490A40E02109066D
:1087F8001143596106E00D490A409104A02212066E
:108808000A435A6101780F220A4009490A439A61CA
:10881800084A044B5A60084B1B6FDA02FBD401204C
:1088280000BDC046FC000E40FFFF0300FF0700002C
:108838008080000081DF000000000E4010B52E4A45
:108848008023116F5B00194253D0D3662B4B9A6C6F
:10885800910701D502220DE09A6C510701D5032238
:1088680008E09A6C110701D5042203E09B6CDA0634
:108878003FD505229B231B02204913434B621E4B05
:108888001B6F9902FBD41D4BD96A090EC173D96AB3
:10889800090C8173D96A090A4173D96A0173996A03
:1088A800090EC172996A090C8172996A090A4172A2
:1088B800996A01725C6B8021C905214005D00121AC
:1088C8004170596B0E4B0B4003E041705B6BDB0052
:1088D8005B0D4360094B0F219C6B21400170002107
:1088E8008170842149019963064901200A435A622B
:1088F80000E0002010BDC04600000E40FC000E4005
:10890800FFFF030080900000F8B5061C0D1C002036
:108918001321141C012204F04BF814210122002019
:1089280004F046F8324B02221A6504221A66012224
:108938001A6608221A662F492F4A013EF6B21165B7
:10894800072E14D82D4BB600F3589F462C4A0CE03E
:108958002C4A0AE02C4A08E02C4A06E02C4A04E09B
:108968002C4A02E02C4A00E02C4A214B00E0264A1F
:108978005A660023204A00211163516328490133B4
:10898800194351621A4A126F9102FBD4202BF1D17C
:10899800244A802694462A40174B234892043606D8
:1089A8003243186321495A6384225201204F9A6343
:1089B8005962C0213D4009060D4318635D631D4D92
:1089C8009A635D62002C0FD065462540AD042E43A6
:1089D8003C40194D214318635E639A635D621863D6
:1089E80059639A63154A5A62014B12221A66F8BDF6
:1089F80000000E400000750CFC000E40D4EB000097
:108A080001706B0003707A0007707A000F707A00AB
:108A18000F707F001F707F004F707F009F707F0076
:108A2800809F0000FF070000FFFFFFDF829F00001C
:108A3800FFFF0300839F0000849F0000859F0000C4
:108A4800F0B5384B1A6801321A60374B1A68013290
:108A58001A60364B1A68002A02D01A68013A1A605E
:108A6800334B1A68002A08D01A68013A1A601B6842
:108A7800002B02D12F4B01221A702F4B2F4A9B6AD1
:108A88002F499BB2136010680B68984218DD16686E
:108A98000B682C4CF61A2C482C4BA64206DC1C689A
:108AA8005D68166809680268701A2EE01C685D68BF
:108AB80080270E687F0211680268F019401A11E0D9
:108AC80010680B68984227DA0E6813681D4CF61A6E
:108AD8001D481E4BA6420FDC1C685D680E681168B5
:108AE8000268701A5043261C011CC2172F1C761AE4
:108AF8009741311C3A1C0DE01C685D688027166898
:108B08007F0209680268F019401A5043011CC21715
:108B180009196A4119605A60084B1A68084B1A60AB
:108B2800F0BDC04620020020FC030020C40900203C
:108B3800C8090020CC09002000000C403C08002097
:108B480038090020FF7F00007808002080080020F6
:108B5800014B18687047C0462002002008B5012064
:108B680004F060F9054804F06FF9032000210122A0
:108B780004F094F904F06EF908BDC046409C00006A
:108B88007047C0467047C0467047C0467047C046E9
:108B98007047C0467047C0467047C0467047C046D9
:108BA8007047C04610B5FFF7D3FF084C2368C01ABA
:108BB800FA235B00984207D9054B8022596B4A403B
:108BC8009A62FFF7C5FF206010BDC046D00900209B
:108BD80000100540024BC000C018C0797047C0465D
:108BE80024020020024BC000C01840797047C046DC
:108BF80024020020024BC000C01880797047C0468C
:108C080024020020024BC000C018007A7047C046FA
:108C180024020020024BC000C018407A7047C046AA
:108C280024020020024BC000C018C07A7047C0461A
:108C380024020020024BC000C018807A7047C0464A
:108C480024020020024BC000C018007B7047C046B9
:108C580024020020024BC000C018407B7047C04669
:108C680024020020024BC000C018807B7047C04619
:108C78002402002083001818014BC018007C70479C
:108C88002402002083001818014BC018407C70474C
:108C98002402002083001818014BC018807C7047FC
:108CA8002402002083001818014BC018C07C7047AC
:108CB8002402002083001818014BC018007D70475B
:108CC8002402002043001818014BC018007E70478A
:108CD8002402002043001818024BC018407E40B2FE
:108CE8007047C0462402002043001818014BC018E2
:108CF800807E704724020020C300181A014BC01858
:108D0800007F704724020020C300181A014BC018C6
:108D1800407F704724020020C300181A014BC01876
:108D2800807F704724020020C300181A014BC01826
:108D3800C07F704724020020C300181A024BC018D5
:108D48001C3000797047C04624020020C300181A5E
:108D5800024BC0181C3040797047C04624020020DE
:108D6800C300181A024BC0181C3080797047C046DF
:108D78002402002000B5062812D80A4B8000C258E9
:108D8800094B97465B6A0AE09B6A08E0DB6A06E0E3
:108D98001B6B04E05B6B02E09B6B00E0DB7B0B6012
:108DA80000BDC046F4EB00002402002070B5010CA1
:108DB800051CC9B200220120FBF704FC0A4C06027C
:108DC800290A6662C9B200220120FBF7FBFB0643B1
:108DD80036026662E9B201220120FBF7F3FB064383
:108DE8003609666270BDC0462402002010B5204ACC
:108DF80043001B189B18183301229A563F2A01DD9D
:108E08003F225A701A4B42001218D2181832012306
:108E1800D3563F3302DA3F235B425370144A430070
:108E28001B189B1818339A781F2A01D91F229A7089
:108E38000F4BC0221203DA6342001218D218127EB6
:108E4800012A02D1D0221203DA63094C43001B180D
:108E58001B191833E26B987810435A787F23134014
:108E68001B021843E063FFF7A1FFE36B636310BDC8
:108E78002402002008B54300034A1B189B18997662
:108E8800FFF7B4FF08BDC0462402002008B5430020
:108E9800034A1B189B185976FFF7A8FF08BDC04660
:108EA8002402002008B54300034A1B189B181976B2
:108EB800FFF79CFF08BDC0462402002010B5264AD3
:108EC80083001B189B181A7C012A01D901221A74E5
:108ED800214A83001B189B1810335A78032A01D99A
:108EE80003225A701C4A83001B189B1810339A7867
:108EF8000F2A01D90F229A70174A83001B189B1852
:108F08001033DA78032A01D90322DA70124A83006F
:108F18001B189B1810331A790F2A01D90F221A71BE
:108F28000D4C8100081801190B1C10331879097CA5
:108F3800A02212031043C903084359784903084380
:108F48009978DB78090208435B011843E063FFF76F
:108F58002DFFE36B236310BD2402002008B58300B6
:108F6800034A1B189B181975FFF7A8FF08BDC046D0
:108F78002402002008B58300034A1B189B18D974E3
:108F8800FFF79CFF08BDC0462402002008B58300F7
:108F9800034A1B189B189974FFF790FF08BDC04639
:108FA8002402002008B58300034A1B189B18597433
:108FB800FFF784FF08BDC0462402002008B58300DF
:108FC800034A1B189B181974FFF778FF08BDC046A1
:108FD8002402002010B5314BC200D3181A7A032A94
:108FE80001D903221A722D4BC200D31808339A787C
:108FF800032A01D903229A70284BC200D3180833D8
:109008001A790F2A01D90F221A71244BC200D318DA
:1090180008335A79072A01D907225A711F4BC2000F
:10902800D31808339A790F2A01D90F229A711B4B4A
:10903800C400E418227A8021D20309031143D963BA
:10904800627A002A03D08022D2011143D963134BDC
:10905800C200D218D27A002A04D0D96B8022920199
:109068000A43DA630D4BC000C018083081780279D2
:10907800C902D2010A43D96B0A43417909010A435B
:10908800DA63C179002902D181790A43DA63034C92
:10909800E06BFFF78BFEE36BE36210BD2402002058
:1090A80008B5002806D1044BDA7B002A02D0D87311
:1090B800FFF790FF08BDC0462402002008B500282D
:1090C80007D1044BDA7B002A03D10122DA73FFF7B8
:1090D80081FF08BD2402002008B5034BC200D31845
:1090E8009973FFF777FF08BD2402002008B5034BEA
:1090F800C200D3185973FFF76DFF08BD2402002082
:1091080008B5034BC200D3181973FFF763FF08BDF6
:109118002402002008B5034BC200D3189972FFF748
:1091280059FF08BD2402002008B5034BC200D3181C
:10913800D972FFF74FFF08BD2402002008B5034B82
:10914800C200D3185972FFF745FF08BD240200205A
:1091580008B5034BC200D3181972FFF73BFF08BDCF
:109168002402002010B5204BC200121AD218141C79
:109178001C34117F6278890312030A43E021090332
:109188001143D963A278012A03D18022D200114366
:10919800D963154BC100091AC9181C31CA78DC6B90
:1091A80012022243DA630979012902D180210A4394
:1091B800DA630D4BC200121AD2181C325279012AF6
:1091C80003D1D96B40220A43DA63074CC300181A4B
:1091D80000191C308079E36B00011843E063FFF746
:1091E800E5FDE36BA36310BD2402002008B5C300AE
:1091F800034A1B1A9B181C339971FFF7B3FF08BD6C
:109208002402002070B5C3000D4A1B1A9B181C339A
:109218009E79041C032E02D00321FFF7E7FF201CD0
:10922800FFF7A0FF064B5D6A2B0301D5054B1D43D5
:10923800032E03D0201C311CFFF7D8FF281C70BD5B
:10924800240200200000F0FF08B5C300034A1B1ADF
:109258009B181C335971FFF785FF08BD24020020B5
:1092680008B5C300034A1B1A9B181C331971FFF772
:1092780079FF08BD2402002008B5C300034A1B1A61
:109288009B18D977FFF76EFF08BDC046240200205F
:1092980008B5C300034A1B1A9B189977FFF762FFAA
:1092A80008BDC0462402002008B5C300034A1B1AA3
:1092B8009B185977FFF756FF08BDC04624020020C7
:1092C80008B5C300034A1B1A9B181977FFF74AFF12
:1092D80008BDC0462402002010B5154B0022DA63F1
:1092E800C200D2185279002A02D080229200DA6392
:1092F8000F4BC200D2189279002A04D0D96B802271
:1093080052000A43DA630A4BC200D318DA790F2AEB
:1093180001D90F22DA71064CC0000019E36BC0793D
:109328001843E063FFF742FDE36BA36210BDC0463C
:1093380024020020F8B506AC277807AC2678054C3F
:10934800C50029552919CF700E714A708B70FFF727
:10935800C3FFF8BD2402002008B5034BC200D31890
:109368009971FFF7B9FF08BD2402002008B5054B25
:10937800C200D3185971002901D00422DA71FFF70D
:10938800ABFF08BD2402002008B5054BC200D31866
:10939800D971042901D000225A71FFF79DFF08BD39
:1093A80024020020F0B5314C83B01E1C231C01920E
:1093B80040331A5C051C0F1C042A1DD82C4B920044
:1093C800D3589F46FFF706FE4034012303E0FFF71A
:1093D800C9FE40340223635510E0FFF76FFD4034A7
:1093E8000323F8E7FFF702FD40340423F3E7FFF710
:1093F80073FF40340023EEE700221A54EA001B4BA7
:10940800551BED181C35AA79012A10D0002A02D064
:10941800022A21D111E0002F02D05B6A9B0C3B701D
:10942800019A002A18D0114B5B6A9B0A13E0002EA0
:1094380012D05B6A9B0A33600EE0002E03D05B6A91
:10944800DB0B5B013360089B002B05D0074B089AA8
:109458005B6A5B04DB0E1370099B002B03D0034B84
:10946800099A5B6A137003B0F0BDC046240200205D
:1094780010EC000038B51B4B0022052101245D1CAF
:10948800597699761C76EA779D1CEC770320DD1CCB
:109498000224EC771877997358779A77DA771A74E1
:1094A8005A749A74DA741A755A719A71DA711C724C
:1094B8005A72DA729A721C735873DA730A4A8023E2
:1094C800DB0313630020FFF7F9FC0020FFF78EFC95
:1094D8000020FFF747FE0020FFF7FEFE0020FFF701
:1094E80079FD38BD2402002000100540F0B5BB4BC3
:1094F80085B01A78002A05D1B94A5A609A60DA60AC
:1095080001221A70B54B1B7C002B0CD10024E0B251
:10951800FAF7AEFFB14B1A1C143210550134082C5F
:10952800F5D101221A7427240025E8B2FAF7A0FF22
:10953800AA4B14335A5D82421BD05855AA1DA94B19
:109548009200D358022B06D0032B0CD0012B10D13C
:1095580000280ED007E000280BD1A34A115D01298D
:1095680007D1135505E0A04B1A5D012A01D102224B
:109578001A5501350134082DD7D19C4CE369002BCD
:1095880018D09B4B1B78002B14D1FFF7E1FA994BAD
:109598001B68C01AC1174018E3694840984209D9A6
:1095A8000024201C013401F0A3F8032CF9D1904BBE
:1095B80001221A708D4C236A002B18D08E4B1B7811
:1095C800002B14D1FFF7C4FA8C4B1B68C01AC217C2
:1095D8008018236A5040984209D90024201C01347D
:1095E80001F086F8032CF9D1834B01221A70844EBE
:1095F8007A4C337B002B00D090E2FFF7A9FAE3699D
:10960800C01AC317C01858400A2800DCFBE2651CC2
:10961800EB7F002B00D09AE100200A2100F04AFFDE
:10962800071CE87F01F088F8002F25D1E97F08237F
:1096380049011943C9B2002000F03CFF00281BD1A2
:10964800FFF786FAEB7F9A0014196168401AC11770
:109658004018484059018919898B8C0061184900C4
:10966800884229DD0132D2009619B178181CFAF720
:10967800EDFEEB7F01211DE0584BFA170133D87F2F
:10968800BC18604B5440C200D1588C4202D2D31847
:10969800197903E05A4A4301D318597AFAF7D6FEE2
:1096A8004E4C651CEE7FFFF753FAB6003419EB7F7A
:1096B80060600021544AD154484CFB170134E07FC4
:1096C800FE18504D5E40C3005B599E420AD2FFF718
:1096D800F1FAE37FDA0055196A7982420DD1181C34
:1096E800002108E0FFF7E6FAE37FDA005519697907
:1096F800884202D0181CFFF731FC384C434A013429
:10970800E07F00218300D318414A12180092414A91
:10971800121801920022FFF745FEE07F384D430101
:109728005B199B69002B16D0FAF758FE002812D057
:10973800E07F43015D19AB699E420CD900F0D8FF68
:10974800E37F354A0121D154274A0F33D15C0129DF
:1097580001D10221D154002F0BD1204B002001331D
:10976800D97F082349011943C9B200F0A3FE002894
:1097780006D01A4D6B1CDC7F284B1B5D002B51D08B
:10978800164B1F490133DB7F5A018A18D289002AF8
:1097980003D1224AD35C002B49D0FFF7D9F90F49EE
:1097A8004C1CE37F9A005118496A0132401AC117CC
:1097B800401848401249D2005218D28891008A189D
:1097C8005200904233DD164DEA5C002A2FD1181C56
:1097D800FFF774FCE37F0122EA5428E068020020C6
:1097E800FFFFFF7F3C0900209409002008000020AB
:1097F800830900207C090020280800207409002023
:10980800D8080020440800208809002068080020A3
:1098180040080020D4080020D00800208C0900202F
:1098280090090020FFF794F9A40065196862B34C09
:10983800B34D0134E17F4B01EB185B69002B00D17C
:1098480085E0002F00D182E0AE4B5B5C002B7ED11F
:10985800022349011943C9B2002000F0EDFD061C9E
:10986800E07F01F0CBF9E17F361A4B01EB185B6919
:10987800F217B618D81756401A184240964266DDB5
:10988800002B29DD081C00F033FFE37F5B015B1927
:109898009B7F002B15D01E350024984B984A013326
:1098A800DB7F5B019B189A7F2B789A4205D1201C9D
:1098B80000F01EFFE0B200F0BFF901342035032CA0
:1098C800EBD18E4B904A0133DB7F1533D15C0129F4
:1098D80035D10221D15432E00020022200F08AFD65
:1098E800E17F082349011943C9B2002000F0E8FECE
:1098F800E37F5B015B199B7F002B20D02E1C1E365B
:1099080000247E4B7E4A0133DB7F5B019B189A7FE4
:1099180033789A420FD1E5B20020291C022200F0C8
:1099280069FD0823690119430020C9B200F0C8FE87
:10993800281C00F081F901342036032CE1D16F4B4B
:1099480001220133D87F6F4B1A5400F075F96B4C24
:10995800631CDB7F022B1ED8002000F075FC30341E
:1099680003AB22781870F82313402370C10702D57F
:10997800012213432370420705D5604B022230337E
:1099880019780A431A70C30605D55C4B0422303394
:1099980019780A431A705D4A1378002B0BD057497F
:1099A800303109780B4206D159490B70594B1B7855
:1099B800002B00D11370564B1B78002B08D04F4A50
:1099C800303212781A409A4202D1534B01221A704F
:1099D8004A4901220B1C30331B78134209D031311C
:1099E8000978114205D1484AD178012901D10221CB
:1099F800D1700222134209D040493131097811420D
:109A080004D141490879012800D10A71042213427E
:109A18000AD03A4931310978114205D13A4A517987
:109A2800012901D102215171344D03212A1C01352C
:109A3800EC7F31321370201C03F040FB03ABC0B243
:109A48001B56002B47DA16236101194302ACC9B231
:109A58000020221C00F044FDA378580608D5EA7FB0
:109A6800294952001B32885C012801D10220885400
:109A78005AB2002A0ADA214A23490132D27F0E3229
:109A88005200885C012801D102208854D9060AD5E1
:109A98001A4A1D490132D27F52001B32885C0128C4
:109AA80001D1022088549A060AD5144B164A01336C
:109AB800DB7F0E335B00D15C012901D10221D15437
:109AC8000E4B00200133D97F162349011943C9B22F
