:020000040800F2
:1000000020080020410C0008A90C0008A90C0008D9
:10001000A90C0008A90C0008A90C000800000000A9
:10002000000000000000000000000000A90C000813
:10003000A90C000800000000A90C0008A90C000889
:10004000A90C0008A90C0008A90C0008A90C0008BC
:10005000A90C0008A90C0008A90C0008A90C0008AC
:10006000A90C0008A90C0008A90C0008A90C00089C
:10007000A90C0008A90C0008A90C0008A90C00088C
:10008000A90C0008A90C0008A90C0008A90C00087C
:10009000A90C0008A90C0008A90C0008A90C00086C
:1000A000A90C0008A90C0008A90C0008A90C00085C
:1000B000A50B0008A90C0008A90C0008A90C000851
:1000C000A90C0008A90C0008A90C0008A90C00083C
:1000D000A90C0008A90C0008A90C0008A90C00082C
:1000E000A90C0008A90C0008A90C0008A90C00081C
:1000F000A90C0008A90C0008A90C0008A90C00080C
:10010000A90C0008A90C0008A90C0008A90C0008FB
:10011000A90C0008A90C0008A90C0008A90C0008EB
:10012000A90C0008A90C0008A90C0008A90C0008DB
:10013000A90C0008A90C0008A90C0008A90C0008CB
:10014000A90C0008A90C0008A90C0008A90C0008BB
:10015000A90C0008A90C0008A90C0008A90C0008AB
:10016000A90C0008A90C0008A90C0008A90C00089B
:10017000A90C0008A90C0008A90C0008A90C00088B
:10018000A90C0008A90C000880B582B000AF034696
:10019000FB7100F001F941F63C13C0F600031B7837
:1001A000184600F0AFF900F02FFA00F059FA40F2CB
:1001B0000003C2F200034FF001021A70FB79002B1A
:1001C00006D140F20003C2F200034FF000021A70A1
:1001D000FB79022B06D140F20003C2F200034FF07C
:1001E00002021A7040F20003C2F200034FF0000254
:1001F0005A7040F20003C2F200034FF000025A604E
:100200004FF0010000F022FC024640F20003C2F26F
:1002100000039A6040F20003C2F200034FF00002B4
:10022000DA6040F20003C2F200034FF000021A61EC
:1002300040F20003C2F200034FF000025A6140F2A4
:100240000003C2F200034FF000029A6140F2000383
:10025000C2F200034FF00002DA614FF080404FF02D
:10026000010101F063F807F10807BD4680BD00BF3A
:1002700080B582B000AF786039604FF0640000F064
:10028000E5FB024640F20003C2F200039A6040F22E
:100290000003C2F200034FF003025A7000BF40F2A5
:1002A0000003C2F200035B78002BF8D1786800F0FD
:1002B000CDFB024640F20003C2F200039A6040F216
:1002C0000003C2F200033A681A6140F20003C2F26E
:1002D00000034FF001025A7007F10807BD4680BDC8
:1002E00080B582B000AF786039604FF0640000F0F4
:1002F000ADFB024640F20003C2F200039A6040F2F6
:100300000003C2F200034FF003025A7000BF40F234
:100310000003C2F200035B78002BF8D1786800F08C
:1003200095FB024640F20003C2F200039A6040F2DD
:100330000003C2F200033A681A6140F20003C2F2FD
:1003400000034FF002025A7007F10807BD4680BD56
:1003500080B483B000AF786040F20003C2F20003C3
:100360007A689A6100BF40F20003C2F20003DA69C2
:1003700040F20003C2F200039B699A42F3D340F2B9
:100380000003C2F200034FF000029A6107F10C076C
:10039000BD4680BC704700BF80B582B000AF4FF053
:1003A00010004FF0010100F0A5FC4FF010033B607E
:1003B0004FF001033B714FF00003BB714FF002039C
:1003C0007B714FF00003FB713B464FF48050C4F249
:1003D0000200194600F0E6FC4FF010004FF001015A
:1003E00000F088FC4FF020033B604FF001033B71AD
:1003F0004FF00003BB714FF002037B714FF000031D
:10040000FB713B464FF48050C4F20200194600F0E5
:10041000C9FC4FF010004FF0010100F06BFC4FF0F1
:1004200040033B604FF001033B714FF00003BB7191
:100430004FF002037B714FF00003FB713B464FF41A
:100440008050C4F20200194600F0ACFC4FF01000DE
:100450004FF0010100F04EFC4FF080033B604FF085
:1004600001033B714FF00003BB714FF002037B713E
:100470004FF00003FB713B464FF48050C4F2020082
:10048000194600F08FFC4FF010004FF0010100F012
:1004900031FC4FF480733B604FF001033B714FF030
:1004A0000003BB714FF002037B714FF00003FB713F
:1004B0003B464FF48050C4F20200194600F072FC33
:1004C0004FF010004FF0010100F014FC4FF40073E6
:1004D0003B604FF001033B714FF00003BB714FF0E5
:1004E00002037B714FF00003FB713B464FF48050D9
:1004F000C4F20200194600F055FC07F10807BD469A
:1005000080BD00BF80B483B000AF0346FB71FB79B0
:1005100003F02003002B07D14FF48053C4F20203F1
:100520004FF010025A8306E04FF48053C4F20203E6
:100530004FF010021A83FB7903F01003002B07D150
:100540004FF48053C4F202034FF020025A8306E0B6
:100550004FF48053C4F202034FF020021A83FB7958
:1005600003F00803002B07D14FF48053C4F20203B9
:100570004FF040025A8306E04FF48053C4F2020366
:100580004FF040021A83FB7903F00403002B07D1DC
:100590004FF48053C4F202034FF080025A8306E006
:1005A0004FF48053C4F202034FF080021A83FB79A8
:1005B00003F00203002B07D14FF48053C4F202036F
:1005C0004FF480725A8306E04FF48053C4F2020362
:1005D0004FF480721A83FB7903F00103002B07D1DB
:1005E0004FF48053C4F202034FF400725A8306E0C2
:1005F0004FF48053C4F202034FF400721A8307F1E0
:100600000C07BD4680BC704780B584B000AF4FF08A
:1006100001004FF0010100F099FB4FF080404FF0D6
:10062000000100F083FE4FF01303BB604FF029037D
:10063000BB804FF00003BB814FF00003FB8007F14C
:1006400004034FF08040194600F0D6FD4FF0804083
:100650004FF0010100F04AFE07F11007BD4680BDD2
:1006600080B582B000AF4FF080404FF001014FF0F5
:10067000010200F07BFE4FF01C033B714FF00003C2
:100680007B714FF00003BB714FF00103FB7107F169
:100690000403184600F03EFD07F10807BD4680BD83
:1006A00080B582B000AF40F20003C2F200035B7875
:1006B000032B00F2B68001A252F823F023080008B1
:1006C000CD06000865070008F70700084FF0000096
:1006D00000F0ACF80346FB71FB791846FFF712FFF8
:1006E00040F20003C2F200031B69002B00F0968069
:1006F00040F20003C2F200031B6903F1FF3240F233
:100700000003C2F200031A6140F20003C2F20003C8
:100710001B69002B10D14FF0640000F097F90246DE
:1007200040F20003C2F200039A6040F20003C2F2FA
:1007300000034FF003025A7040F20003C2F20003BC
:100740005A6940F2E7339A4268D840F20003C2F295
:1007500000035B6903F1010240F20003C2F20003EF
:100760005A615BE04FF0010000F060F80346FB7156
:10077000FB791846FFF7C6FE40F20003C2F2000301
:100780001B69002B4CD040F20003C2F200031B692E
:1007900003F1FF3240F20003C2F200031A6140F29B
:1007A0000003C2F200031B69002B10D14FF064005C
:1007B00000F04CF9024640F20003C2F200039A60D6
:1007C00040F20003C2F200034FF003025A7040F2FD
:1007D0000003C2F200035B69002B21D040F200034A
:1007E000C2F200035B6903F1FF3240F20003C2F280
:1007F00000035A6114E04FF0640000F027F902464C
:1008000040F20003C2F200039A6040F20003C2F219
:1008100000034FF000025A7000BF02E000BF00E08A
:1008200000BF07F10807BD4680BD00BF80B485B09A
:1008300000AF78604FF00003FB737B68002B7FD123
:1008400040F20003C2F200031B78002B25D140F2D6
:100850000003C2F20003DB6803F1010240F200036F
:10086000C2F20003DA6040F20003C2F20003DB6868
:10087000072B06D940F20003C2F200034FF000023A
:10088000DA6040F20003C2F20003DA6841F6341382
:10089000C0F600039B5CFB73D1E040F20003C2F2A0
:1008A00000031B78012B25D140F20003C2F20003A4
:1008B000DB6803F1010240F20003C2F20003DA60D8
:1008C00040F20003C2F20003DB68032B06D940F2BA
:1008D0000003C2F200034FF00002DA6040F20003AE
:1008E000C2F20003DA6841F63C13C0F600039B5CD9
:1008F000FB73A4E040F20003C2F20003DB6803F1E3
:10090000010240F20003C2F20003DA6040F2000389
:10091000C2F20003DB68032B06D940F20003C2F2E7
:1009200000034FF00002DA6040F20003C2F200035D
:10093000DA6841F64013C0F600039B5CFB737EE06F
:1009400040F20003C2F200031B78002B25D140F2D5
:100950000003C2F20003DB68002B06D140F2000363
:10096000C2F200034FF00802DA6040F20003C2F264
:100970000003DB6803F1FF3240F20003C2F2000320
:10098000DA6040F20003C2F20003DA6841F6341381
:10099000C0F600039B5CFB7351E040F20003C2F21F
:1009A00000031B78012B25D140F20003C2F20003A3
:1009B000DB68002B06D140F20003C2F200034FF0C7
:1009C0000402DA6040F20003C2F20003DB6803F1C4
:1009D000FF3240F20003C2F20003DA6040F200038B
:1009E000C2F20003DA6841F63C13C0F600039B5CD8
:1009F000FB7324E040F20003C2F20003DB68002B2B
:100A000006D140F20003C2F200034FF00402DA60A4
:100A100040F20003C2F20003DB6803F1FF3240F250
:100A20000003C2F20003DA6040F20003C2F20003E6
:100A3000DA6841F64013C0F600039B5CFB73FB7B56
:100A4000184607F11407BD4680BC704780B584B0D6
:100A500000AF78604FF00003FB607B68642B02D925
:100A60004FF064037B607B68002B02D14FF00103E1
:100A70007B6040F20003C2F200031B78002B29D1F7
:100A8000786800F08FFD03464248194600F096FE54
:100A90000346BB60B868404900F0DCFD0346BB601C
:100AA000B86800F027FF0346FB60FA684DF2900338
:100AB000C0F203039A4204D94DF29003C0F203033B
:100AC000FB60FA6840F277539A425DD84FF4AF6307
:100AD000FB6059E040F20003C2F200031B78012BD7
:100AE00029D1786800F05EFD03462A48194600F0D7
:100AF00065FE0346BB60B868284900F0ABFD0346BD
:100B0000BB60B86800F0F6FE0346FB60FA684AF284
:100B10002013C0F207039A4204D94AF22013C0F20C
:100B20000703FB60FA6840F68B239A422CD840F604
:100B30008C23FB6028E0786800F034FD03461548FC
:100B4000194600F03BFE0346BB60B868144900F04C
:100B500081FD0346BB60B86800F0CCFE0346FB6035
:100B6000FA684FF41F53C0F209039A4204D94FF4B4
:100B70001F53C0F20903FB60FA6840F69F739A4264
:100B800002D84FF47A63FB60FB68184607F1100740
:100B9000BD4680BD0000C8420000AF4400C02845EB
:100BA00000007A4580B500AF4FF080404FF0010162
:100BB00000F000FC0346002B41D04FF080404FF086
:100BC000010100F027FC40F20003C2F200039B6920
:100BD000002B0CD040F20003C2F20003DB6903F1EA
:100BE0000A0240F20003C2F20003DA6106E040F2BA
:100BF0000003C2F200034FF00002DA6140F200038A
:100C0000C2F200035B6803F10A0240F20003C2F281
:100C100000035A6040F20003C2F200035A6840F237
:100C20000003C2F200039B689A4208D340F200031B
:100C3000C2F200034FF000025A60FFF731FD80BDA1
:100C400080B582B000AF41F64413C0F600037B606C
:100C500040F20003C2F200033B600BE07B681A68BD
:100C60003B681A603B6803F104033B607B6803F157
:100C700004037B603A6840F20003C2F200039A4228
:100C8000ECD3074807494FF000028842B8BF40F84C
:100C9000042BFADB00F00CF807F10807BD4680BD15
:100CA000000000202000002080B400AFFEE700BF5D
:100CB00080B500AF00F020F94FF00100FFF764FAB3
:100CC00044F24020C0F20F00FFF742FB4FF0230038
:100CD0004FF47A71FFF7CCFA44F24020C0F20F00D3
:100CE000FFF736FB4FF023004FF47A71FFF7F8FA65
:100CF000E6E700BF80B483B000AF78600B46FB70BE
:100D0000FB78002B0DD04FF46053C4F202034FF474
:100D10006052C4F20202126B11467A680A431A63E7
:100D20000EE04FF46053C4F202034FF46052C4F279
:100D30000202126B11467A686FEA02020A401A63D5
:100D400007F10C07BD4680BC704700BF80B483B07C
:100D500000AF78600B46FB70FB78002B0DD04FF492
:100D60006053C4F202034FF46052C4F20202126CE8
:100D700011467A680A431A640EE04FF46053C4F2D5
:100D800002034FF46052C4F20202126C11467A68F8
:100D90006FEA02020A401A6407F10C07BD4680BCE4
:100DA000704700BF80B487B000AF786039604FF003
:100DB00000037B614FF000033B614FF00003FB60D9
:100DC0004FF000037B618EE07B694FF0010202FA75
:100DD00003F33B613B681A683B691340FB60FA68A8
:100DE0003B699A427BD17B681B681A467B694FEA54
:100DF00043034FF0030101FA03F36FEA03031A40C0
:100E00007B681A607B681B681A463B681B79194629
:100E10007B694FEA430301FA03F31A437B681A60C4
:100E20003B681B79012B03D03B681B79022B38D11F
:100E30007B689B681A467B694FEA43034FF00301C6
:100E400001FA03F36FEA03031A407B689A607B6838
:100E50009B681A463B685B7919467B694FEA4303F6
:100E600001FA03F31A437B689A607B685B681A4651
:100E70007B699BB24FF0010101FA03F36FEA0303B0
:100E80001A407B685A607B685B681A463B689B79AE
:100E900019467B699BB201FA03F39BB21A437B6844
:100EA0005A607B68DB681A467B699BB24FEA430352
:100EB0004FF0030101FA03F36FEA03031A407B6862
:100EC000DA607B68DB681A463B68DB7919467B6928
:100ED0004FEA430301FA03F31A437B68DA607B6944
:100EE00003F101037B617B690F2B7FF66DAF07F187
:100EF0001C07BD4680BC704780B500AF4FF46053FF
:100F0000C4F202034FF46052C4F20202126842F0CB
:100F100001021A604FF46053C4F202034FF0000262
:100F20009A604FF46053C4F202034FF46052C4F26B
:100F30000202126822F0847222F480321A604FF4A6
:100F40006053C4F2020343F21002C2F200425A603C
:100F50004FF46053C4F202034FF46052C4F2020231
:100F6000126822F480221A604FF46053C4F2020324
:100F70004FF00002DA6000F009F84FF46D43CEF252
:100F800000034FF000629A6080BD00BF80B483B060
:100F900000AF4FF000037B604FF000033B604FF465
:100FA0006053C4F202034FF46052C4F202021268AA
:100FB00042F480321A604FF46053C4F202031B689B
:100FC00003F400333B607B6803F101037B603B6803
:100FD000002B03D17B68B3F5A06FECD14FF46053C5
:100FE000C4F202031B6803F40033002B03D04FF05C
:100FF00001033B6002E04FF000033B603B68012BC4
:1010000040F082804FF46053C4F202034FF4605208
:10101000C4F20202126C42F080521A644FF4E043B0
:10102000C4F200034FF4E042C4F20002126842F43A
:1010300080421A604FF46053C4F202034FF46052CE
:10104000C4F2020292689A604FF46053C4F2020341
:101050004FF46052C4F20202926842F400429A6075
:101060004FF46053C4F202034FF46052C4F2020220
:10107000926842F4A0529A604FF46053C4F20203A3
:1010800045F20842C0F240725A604FF46053C4F215
:1010900002034FF46052C4F20202126842F08072FE
:1010A0001A6000BF4FF46053C4F202031B6803F0E0
:1010B0000073002BF6D04FF47053C4F2020340F2D9
:1010C00005621A604FF46053C4F202034FF4605299
:1010D000C4F20202926822F003029A604FF4605355
:1010E000C4F202034FF46052C4F20202926842F06A
:1010F00002029A6000BF4FF46053C4F202039B687F
:1011000003F00C03082BF6D107F10C07BD4680BC99
:10111000704700BF80B485B000AF78604FF0000327
:10112000FB734FF00003BB734FF00F037B737B68BF
:10113000DB78002B45D04FF46D43CEF20003DB6823
:101140006FEA030303F4E0634FEA1323FB73FB7BB3
:10115000C3F10403BB737A7BFB7B42FA03F37B731B
:101160007B685B781A46BB7B02FA03F3FB737B68F0
:101170009A787B7B1340DAB2FB7B1343FB73FB7BD8
:101180004FEA0313FB734FF46143CEF200037A6816
:1011900012789B18FA7B83F800234FF46143CEF258
:1011A00000037A6812784FEA5212D2B2796809784D
:1011B00001F01F014FF0010000FA01F143F8221085
:1011C00014E04FF46143CEF200037A6812784FEADC
:1011D0005212D2B27968097801F01F014FF0010074
:1011E00000FA01F102F1200243F8221007F114077E
:1011F000BD4680BC704700BF80B485B000AF78604A
:1012000039604FF00003FB817B681B88FB817A68A3
:101210004FF00003C4F201039A421FD07A684FF4E2
:101220008063C4F201039A4218D07B68B3F1804F07
:1012300014D07A684FF48063C4F200039A420DD050
:101240007A684FF40063C4F200039A4206D07A68C9
:101250004FF44063C4F200039A4208D1FB8923F0A3
:101260007003FB813B685A88FB891343FB817A68D2
:101270004FF48053C4F200039A420FD07A684FF4BF
:10128000A053C4F200039A4208D0FB8923F44073B0
:10129000FB813B681A89FB891343FB817B68FA89D0
:1012A0001A803B685A687B68DA623B681A887B68F8
:1012B0001A857A684FF00003C4F201039A4206D0FF
:1012C0007A684FF48063C4F201039A4204D13B6808
:1012D0009B7A1A467B681A867B684FF001029A82D5
:1012E00007F11407BD4680BC704700BF80B483B0CF
:1012F00000AF78600B46FB70FB78002B08D07B6852
:101300001B889BB243F080039AB27B681A8007E087
:101310007B681B889BB223F080039AB27B681A809B
:1013200007F10C07BD4680BC704700BF80B483B096
:1013300000AF78600B46FB70FB78002B08D07B6811
:101340001B889BB243F001039AB27B681A8007E0C6
:101350007B681B889BB223F001039AB27B681A80DA
:1013600007F10C07BD4680BC704700BF80B483B056
:1013700000AF786013460A467A807B707B78002B3A
:1013800008D07B689B899AB27B8813439AB27B68AA
:101390009A810AE07B689B899AB27B886FEA030393
:1013A0009BB213409AB27B689A8107F10C07BD4645
:1013B00080BC704780B485B000AF78600B467B80FE
:1013C0004FF00003FB734FF00003BB814FF00003AD
:1013D0007B817B681B8A9AB27B881340BB817B68C8
:1013E0009B899AB27B8813407B81BB89002B06D0F6
:1013F0007B89002B03D04FF00103FB7302E04FF019
:101400000003FB73FB7B184607F11407BD4680BC45
:10141000704700BF80B483B000AF78600B467B801C
:101420007B886FEA03039AB27B681A8207F10C0784
:10143000BD4680BC704700BF80F0004002E000BFA6
:1014400081F0004142001FBF5FEA410392EA030FAF
:101450007FEA226C7FEA236C6AD04FEA1262D2EBF9
:101460001363C1BFD218414048404140B8BF5B42FE
:10147000192B88BF704710F0004F40F4000020F097
:101480007F4018BF404211F0004F41F4000121F0AD
:101490007F4118BF494292EA030F3FD0A2F10102F7
:1014A00041FA03FC10EB0C00C3F1200301FA03F135
:1014B00000F0004302D5494260EB4000B0F5000F58
:1014C00013D3B0F1807F06D340084FEA310102F117
:1014D0000102FE2A51D2B1F1004F40EBC25008BFC9
:1014E00020F0010040EA03007047490040EB000093
:1014F00010F4000FA2F10102EDD1B0FA80FCACF1C2
:10150000080CB2EB0C0200FA0CF0AABF00EBC250C0
:1015100052421843BCBFD0401843704792F0000FAE
:1015200081F4000106BF80F400000132013BB5E701
:101530004FEA41037FEA226C18BF7FEA236C21D077
:1015400092EA030F04D092F0000F08BF08467047DC
:1015500090EA010F1CBF0020704712F07F4F04D1AA
:10156000400028BF40F00040704712F100723CBFBD
:1015700000F50000704700F0004343F0FE4040F4E7
:10158000000070477FEA226216BF08467FEA2363A5
:101590000146420206BF5FEA412390EA010F40F490
:1015A000800070474FF0000304E000BF10F00043DC
:1015B00048BF40425FEA000C08BF704743F09643C3
:1015C00001464FF000001CE050EA010208BF7047DE
:1015D0004FF000030AE000BF50EA010208BF704765
:1015E00011F0004302D5404261EB41015FEA010C7A
:1015F00002BF84460146002043F0B64308BFA3F172
:101600008053A3F50003BCFA8CF2083AA3EBC25353
:1016100010DB01FA02FC634400FA02FCC2F1200272
:10162000BCF1004F20FA02F243EB020008BF20F0A9
:101630000100704702F1200201FA02FCC2F120020F
:1016400050EA4C0021FA02F243EB020008BF20EA04
:10165000DC7070474FF0FF0C1CEAD0521EBF1CEA32
:10166000D15392EA0C0F93EA0C0F6FD01A4480EA20
:10167000010C400218BF5FEA41211ED04FF0006309
:1016800043EA501043EA5111A0FB01310CF0004035
:10169000B1F5000F3EBF490041EAD3715B0040EA5B
:1016A000010062F17F02FD2A1DD8B3F1004F40EB2B
:1016B000C25008BF20F00100704790F0000F0CF0FE
:1016C000004C08BF49024CEA502040EA51207F3AC2
:1016D000C2BFD2F1FF0340EAC250704740F400009D
:1016E0004FF00003013A5DDC12F1190FDCBF00F08E
:1016F00000407047C2F10002410021FA02F1C2F13C
:10170000200200FA02FC5FEA310040F1000053EAD7
:101710004C0308BF20EADC70704792F0000F00F025
:10172000004C02BF400010F4000F013AF9D040EA2B
:101730000C0093F0000F01F0004C02BF490011F4BF
:10174000000F013BF9D041EA0C018FE70CEAD153BD
:1017500092EA0C0F18BF93EA0C0F0AD030F0004C3D
:1017600018BF31F0004CD8D180EA010000F00040F1
:10177000704790F0000F17BF90F0004F084691F0AF
:10178000000F91F0004F14D092EA0C0F01D14202E9
:101790000FD193EA0C0F03D14B0218BF084608D1B2
:1017A00080EA010000F0004040F0FE4040F40000FC
:1017B000704740F0FE4040F4400070474FF0FF0C8F
:1017C0001CEAD0521EBF1CEAD15392EA0C0F93EAD6
:1017D0000C0F69D0A2EB030280EA010C49024FEA28
:1017E000402037D04FF0805343EA111143EA1013E1
:1017F0000CF000408B4238BF5B0042F17D024FF499
:10180000000C8B4224BF5B1A40EA0C00B3EB510F73
:1018100024BFA3EB510340EA5C00B3EB910F24BF5C
:10182000A3EB910340EA9C00B3EBD10F24BFA3EBE1
:10183000D10340EADC001B0118BF5FEA1C1CE0D1A9
:10184000FD2A3FF650AF8B4240EBC25008BF20F05C
:10185000010070470CF0004C4CEA50207F32C2BFB0
:10186000D2F1FF0340EAC250704740F400004FF04D
:101870000003013A37E792F0000F00F0004C02BF7E
:10188000400010F4000F013AF9D040EA0C0093F048
:10189000000F01F0004C02BF490011F4000F013BA2
:1018A000F9D041EA0C0195E70CEAD15392EA0C0F0A
:1018B00008D142027FF47DAF93EA0C0F7FF470AF42
:1018C000084676E793EA0C0F04D14B023FF44CAF85
:1018D00008466EE730F0004C18BF31F0004CCAD11A
:1018E00030F000427FF45CAF31F000437FF43CAF56
:1018F0005FE700BF42000ED2B2F1FE4F0BD34FF0B4
:101900009E03B3EB126209D44FEA002343F0004375
:1019100023FA02F070474FF00000704712F1610F98
:1019200001D1420202D14FF0FF3070474FF000006A
:10193000704700BF170527222B091B1217272B1BE7
:041940000522091261
:0400000508000000EF
:00000001FF
