:020000040800F2
:1000000004080020D10200083D0300083D03000859
:100010003D0300083D0300083D0300080000000008
:100020000000000000000000000000003D03000888
:100030003D030008000000003D0300083D030008E8
:100040003D0300083D0300083D0300083D03000890
:100050003D0300083D0300083D0300083D03000880
:100060003D0300083D0300083D0300083D03000870
:100070003D0300083D0300083D0300083D03000860
:100080003D0300083D0300083D0300083D03000850
:100090003D0300083D0300083D0300083D03000840
:1000A0003D0300083D0300083D0300083D03000830
:1000B0003D0300083D0300083D0300083D03000820
:1000C0003D0300083D0300083D0300083D03000810
:1000D0003D0300083D0300083D0300083D03000800
:1000E0003D0300083D0300083D0300083D030008F0
:1000F0003D0300083D0300083D0300083D030008E0
:100100003D0300083D0300083D0300083D030008CF
:100110003D0300083D0300083D0300083D030008BF
:100120003D0300083D0300083D0300083D030008AF
:100130003D0300083D0300083D0300083D0300089F
:100140003D0300083D0300083D0300083D0300088F
:100150003D0300083D0300083D0300083D0300087F
:100160003D0300083D0300083D0300083D0300086F
:100170003D0300083D0300083D0300083D0300085F
:100180003D0300083D03000880B485B000AF7860EF
:1001900039604FF00003FB604FF00003BB604FF489
:1001A000E843C4F200031B68FB607B6840F6FE7204
:1001B00002FA03F36FEA0303FA681340FB603B683B
:1001C0001A683B685B681A433B689B681A433B6844
:1001D000DB681343BB607B68BA6802FA03F3FA6812
:1001E0001343FB604FF4E843C4F20003FA681A605B
:1001F00007F11407BD4680BC704700BF80B483B0D0
:1002000000AF78600B46FB70FB78002B10D04FF4EA
:10021000E843C4F200034FF4E842C4F2000211685C
:100220007A684FF0010000FA02F20A431A6011E006
:100230004FF4E843C4F200034FF4E842C4F2000272
:1002400011687A684FF0010000FA02F26FEA0202C8
:100250000A401A6007F10C07BD4680BC704700BF1A
:1002600080B485B000AF78600B467B804FF0000310
:10027000FB604FF4E843C4F20003FB60FA687B685C
:10028000D31803F10803FB60FB687A881A6007F152
:100290001407BD4680BC704780B485B000AF78605D
:1002A0000B467B804FF00003FB604FF4E843C4F241
:1002B0000003FB60FA687B68D31803F11403FB604A
:1002C000FB687A881A6007F11407BD4680BC704746
:1002D00080B582B000AF40F65C13C0F600037B60CF
:1002E00040F20003C2F200033B600BE07B681A6837
:1002F0003B681A603B6803F104033B607B6803F1D1
:1003000004037B603A6840F20003C2F200039A42A1
:10031000ECD3084808494FF000028842B8BF40F8C3
:10032000042BFFF6FAAF00F00DF807F10807BD4601
:1003300080BD0000000000200400002080B400AF59
:10034000FEE700BF80B582B000AF00F0F9F94FF0D2
:10035000000000F067F84FF00003FB8007E0FB8827
:10036000184600F08BF8FB8803F10103FB80FA8844
:1003700040F6FF739A42F2D9EDE700BF80B483B034
:1003800000AF78600B46FB70FB78002B0CD04FF46D
:100390006053C4F202034FF46052C4F20202116BC4
:1003A0007A680A431A630DE04FF46053C4F2020303
:1003B0004FF46052C4F20202116B7A686FEA0202D3
:1003C0000A401A6307F10C07BD4680BC704700BFA6
:1003D00080B483B000AF78600B46FB70FB78002BD5
:1003E0000CD04FF46053C4F202034FF46052C4F2D5
:1003F0000202116C7A680A431A640DE04FF46053EC
:10040000C4F202034FF46052C4F20202116C7A6823
:100410006FEA02020A401A6407F10C07BD4680BC6D
:10042000704700BF80B582B000AF0346FB7140F259
:100430000003C2F20003FA791A70FB79002B02D094
:10044000FB79022B07D100F059F800F093F84FF038
:10045000000000F013F8FB79012B02D0FB79022B8E
:1004600007D100F069F800F0A7F84FF0000000F0A5
:1004700025F807F10807BD4680BD00BF80B582B0F2
:1004800000AF0346FB8040F20003C2F200031B787A
:10049000012B0ED0FA8840F6FF739A4202D940F63B
:1004A000FF73FB80FB884FF000001946FFF7D8FE72
:1004B00000E000BF07F10807BD4680BD80B582B0EF
:1004C00000AF0346FB8040F20003C2F200031B783A
:1004D000002B0ED0FA8840F6FF739A4202D940F6FC
:1004E000FF73FB80FB884FF000001946FFF7D4FE36
:1004F00000E000BF07F10807BD4680BD80B582B0AF
:1005000000AF4FF001004FF00101FFF737FF4FF050
:1005100010033B604FF003033B714FF00003FB718E
:100520003B464FF00000C4F20200194600F066F8A6
:1005300007F10807BD4680BD80B582B000AF4FF01F
:1005400001004FF00101FFF719FF4FF020033B605E
:100550004FF003033B714FF00003FB713B464FF03C
:100560000000C4F20200194600F048F807F108073D
:10057000BD4680BD80B584B000AF4FF000504FF055
:100580000101FFF725FF4FF000033B604FF0000330
:100590007B604FF00003FB603B464FF000001946C4
:1005A000FFF7F2FD4FF000004FF00101FFF726FECC
:1005B00007F11007BD4680BD80B584B000AF4FF095
:1005C00000504FF00101FFF703FF4FF000033B60C5
:1005D0004FF000037B604FF00003FB603B464FF0A1
:1005E00010001946FFF7D0FD4FF010004FF0010149
:1005F000FFF704FE07F11007BD4680BD80B487B049
:1006000000AF786039604FF000037B614FF000036A
:100610003B614FF00003FB604FF000037B6186E01D
:100620007B694FF0010202FA03F33B613B681A68F1
:100630003B691340FB60FA683B699A4273D17B685F
:100640001A687B694FEA43034FF0030101FA03F391
:100650006FEA03031A407B681A607B681A683B687C
:100660001B7919467B694FEA430301FA03F31A43E6
:100670007B681A603B681B79012B03D03B681B79B0
:10068000022B34D17B689A687B694FEA43034FF0B1
:10069000030101FA03F36FEA03031A407B689A60CF
:1006A0007B689A683B685B7919467B694FEA43032C
:1006B00001FA03F31A437B689A607B685A687B6986
:1006C0009BB24FF0010101FA03F36FEA03031A40F2
:1006D0007B685A607B685A683B689B7919467B69DE
:1006E0009BB201FA03F39BB21A437B685A607B68A2
:1006F000DA687B699BB24FEA43034FF0030101FACA
:1007000003F36FEA03031A407B68DA607B68DA68F8
:100710003B68DB7919467B694FEA430301FA03F32F
:100720001A437B68DA607B6903F101037B617B69B3
:100730000F2B7FF675AF07F11C07BD4680BC7047D5
:1007400080B500AF4FF46053C4F202034FF460521F
:10075000C4F20202126842F001021A604FF46053C0
:10076000C4F202034FF000029A604FF46053C4F2E7
:1007700002034FF46052C4F20202126822F0847243
:1007800022F480321A604FF46053C4F2020343F241
:100790001002C2F200425A604FF46053C4F20203E6
:1007A0004FF46052C4F20202126822F480221A60EE
:1007B0004FF46053C4F202034FF00002DA6000F01D
:1007C00009F84FF46D43CEF200034FF000629A60D7
:1007D00080BD00BF80B483B000AF4FF000037B60EA
:1007E0004FF000033B604FF46053C4F202034FF438
:1007F0006052C4F20202126842F480321A604FF46E
:100800006053C4F202031B6803F400333B607B684F
:1008100003F101037B603B68002B03D17B68B3F5D8
:10082000A06FECD14FF46053C4F202031B6803F4D1
:100830000033002B03D04FF001033B6002E04FF088
:1008400000033B603B68012B40F082804FF4605313
:10085000C4F202034FF46052C4F20202126C42F07E
:1008600080521A644FF4E043C4F200034FF4E042B4
:10087000C4F20002126842F480421A604FF46053DE
:10088000C4F202034FF46052C4F2020292689A600A
:100890004FF46053C4F202034FF46052C4F20202F8
:1008A000926842F400429A604FF46053C4F202032B
:1008B0004FF46052C4F20202926842F4A0529A606D
:1008C0004FF46053C4F2020345F20842C0F2407292
:1008D0005A604FF46053C4F202034FF46052C4F202
:1008E0000202126842F080721A6000BF4FF4605337
:1008F000C4F202031B6803F00073002BF6D04FF420
:100900007053C4F2020340F205621A604FF4605360
:10091000C4F202034FF46052C4F20202926822F061
:1009200003029A604FF46053C4F202034FF4605222
:10093000C4F20202926842F002029A6000BF4FF4D1
:100940006053C4F202039B6803F00C03082BF6D13A
:0C09500007F10C07BD4680BC704700BFDB
:0400000508000000EF
:00000001FF
