:020000040800F2
:10000000EC08002049050008A1050008A10500082A
:10001000A1050008A1050008A105000800000000D6
:10002000000000000000000000000000A105000822
:10003000A105000800000000A1050008A1050008B6
:10004000A1050008A1050008A1050008A1050008F8
:10005000A1050008A1050008A1050008A1050008E8
:10006000A1050008A1050008A1050008A1050008D8
:10007000A1050008A1050008A1050008A1050008C8
:10008000A1050008A1050008A1050008A1050008B8
:10009000A1050008A1050008A1050008A1050008A8
:1000A000A1050008A1050008A1050008A105000898
:1000B000A1050008A1050008A1050008A105000888
:1000C000A1050008A1050008A1050008A105000878
:1000D000A1050008110E0008450E0008790E000861
:1000E000A1050008A1050008A1050008A105000858
:1000F000A1050008A1050008A1050008A105000848
:10010000A1050008A1050008A1050008A105000837
:10011000AD0E0008E10E0008A1050008A1050008C9
:10012000A1050008A1050008A1050008A105000817
:10013000A1050008A1050008A1050008A105000807
:10014000A1050008A1050008A1050008A1050008F7
:10015000A1050008A1050008A1050008150F000869
:10016000A1050008A1050008A1050008A1050008D7
:10017000A1050008A1050008A1050008A1050008C7
:10018000A1050008A105000880B58AB000AF78601D
:10019000396000237B6200233B620023FB61002364
:1001A000BB617B681B8A9BB27B627B6A23F44053F2
:1001B0007B623B68DB881A467B6A13437B627B6AFF
:1001C0009AB27B681A827B689B899BB27B627B6A4E
:1001D00023F4B05323F00C037B623B689A883B689E
:1001E0001B8913439AB23B685B8913439BB21A463F
:1001F0007B6A13437B627B6A9AB27B689A817B68D5
:100200009B8A9BB27B627B6A23F440737B623B6870
:100210009B891A467B6A13437B627B6A9AB27B682E
:100220009A8207F10803184600F0E6F97B68314A24
:10023000934203D07B68304A934202D17B693B6290
:1002400001E03B693B627B689B899BB29BB21BB21E
:10025000002B0CDA3A6A13469B0013449A001A44A6
:100260003B681B685B00B2FBF3F3FB610BE03A6A8F
:1002700013469B0013449A001A443B681B689B007A
:10028000B2FBF3F3FB61FB691C4AA2FB03235B098E
:100290001B017B627B6A1B09642202FB03F3FA6980
:1002A000D31ABB617B689B899BB29BB21BB2002BAC
:1002B0000CDABB69DB003233104AA2FB03235B0973
:1002C00003F007037A6A13437B620BE0BB691B01EF
:1002D00032330A4AA2FB03235B0903F00F037A6A55
:1002E00013437B627B6A9AB27B681A812837BD46CA
:1002F00080BD00BF00100140001401401F85EB517C
:1003000080B483B000AF78600B46FB70FB78002BA5
:1003100008D07B689B899BB243F400539AB27B68F8
:100320009A8107E07B689B899BB223F400539AB2C1
:100330007B689A810C37BD465DF8047B704700BF2F
:1003400080B483B000AF78600B46FB70FB78002B65
:100350000AD07B689B899BB26FEA43436FEA5343A1
:100360009AB27B689A8107E07B689B899BB2C3F352
:100370000E039AB27B689A810C37BD465DF8047B08
:10038000704700BF80B483B000AF78600B467B80BD
:100390007B88C3F308039AB27B689A800C37BD460A
:1003A0005DF8047B704700BF80B483B000AF786015
:1003B0007B689B889BB2C3F308039BB218460C373B
:1003C000BD465DF8047B704780B487B000AF7860AD
:1003D0000B467B8013467B7000233B610023FB6050
:1003E0000023BB6000237B617B687B617B88DBB281
:1003F0005B09DBB23B617B8803F01F03FB60FB689A
:10040000012202FA03F3BB603B69012B03D17B6934
:100410000C337B6109E03B69022B03D17B6910330C
:100420007B6102E07B6914337B617B78002B06D013
:100430007B697A691168BA680A431A6006E07B69C9
:100440007A691168BA68D2430A401A601C37BD46FF
:100450005DF8047B704700BF80B485B000AF786062
:100460000B467B800023FB737B681B889AB27B88DA
:1004700013409BB2002B02D00123FB7301E0002349
:10048000FB73FB7B18461437BD465DF8047B704751
:1004900080B487B000AF78600B467B800023FB60A0
:1004A00000237B610023BB600023FB747B88DBB2ED
:1004B0005B09DBB2BB607B8803F01F037B617B6958
:1004C000012202FA03F37B61BB68012B07D17B6831
:1004D0009B899BB21A467B6913407B6111E0BB6824
:1004E000022B07D17B681B8A9BB21A467B6913409B
:1004F0007B6106E07B689B8A9BB21A467B6913404E
:100500007B617B881B0A9BB2FB60FB68012202FABD
:1005100003F3FB607B681B889BB21A46FB681340A1
:10052000FB607B69002B05D0FB68002B02D0012308
:10053000FB7401E00023FB74FB7C18461C37BD46AE
:100540005DF8047B704700BF80B582B000AF0F4BF1
:100550007B600F4B3B6007E03B681A1D3A607A688E
:10056000111D796012681A603B680A4A9342F3D3FE
:1005700009480A494FF000028842B8BF40F8042BEE
:10058000FADB00F011F80837BD4680BD35130008CE
:10059000000000208000002080000020F0000020EB
:1005A00080B400AFFEE700BF80B58EB000AF00F0B2
:1005B000A1FD00F025F900200D49012200F0B0FA5C
:1005C00001200C49012200F0ABFA3B1D0020194626
:1005D00000F0EEFA034687F8373097F83730012BF2
:1005E00005D13B1D00201946012200F099FAECE7E5
:1005F000001300081C13000880B489B000AF7860B5
:100600000023BB6100237B610023FB6102233B616C
:100610000023FB600223BB60484B9B6803F00C0384
:10062000BB61BB69042B07D0082B09D0002B3FD13D
:100630007B68434A1A603FE07B68424A1A603BE0AD
:100640003E4B5B6803F480039B0DFB603B4B5B6898
:1006500003F03F03BB60FB68002B0DD0394ABB6839
:10066000B2FBF3F2354B596847F6C0730B409B0958
:1006700003FB02F3FB610CE0314ABB68B2FBF3F20F
:100680002E4B596847F6C0730B409B0903FB02F3DE
:10069000FB612A4B5B6803F440331B0C01335B00A6
:1006A0003B61FA693B69B2FBF3F27B681A6003E0D5
:1006B0007B68234A1A6000BF204B9B6803F0F0035D
:1006C000BB61BB691B09BB611F4ABB6913441B7833
:1006D000DBB27B617B681A687B69DA407B685A60B1
:1006E000164B9B6803F4E053BB61BB699B0ABB617B
:1006F000154ABB6913441B78DBB27B617B685A687F
:100700007B69DA407B689A600C4B9B6803F460431A
:10071000BB61BB695B0BBB610B4ABB6913441B78B4
:10072000DBB27B617B685A687B69DA407B68DA60A0
:100730002437BD465DF8047B704700BF0038024097
:100740000024F40000127A000000002080B483B07E
:1007500000AF78600B46FB70FB78002B06D0094990
:10076000084B1A6B7B6813430B6306E00549054B86
:100770001A6B7B68DB4313400B630C37BD465DF897
:10078000047B70470038024080B483B000AF7860CB
:100790000B46FB70FB78002B06D00949084B1A6CFE
:1007A0007B6813430B6406E00549054B1A6C7B68B4
:1007B000DB4313400B640C37BD465DF8047B704788
:1007C0000038024080B483B000AF78600B46FB7005
:1007D000FB78002B06D00949084B5A6C7B68134301
:1007E0004B6406E00549054B5A6C7B68DB431340BC
:1007F0004B640C37BD465DF8047B704700380240FF
:1008000090B589B000AF0023FB774DE1FA7FAA498C
:100810001346DB009B1ADB000B4420331B68184691
:100820000121FFF793FFFA7FA3491346DB009B1AD0
:10083000DB000B4430331B6818460121FFF786FFAD
:10084000FA7F9D491346DB009B1ADB000B440833FB
:100850005B689A4A93420BD0FA7F97491346DB00B4
:100860009B1ADB000B4408335B68954A93420CD11A
:10087000FA7F91491346DB009B1ADB000B445B684F
:1008800018460121FFF79EFF0BE0FA7F8A491346C5
:10089000DB009B1ADB000B445B6818460121FFF765
:1008A00073FFFA7F84491346DB009B1ADB000B447D
:1008B00018331868FA7F80491346DB009B1ADB0067
:1008C0000B4420331B799CB2FA7F7B491346DB0033
:1008D0009B1ADB000B4408331B7821461A4600F0B4
:1008E000C1FBFA7F74491346DB009B1ADB000B4403
:1008F00028331868FA7F70491346DB009B1ADB0027
:100900000B4430331B799CB2FA7F6B491346DB00F2
:100910009B1ADB000B4408331B7821461A4600F073
:10092000A1FB02233B7603237B760023BB760123C6
:10093000FB76FA7F60491346DB009B1ADB000B4411
:1009400018339B887B61FA7F5B491346DB009B1A57
:10095000DB000B4418331A6807F1140310461946DC
:1009600000F0F2FAFA7F54491346DB009B1ADB00D1
:100970000B4428339B887B61FA7F4F491346DB0089
:100980009B1ADB000B4428331A6807F11403104646
:10099000194600F0D9FAFA7F47491346DB009B1A43
:1009A000DB000B4408335B6818460121FFF7C8FCE5
:1009B000FA7F41491346DB009B1ADB000B441033DE
:1009C0001B687B6000233B8100237B810023BB816C
:1009D00000233B820C23FB81FA7F37491346DB005F
:1009E0009B1ADB000B4408335A683B1D104619461E
:1009F000FFF7CAFBFA7F30491346DB009B1ADB0086
:100A00000B4408335B6818460121FFF779FCFA7F35
:100A100029491346DB009B1ADB000B4408335B6853
:100A2000184640F225510122FFF7CEFCFA7F2249F9
:100A30001346DB009B1ADB000B4410331B793B7021
:100A400000237B700023BB700123FB703B461846DC
:100A500000F0F6FBFA7F1B491346DB009B1ADB0014
:100A60000B440D221A70FA7F16491346DB009B1ABD
:100A7000DB000B44303300225A80FA7F11491346C1
:100A8000DB009B1ADB000B44303300229A80FA7F94
:100A90000C491346DB009B1ADB000B443033002269
:100AA0009A71FB7F0133FB77FB7F012B7FF6AEAEA4
:100AB0002437BD4690BD00BF10000020001001404B
:100AC000001401408000002080B582B000AF0346D2
:100AD0000A46FB711346BB8000BFFA790F491346E3
:100AE000DB009B1ADB000B4408335B68184680214F
:100AF000FFF7B2FC0346002BEFD0FA790749134603
:100B0000DB009B1ADB000B4408335A68BB88104695
:100B10001946FFF737FC0837BD4680BD100000209E
:100B200080B582B000AF03463960FB711346BB71DC
:100B30000AE03B681B789BB2FA7910461946FFF72A
:100B4000C3FF3B6801333B603B681B78002BF0D14F
:100B5000BB79012B0AD1FB7918460A21FFF7B4FFB4
:100B6000FB7918460D21FFF7AFFF1EE0BB79022B82
:100B70000AD1FB7918460D21FFF7A6FFFB7918462D
:100B80000A21FFF7A1FF10E0BB79032B05D1FB7908
:100B900018460A21FFF798FF07E0BB79042B04D120
:100BA000FB7918460D21FFF78FFF0837BD4680BD42
:100BB00080B487B000AF03463960FB710023FB753A
:100BC000FA7952491346DB009B1ADB000B443033A1
:100BD0009B88BB82FA794D491346DB009B1ADB00E8
:100BE0000B4430335B88FB8100237B74BA8AFB891A
:100BF0009A426CD018E0FA79B98A44481346DB006F
:100C00009B1ADB000B4403441B787B737B7B0D2B0F
:100C100002D101237B740BE0BB8A0133BB82BB8A08
:100C2000312B01D90023BB82BA8AFB899A42E2D1D7
:100C30007B7C012B48D10123FB75FA79334913469C
:100C4000DB009B1ADB000B4430339B88BB82002304
:100C50007B8225E0FA79B98A2C481346DB009B1A7F
:100C6000DB000B4403441B787B73BB8A0133BB82DC
:100C7000BB8A312B01D90023BB827B7B1F2B0BD975
:100C80007B7B7E2B08D87B8A3A6813447A7B1A7068
:100C90007B8A01337B8203E07B7B0D2B00D103E059
:100CA000BA8AFB899A42D5D17B8A3A6813440022DA
:100CB0001A70FA7915491346DB009B1ADB000B44C6
:100CC0003033BA8A9A8019E00023FB7516E0FA796E
:100CD0000E491346DB009B1ADB000B4430339B7933
:100CE000022B0BD10223FB75FA7908491346DB006E
:100CF0009B1ADB000B44303300229A71FB7D1846AF
:100D00001C37BD465DF8047B704700BF80000020A3
:100D100090B484B000AF03460A46FB711346BB8013
:100D2000FA7925491346DB009B1ADB000B4430336C
:100D30005B88FB81FA79F989BB88DCB21E481346CF
:100D4000DB009B1ADB000B44034422461A70FB892C
:100D50000133FB81FB89312B01D90023FB81FA7917
:100D600015491346DB009B1ADB000B443033FA892C
:100D70005A80FA7910491346DB009B1ADB000B44BA
:100D800030335988FA790C481346DB009B1ADB0094
:100D9000034430339B88994209D1FA7906491346B6
:100DA000DB009B1ADB000B44303302229A711037B0
:100DB000BD4690BC704700BF8000002080B584B065
:100DC00000AF03460A46FB711346BB800023FB734A
:100DD00015E0FA7B0D491346DB009B1ADB000B4440
:100DE00010331B79FA799A4206D1FA7BBB881046F8
:100DF0001946FFF78DFF05E0FB7B0133FB73FB7B9F
:100E0000012BE6D91037BD4680BD00BF1000002081
:100E100080B582B000AF0A4840F22551FFF738FB99
:100E20000346012B09D10648FFF7BEFA0346FB80B3
:100E3000FB8825201946FFF7C1FF0837BD4680BD56
:100E40000010014080B582B000AF0A4840F2255141
:100E5000FFF71EFB0346012B09D10648FFF7A4FA52
:100E60000346FB80FB8826201946FFF7A7FF0837BB
:100E7000BD4680BD0044004080B582B000AF0A4846
:100E800040F22551FFF704FB0346012B09D1064828
:100E9000FFF78AFA0346FB80FB8827201946FFF7F5
:100EA0008DFF0837BD4680BD0048004080B582B048
:100EB00000AF0A4840F22551FFF7EAFA0346012B3A
:100EC00009D10648FFF770FA0346FB80FB883420FF
:100ED0001946FFF773FF0837BD4680BD004C004040
:100EE00080B582B000AF0A4840F22551FFF7D0FA32
:100EF0000346012B09D10648FFF756FA0346FB804B
:100F0000FB8835201946FFF759FF0837BD4680BDDD
:100F10000050004080B582B000AF0A4840F2255131
:100F2000FFF7B6FA0346012B09D10648FFF73CFA52
:100F30000346FB80FB8847201946FFF73FFF083731
:100F4000BD4680BD0014014080B487B000AF78601A
:100F5000396000237B6100233B610023FB60002399
:100F60007B6176E07B69012202FA03F33B613B6817
:100F70001A683B691340FB60FA683B699A4265D185
:100F80007B681A687B695B00194603238B40DB434F
:100F90001A407B681A607B681A683B681B7919469F
:100FA0007B695B0001FA03F31A437B681A603B68B4
:100FB0001B79012B03D03B681B79022B2ED17B6858
:100FC0009A687B695B00194603238B40DB431A4018
:100FD0007B689A607B689A683B685B7919467B6995
:100FE0005B0001FA03F31A437B689A607B685A68D6
:100FF0007B699BB2194601238B40DB431A407B6817
:101000005A607B685B683A68927911467A6992B255
:1010100001FA02F292B21A437B685A607B68DA687E
:101020007B699BB25B00032101FA03F3DB431A40A7
:101030007B68DA607B68DA683B68DB7919467B6934
:101040005B0001FA03F31A437B68DA607B690133C2
:101050007B617B690F2B85D91C37BD465DF8047B0E
:10106000704700BF80B485B000AF78600B467B80CE
:1010700013467B700023FB600023BB607B787A887B
:1010800002F0070292009340FB607B88DB089BB272
:1010900018467B88DB089BB21A467B68083253F8F7
:1010A00022207B8803F007039B0019460F238B4007
:1010B000DB4302EA03017B6800F1080243F82210D7
:1010C0007B88DB089BB21A467B68083253F82220E3
:1010D000FB681343BB607B88DB089BB21A467B68C6
:1010E0000832B96843F822101437BD465DF8047B16
:1010F000704700BF80B500AF114A114B1B6843F029
:10110000010313600E4B00229A600D4A0C4B1B68C2
:1011100023F0847323F480331360094B094A5A6027
:10112000074A074B1B6823F480231360044B0022FB
:10113000DA6000F00BF8044B4FF000629A6080BD5B
:10114000003802401030002400ED00E080B483B08D
:1011500000AF00237B6000233B60354A344B1B68A3
:1011600043F480331360324B1B6803F400333B605D
:101170007B6801337B603B68002B03D17B68B3F550
:10118000A06FF0D12A4B1B6803F40033002B02D070
:1011900001233B6001E000233B603B68012B42D10F
:1011A000234A234B1B6C43F080531364214A214B89
:1011B0001B6843F4804313601D4A1D4B9B6893607A
:1011C0001B4A1B4B9B6843F400439360184A184B1F
:1011D0009B6843F4A0539360154B174A5A60144A16
:1011E000134B1B6843F08073136000BF104B1B68E8
:1011F00003F00073002BF9D0104B40F205621A6027
:101200000B4A0B4B9B6823F003039360084A084B7F
:101210009B6843F00203936000BF054B9B6803F09B
:101220000C03082BF9D10C37BD465DF8047B7047E1
:10123000003802400070004008544007003C024063
:1012400080B485B000AF78600023FB730023BB73CC
:101250000F237B737B68DB78002B38D0264BDB6851
:10126000DB4303F4E0631B0AFB73FB7BC3F1040362
:10127000BB737A7BFB7B42FA03F37B737B685B78FF
:101280001A46BB7B02FA03F3FB737B689A787B7B7D
:101290001340DAB2FB7B1343FB73FB7B1B01FB7335
:1012A000164A7B681B781344FA7B83F80023134AA1
:1012B0007B681B785B09DBB218467B681B7803F000
:1012C0001F03012101FA03F342F820300FE00B491C
:1012D0007B681B785B09DBB218467B681B7803F0E0
:1012E0001F0301229A4000F1200341F82320143704
:1012F000BD465DF8047B704700ED00E000E100E0D2
:101300004869657220697374205541525432205BDC
:101310005041322C5041335D000000004869657235
:1013200020697374205541525433205B5044382C4B
:051330005044395D008E
:101335000000000001020304010203040607080976
:10134500000000000000020007000000004400400B
:1013550000C2010026000000000002400400000059
:10136500010000000200000000000240080000002B
:10137500010000000300000001000000000004005F
:10138500070000000048004000C2010027000000DF
:10139500000C0240000100000800000008000000E9
:1013A500000C0240000200000800000009000000D7
:0400000508000000EF
:00000001FF
