:020000040800F2
:100000005C0800203D020008A5020008A5020008C7
:10001000A5020008A5020008A502000800000000D3
:10002000000000000000000000000000A502000821
:10003000A502000800000000A5020008A5020008B3
:10004000A5020008A5020008A5020008A5020008F4
:10005000A5020008A5020008D9050008A5020008AD
:10006000A5020008A5020008A5020008A5020008D4
:10007000A5020008A5020008A5020008A5020008C4
:10008000A5020008A5020008A5020008A5020008B4
:10009000A5020008A5020008A5020008A5020008A4
:1000A000A5020008A5020008A5020008A502000894
:1000B000A5020008A5020008A5020008A502000884
:1000C000A5020008A5020008A5020008A502000874
:1000D000A5020008A5020008A5020008A502000864
:1000E000A5020008A5020008A5020008A502000854
:1000F000A5020008A5020008A5020008A502000844
:10010000A5020008A5020008A5020008A502000833
:10011000A5020008A5020008A5020008A502000823
:10012000A5020008A5020008A5020008A502000813
:10013000A5020008A5020008A5020008A502000803
:10014000A5020008A5020008A5020008A5020008F3
:10015000A5020008A5020008A5020008A5020008E3
:10016000A5020008A5020008A5020008A5020008D3
:10017000A5020008A5020008A5020008A5020008C3
:10018000A5020008A502000890B484B000AF0246A2
:100190000B46FA71BB714FF00003FB60BB7903F0B3
:1001A00003034FEA83034FF00F0202FA03F3FB60ED
:1001B0004FF46053C4F20103BA794FEA9202D2B20B
:1001C00010464FF46052C4F20102B9794FEA91012E
:1001D000C9B201F1020152F821201146FA686FEA12
:1001E0000202114000F1020243F822104FF4605362
:1001F000C4F20103BA794FEA9202D2B210464FF428
:100200006052C4F20102B9794FEA9101C9B201F119
:10021000020152F821201146FC79BA7902F003025A
:100220004FEA820204FA02F2114300F1020243F89B
:10023000221007F11007BD4690BC704780B582B010
:1002400000AF40F67C43C0F600037B6040F2000341
:10025000C2F200033B600BE07B681A683B681A60DF
:100260003B6803F104033B607B6803F104037B609C
:100270003A6840F26003C2F200039A42ECD30748A6
:1002800007494FF000028842B8BF40F8042BFADB60
:1002900000F0D2F807F10807BD4680BD60000020DD
:1002A0006000002080B400AFFEE700BF80B584B0DE
:1002B00000AF4FF00003FB7362E0F97B40F20002F5
:1002C000C2F200020B464FEA83035B184FEA830336
:1002D000D31803F10C031B6818464FF0010100F01E
:1002E000B5F8F97B40F20002C2F200020B464FEA79
:1002F00083035B184FEA8303D31803F108031B88B9
:100300007B604FF001033B724FF00003BB724FF074
:100310000103FB724FF002037B72F97B40F2000293
:10032000C2F200020B464FEA83035B184FEA8303D5
:10033000D31803F104031A6807F1040310461946A1
:1003400000F074F9F97B40F20002C2F200020B46A1
:100350004FEA83035B184FEA8303D31803F11003BA
:100360001B78002B04D1FB7B184600F011F803E04A
:10037000FB7B184600F036F8FB7B03F10103FB73AF
:10038000FB7B032B99D907F11007BD4680BD00BF49
:1003900080B483B000AF0346FB71F97940F20002EC
:1003A000C2F200020B464FEA83035B184FEA830355
:1003B000D31803F104031868F97940F20002C2F27D
:1003C00000020B464FEA83035B184FEA8303D318FE
:1003D00003F108031B88438307F10C07BD4680BC6B
:1003E000704700BF80B483B000AF0346FB71F9795A
:1003F00040F20002C2F200020B464FEA83035B1890
:100400004FEA8303D31803F104031868F97940F223
:100410000002C2F200020B464FEA83035B184FEA68
:100420008303D31803F108031B88038307F10C0728
:10043000BD4680BC704700BF80B500AF00F0BEF97C
:10044000FFF734FF00F05AF8FEE700BF80B483B036
:1004500000AF78600B46FB70FB78002B0DD04FF49B
:100460006053C4F202034FF46052C4F20202126BF2
:1004700011467A680A431A630EE04FF46053C4F2DF
:1004800002034FF46052C4F20202126B11467A6802
:100490006FEA02020A401A6307F10C07BD4680BCEE
:1004A000704700BF80B483B000AF78600B46FB702C
:1004B000FB78002B0DD04FF46053C4F202034FF4CD
:1004C0006052C4F20202526C11467A680A435A64BE
:1004D0000EE04FF46053C4F202034FF46052C4F2D2
:1004E0000202526C11467A686FEA02020A405A64AC
:1004F00007F10C07BD4680BC704700BF80B586B0D1
:1005000000AF40F25003C2F200039B6818464FF060
:100510000101FFF79BFF4FF000033B7540F25003D2
:10052000C2F200035B7BFB7540F25003C2F2000392
:100530009B883B6140F25003C2F200031A6807F146
:1005400010031046194600F071F84FF480404FF048
:100550000101FFF7A7FF40F25003C2F200031B7B2B
:1005600018464FF00001FFF70FFE4FF00103BB608C
:100570004FF000033B7340F25003C2F200039B7B39
:100580007B734FF00103BB7307F10803184600F0BB
:1005900023FA4FF006033B714FF001037B714FF0DC
:1005A0000103BB714FF00103FB7107F1040318460F
:1005B00000F0F2FA07F11807BD4680BD80B400AF25
:1005C000BD4680BC704700BF80B500AF4FF0000053
:1005D000FFF708FF80BD00BF80B582B000AF4FF0CD
:1005E000010000F09BFA0346002B1BD04FF00100E6
:1005F00000F0C2FA40F25003C2F200031A6840F25F
:100600005003C2F200039B881046194600F0B8F868
:1006100003467B607B68002B02D1FFF7CFFF01E030
:10062000FFF7D2FF07F10807BD4680BD80B487B051
:1006300000AF786039604FF000037B614FF000033A
:100640003B614FF00003FB604FF000037B618EE0E5
:100650007B694FF0010202FA03F33B613B681A68C1
:100660003B691340FB60FA683B699A427BD17B6827
:100670001B681A467B694FEA43034FF0030101FAF6
:1006800003F36FEA03031A407B681A607B681B68F8
:100690001A463B681B7919467B694FEA430301FA06
:1006A00003F31A437B681A603B681B79012B03D064
:1006B0003B681B79022B38D17B689B681A467B69A3
:1006C0004FEA43034FF0030101FA03F36FEA030318
:1006D0001A407B689A607B689B681A463B685B7926
:1006E00019467B694FEA430301FA03F31A437B6817
:1006F0009A607B685B681A467B699BB24FF0010188
:1007000001FA03F36FEA03031A407B685A607B68BF
:100710005B681A463B689B7919467B699BB201FA74
:1007200003F39BB21A437B685A607B68DB681A4606
:100730007B699BB24FEA43034FF0030101FA03F3D5
:100740006FEA03031A407B68DA607B68DB681A464D
:100750003B68DB7919467B694FEA430301FA03F3EF
:100760001A437B68DA607B6903F101037B617B6973
:100770000F2B7FF66DAF07F11C07BD4680BC70479D
:1007800080B485B000AF78600B467B804FF00003EB
:10079000FB737B681B691A467B881340002B03D0D0
:1007A0004FF00103FB7302E04FF00003FB73FB7B90
:1007B000184607F11407BD4680BC704780B500AFEE
:1007C0004FF46053C4F202034FF46052C4F20202C9
:1007D000126842F001021A604FF46053C4F202033F
:1007E0004FF000029A604FF46053C4F202034FF4DA
:1007F0006052C4F20202126822F0847222F4803243
:100800001A604FF46053C4F2020343F21002C2F2C2
:1008100000425A604FF46053C4F202034FF4605236
:10082000C4F20202126822F480221A604FF460536C
:10083000C4F202034FF00002DA6000F009F84FF44E
:100840006D43CEF200034FF000629A6080BD00BF9E
:1008500080B483B000AF4FF000037B604FF0000323
:100860003B604FF46053C4F202034FF46052C4F291
:100870000202126842F480321A604FF46053C4F2EC
:1008800002031B6803F400333B607B6803F1010340
:100890007B603B68002B03D17B68B3F5A06FECD184
:1008A0004FF46053C4F202031B6803F40033002BBF
:1008B00003D04FF001033B6002E04FF000033B60C8
:1008C0003B68012B40F082804FF46053C4F2020376
:1008D0004FF46052C4F20202126C42F080521A6469
:1008E0004FF4E043C4F200034FF4E042C4F20002CC
:1008F000126842F480421A604FF46053C4F202035B
:100900004FF46052C4F2020292689A604FF460534E
:10091000C4F202034FF46052C4F20202926842F43D
:1009200000429A604FF46053C4F202034FF46052E5
:10093000C4F20202926842F4A0529A604FF46053EB
:10094000C4F2020345F20842C0F240725A604FF40A
:100950006053C4F202034FF46052C4F20202126800
:1009600042F080721A6000BF4FF46053C4F2020379
:100970001B6803F00073002BF6D04FF47053C4F2E1
:10098000020340F205621A604FF46053C4F202039E
:100990004FF46052C4F20202926822F003029A609D
:1009A0004FF46053C4F202034FF46052C4F20202E7
:1009B000926842F002029A6000BF4FF46053C4F2A2
:1009C00002039B6803F00C03082BF6D107F10C0718
:1009D000BD4680BC704700BF80B485B000AF786072
:1009E0004FF00003FB604FF47053C4F20103FB604F
:1009F0007B689B79002B7ED04FF47053C4F20103C7
:100A00004FF47052C4F20102126811467A681268FB
:100A10006FEA02020A401A604FF47053C4F20103F5
:100A20004FF47052C4F20102526811467A6812689B
:100A30006FEA02020A405A607B681B79FA68D31891
:100A4000FB60FB68FA6811687A6812680A431A60EA
:100A50004FF47053C4F201034FF47052C4F2010218
:100A6000926811467A6812686FEA02020A409A6038
:100A70004FF47053C4F201034FF47052C4F20102F8
:100A8000D26811467A6812686FEA02020A40DA6098
:100A90007B685B79102B1CD14FF47053C4F20103B7
:100AA0004FF47052C4F20102926811467A681268DB
:100AB0000A439A604FF47053C4F201034FF470522A
:100AC000C4F20102D26811467A6812680A43DA60F9
:100AD0001FE04FF47053C4F20103FB607B685B7945
:100AE000FA68D318FB60FB68FA6811687A681268C4
:100AF0000A431A600DE07B681B79FA68D318FB6023
:100B0000FB68FA6811687A6812686FEA02020A40A4
:100B10001A6007F11407BD4680BC704780B485B0E9
:100B200000AF78604FF00003FB734FF00003BB6031
:100B30004FF47053C4F201031B681A467B681340DC
:100B4000BB604FF47053C4F201035B691A467B68C3
:100B50001340002B06D0BB68002B03D04FF00103DD
:100B6000FB7302E04FF00003FB73FB7B184607F1B9
:100B70001407BD4680BC704780B483B000AF786076
:100B80004FF47053C4F201037A685A6107F10C07FD
:100B9000BD4680BC704700BF80B485B000AF7860B0
:100BA0004FF00003FB734FF00003BB734FF00F03D4
:100BB0007B737B68DB78002B45D04FF46D43CEF21E
:100BC0000003DB686FEA030303F4E0634FEA1323D7
:100BD000FB73FB7BC3F10403BB737A7BFB7B42FAA1
:100BE00003F37B737B685B781A46BB7B02FA03F3E3
:100BF000FB737B689A787B7B1340DAB2FB7B1343F1
:100C0000FB73FB7B4FEA0313FB734FF46143CEF29C
:100C100000037A6812789B18FA7B83F800234FF45C
:100C20006143CEF200037A6812784FEA5212D2B2D0
:100C30007968097801F01F014FF0010000FA01F115
:100C400043F8221014E04FF46143CEF200037A68B7
:100C500012784FEA5212D2B27968097801F01F0176
:100C60004FF0010000FA01F102F1200243F82210D6
:0C0C700007F11407BD4680BC704700BFB0
:100C7C0000000000000C0240001000000800000002
:100C8C000000000001000000000C024000200000E9
:100C9C00080000000000000002000000000C0240F0
:100CAC0000400000080000000000000003000000ED
:100CBC00000C024000800000080000000000000052
:100CCC0000000240010000000100000000000800CC
:0400000508000000EF
:00000001FF
