:020000040800F2
:100000005408002089010008F5010008F5010008E6
:10001000F5010008F5010008F501000800000000E6
:10002000000000000000000000000000F5010008D2
:10003000F501000800000000F5010008F5010008C6
:10004000F5010008F5010008F5010008F5010008B8
:10005000F5010008F5010008F5010008F5010008A8
:10006000F5010008F5010008F5010008F501000898
:10007000F5010008F5010008F5010008F501000888
:10008000F5010008F5010008F5010008F501000878
:10009000F5010008F5010008F5010008F501000868
:1000A000F5010008F5010008F5010008F501000858
:1000B000090A0008F5010008F5010008F50100082B
:1000C000F5010008F5010008F5010008F501000838
:1000D000F5010008F5010008F5010008F501000828
:1000E000F5010008F5010008F5010008F501000818
:1000F000F5010008F5010008F5010008F501000808
:10010000F5010008F5010008F5010008F5010008F7
:10011000F5010008F5010008F5010008F5010008E7
:10012000F5010008F5010008F5010008F5010008D7
:10013000F5010008F5010008F5010008F5010008C7
:10014000F5010008F5010008F5010008F5010008B7
:10015000F5010008F5010008F5010008F5010008A7
:10016000F5010008F5010008F5010008F501000897
:10017000F5010008F5010008F5010008F501000887
:10018000F5010008F501000880B582B000AF40F627
:100190008043C0F600037B6040F20003C2F200031C
:1001A0003B600BE07B681A683B681A603B6803F1B0
:1001B00004033B607B6803F104037B603A6840F210
:1001C0005003C2F200039A42ECD3084808494FF0AA
:1001D00000028842B8BF40F8042BFFF6FAAF00F0E7
:1001E0000DF907F10807BD4680BD00005000002052
:1001F0005400002080B400AFFEE700BF80B584B09B
:1002000000AF4FF00003FB7362E0F97B40F20002A5
:10021000C2F200020B464FEA83035B184FEA8303E6
:10022000D31803F10C031B6818464FF0010100F0CE
:10023000FDF8F97B40F20002C2F200020B464FEAE1
:1002400083035B184FEA8303D31803F108031B8869
:100250007B604FF001033B724FF00003BB724FF025
:100260000103FB724FF002037B72F97B40F2000244
:10027000C2F200020B464FEA83035B184FEA830386
:10028000D31803F104031A6807F104031046194652
:1002900000F020F9F97B40F20002C2F200020B46A6
:1002A0004FEA83035B184FEA8303D31803F110036B
:1002B0001B78002B04D1FB7B184600F011F803E0FB
:1002C000FB7B184600F036F8FB7B03F10103FB7360
:1002D000FB7B032B99D907F11007BD4680BD00BFFA
:1002E00080B483B000AF0346FB71F97940F200029D
:1002F000C2F200020B464FEA83035B184FEA830306
:10030000D31803F104031868F97940F20002C2F22D
:1003100000020B464FEA83035B184FEA8303D318AE
:1003200003F108031B88438307F10C07BD4680BC1B
:10033000704700BF80B483B000AF0346FB71F9790A
:1003400040F20002C2F200020B464FEA83035B1840
:100350004FEA8303D31803F104031868F97940F2D4
:100360000002C2F200020B464FEA83035B184FEA19
:100370008303D31803F108031B88038307F10C07D9
:10038000BD4680BC704700BF90B482B000AF03464A
:10039000FB71F97940F20002C2F200020B464FEA0B
:1003A00083035B184FEA8303D31803F1040318682F
:1003B000F97940F20002C2F200020B464FEA8303D1
:1003C0005B184FEA8303D31803F104031B685C69CD
:1003D000F97940F20002C2F200020B464FEA8303B1
:1003E0005B184FEA8303D31803F108031B886340AB
:1003F000436107F10807BD4690BC704780B500AF68
:1004000000F00AF9FFF7FAFE42F2CF0042F20F7154
:1004100000F082FA00F09AFAFEE700BF80B500AF64
:100420004FF00000FFF7B0FF80BD00BF80B483B085
:1004300000AF78600B46FB70FB78002B0CD04FF4BC
:100440006053C4F202034FF46052C4F20202116B13
:100450007A680A431A630DE04FF46053C4F2020352
:100460004FF46052C4F20202116B7A686FEA020222
:100470000A401A6307F10C07BD4680BC704700BFF5
:1004800080B483B000AF78600B46FB70FB78002B24
:100490000CD04FF46053C4F202034FF46052C4F224
:1004A0000202116C7A680A431A640DE04FF460533B
:1004B000C4F202034FF46052C4F20202116C7A6873
:1004C0006FEA02020A401A6407F10C07BD4680BCBD
:1004D000704700BF80B487B000AF786039604FF0DC
:1004E00000037B614FF000033B614FF00003FB60B2
:1004F0004FF000037B6186E07B694FF0010202FA56
:1005000003F33B613B681A683B691340FB60FA6880
:100510003B699A4273D17B681A687B694FEA43034F
:100520004FF0030101FA03F36FEA03031A407B68FB
:100530001A607B681A683B681B7919467B694FEA29
:10054000430301FA03F31A437B681A603B681B7983
:10055000012B03D03B681B79022B34D17B689A684E
:100560007B694FEA43034FF0030101FA03F36FEA9B
:1005700003031A407B689A607B689A683B685B79E2
:1005800019467B694FEA430301FA03F31A437B6878
:100590009A607B685A687B699BB24FF0010101FA4F
:1005A00003F36FEA03031A407B685A607B685A685A
:1005B0003B689B7919467B699BB201FA03F39BB2B6
:1005C0001A437B685A607B68DA687B699BB24FEAA2
:1005D00043034FF0030101FA03F36FEA03031A40E8
:1005E0007B68DA607B68DA683B68DB7919467B698F
:1005F0004FEA430301FA03F31A437B68DA607B692D
:1006000003F101037B617B690F2B7FF675AF07F167
:100610001C07BD4680BC704780B500AF4FF46053E7
:10062000C4F202034FF46052C4F20202126842F0B4
:1006300001021A604FF46053C4F202034FF000024B
:100640009A604FF46053C4F202034FF46052C4F254
:100650000202126822F0847222F480321A604FF48F
:100660006053C4F2020343F21002C2F200425A6025
:100670004FF46053C4F202034FF46052C4F202021A
:10068000126822F480221A604FF46053C4F202030D
:100690004FF00002DA6000F009F84FF46D43CEF23B
:1006A00000034FF000629A6080BD00BF80B483B049
:1006B00000AF4FF000037B604FF000033B604FF44E
:1006C0006053C4F202034FF46052C4F20202126893
:1006D00042F480321A604FF46053C4F202031B6884
:1006E00003F400333B607B6803F101037B603B68EC
:1006F000002B03D17B68B3F5A06FECD14FF46053AE
:10070000C4F202031B6803F40033002B03D04FF044
:1007100001033B6002E04FF000033B603B68012BAC
:1007200040F082804FF46053C4F202034FF46052F1
:10073000C4F20202126C42F080521A644FF4E04399
:10074000C4F200034FF4E042C4F20002126842F423
:1007500080421A604FF46053C4F202034FF46052B7
:10076000C4F2020292689A604FF46053C4F202032A
:100770004FF46052C4F20202926842F400429A605E
:100780004FF46053C4F202034FF46052C4F2020209
:10079000926842F4A0529A604FF46053C4F202038C
:1007A00045F20842C0F240725A604FF46053C4F2FE
:1007B00002034FF46052C4F20202126842F08072E7
:1007C0001A6000BF4FF46053C4F202031B6803F0C9
:1007D0000073002BF6D04FF47053C4F2020340F2C2
:1007E00005621A604FF46053C4F202034FF4605282
:1007F000C4F20202926822F003029A604FF460533E
:10080000C4F202034FF46052C4F20202926842F052
:1008100002029A6000BF4FF46053C4F202039B6867
:1008200003F00C03082BF6D107F10C07BD4680BC82
:10083000704700BF80B485B000AF78604FF0000310
:10084000FB734FF00003BB734FF00F037B737B68A8
:10085000DB78002B45D04FF46D43CEF20003DB680C
:100860006FEA030303F4E0634FEA1323FB73FB7B9C
:10087000C3F10403BB737A7BFB7B42FA03F37B7304
:100880007B685B781A46BB7B02FA03F3FB737B68D9
:100890009A787B7B1340DAB2FB7B1343FB73FB7BC1
:1008A0004FEA0313FB734FF46143CEF200037A68FF
:1008B00012789B18FA7B83F800234FF46143CEF241
:1008C00000037A6812784FEA5212D2B27968097836
:1008D00001F01F014FF0010000FA01F143F822106E
:1008E00014E04FF46143CEF200037A6812784FEAC5
:1008F0005212D2B27968097801F01F014FF001005D
:1009000000FA01F102F1200243F8221007F1140766
:10091000BD4680BC704700BF80B582B000AF0246C4
:100920000B46FA80BB8040F25003C2F200034FF046
:1009300000021A60FA88BB881046194600F016F8C3
:1009400000F042F807F10807BD4680BD80B500AF52
:100950004FF080404FF0010100F00CF940F25003DD
:10096000C2F200034FF001021A6080BD80B586B06C
:1009700000AF02460B46FA80BB804FF001004FF0FB
:100980000101FFF77DFD4FF080404FF0000100F0C6
:10099000F1F8BB883B61FB88BB814FF00003BB8251
:1009A0004FF00003FB8107F10C034FF08040194624
:1009B00000F046F84FF080404FF0010100F0BAF827
:1009C00007F11807BD4680BD80B582B000AF4FF07B
:1009D00080404FF001014FF0010200F0EBF84FF0C2
:1009E0001C033B714FF000037B714FF00003BB71A0
:1009F0004FF00103FB7107F104031846FFF71AFFDC
:100A000007F10807BD4680BD80B500AF4FF08040BC
:100A10004FF0010100F0F2F80346002B0ED04FF02A
:100A200080404FF0010100F019F940F25003C2F28A
:100A300000031B68002B01D0FFF7F0FC80BD00BF56
:100A400080B485B000AF786039604FF00003FB815F
:100A50007B681B88FB817A684FF00003C4F20103B6
:100A60009A421FD07A684FF48063C4F201039A421D
:100A700018D07B68B3F1804F14D07A684FF480634C
:100A8000C4F200039A420DD07A684FF40063C4F2B6
:100A900000039A4206D07A684FF44063C4F2000320
:100AA0009A4208D1FB8923F07003FB813B685A8886
:100AB000FB891343FB817A684FF48053C4F200032F
:100AC0009A420FD07A684FF4A053C4F200039A42BE
:100AD00008D0FB8923F44073FB813B681A89FB89AA
:100AE0001343FB817B68FA891A803B685A687B68EC
:100AF000DA623B681A887B681A857A684FF00003CF
:100B0000C4F201039A4206D07A684FF48063C4F2BB
:100B100001039A4204D13B689B7A1A467B681A8685
:100B20007B684FF001029A8207F11407BD4680BC32
:100B3000704700BF80B483B000AF78600B46FB7095
:100B4000FB78002B08D07B681B889BB243F08003A6
:100B50009AB27B681A8007E07B681B889BB223F0FF
:100B600080039AB27B681A8007F10C07BD4680BCEF
:100B7000704700BF80B483B000AF78600B46FB7055
:100B8000FB78002B08D07B681B889BB243F00103E5
:100B90009AB27B681A8007E07B681B889BB223F0BF
:100BA00001039AB27B681A8007F10C07BD4680BC2E
:100BB000704700BF80B483B000AF786013460A4628
:100BC0007A807B707B78002B08D07B689B899AB2F7
:100BD0007B8813439AB27B689A810AE07B689B8981
:100BE0009AB27B886FEA03039BB213409AB27B6888
:100BF0009A8107F10C07BD4680BC704780B485B070
:100C000000AF78600B467B804FF00003FB734FF022
:100C10000003BB814FF000037B817B681B8A9AB283
:100C20007B881340BB817B689B899AB27B88134089
:100C30007B81BB89002B06D07B89002B03D04FF032
:100C40000103FB7302E04FF00003FB73FB7B1846CC
:100C500007F11407BD4680BC704700BF80B483B065
:100C600000AF78600B467B807B886FEA03039AB203
:100C70007B681A8207F10C07BD4680BC704700BF35
:100C800000000000000C02400010000008000000FE
:100C90000000000001000000000C024000200000E5
:100CA000080000000000000002000000000C0240EC
:100CB00000400000080000000000000003000000E9
:100CC000000C02400080000008000000000000004E
:0400000508000000EF
:00000001FF
