:1040000000800020F1C100005DC1000061C100001E
:1040100000000000000000000000000000000000A0
:1040200000000000000000000000000065C100006A
:10403000000000000000000069C10000DD800000F9
:1040400071C1000075C1000079C100007DC1000090
:1040500081C10000619D000089C100008DC1000088
:1040600091C10000CD9D000099C100009DC10000DC
:10407000A1C10000A5C10000A9C100002D7F000062
:10408000B1C10000B5C10000B9C10000BDC1000050
:10409000C1C10000C5C10000C9C10000CDC1000000
:1040A000D1C10000D5C10000FD410000DDC100000C
:1040B000E1C10000E5C10000E9C10000EDC1000060
:0840C000FFFFFFFFFFFFFFFF00
:1040C80062B6704772B6704710B53F4A0423136151
:1040D8003E498D239B01CB6080231B0493603A4BA0
:1040E8000122596B1142FAD039493A489962DA6289
:1040F800394A00215A64394A9A64012252421A61A3
:1041080007F0ECFB3348012107F030FCE220000106
:1041180007F0EEF9012007F09BF92B4C8022236C65
:104128001342FAD02B4B042019690A431A6107F08D
:104138003BFA002007F0DEFA636B5A060BD42848D6
:1041480007F0DEF9012007F091F91F4B4022596B67
:104158001142FAD0DA63032007F022FE00F026F9B4
:1041680000F0D2F906F0D0F91E4A8023DB04D367A9
:104178001D49C02252008B500B6000F0A3F804F0D8
:104188001FF803F043FE05F0BBFD00F0ABF8174C39
:10419800207803F063FFE07803F04CFF04F09CFC08
:1041A80005F06CFD05F096FE01F0F2F904F01AF83E
:1041B80003F0E4F804F0D0FC04F026F80C4B1B786C
:1041C800002BF5D0002010BD000002400000034085
:1041D8002C080000000001400000DCAC0000C5A372
:1041E800280E000004E100E000E100E008000020E3
:1041F8005C09002008B506F057FB08BD00B5042887
:1042080012D80A4B8000C3589F4680235B0001E008
:1042180080239B00064AD36206E0042202E00222C1
:1042280000E00122034BDA6200BDC04620DB00003B
:10423800001005400000054000B5042812D80A4BBC
:104248008000C3589F4680235B0001E080239B00C9
:10425800064A136306E0042202E0022200E001227B
:10426800034B1A6300BDC04634DB00000010054054
:104278000000054000B5042803D80E4B8000C35841
:104288009F46002014E00C4B586BC00502E00A4B17
:10429800586B8005C00F0BE0084B586B4007F9E7D7
:1042A800064B586B8007F5E7044B586B0123184001
:1042B80000BDC04648DB0000001005400000054076
:1042C8007047C04662B6704772B6704700B500289E
:1042D80001D0002003E0024B986BC002C00F00BD64
:1042E8000010054000B5124B83B01B78002B1CD082
:1042F800104B8022DA6240221A63002301E0019BFE
:1043080001330193019A0C4B9A42F8D9094B802248
:104318001A634022DA62002301E0019B0133019312
:10432800019A054B9A42E3D8F7E703B000BDC046AF
:1043380060080020001005409F86010008B500288D
:1043480002D1C90804F0C8F808BDC04608B500285D
:1043580002D007F0C3FD01E007F0C8FD08BDC04664
:1043680008B501280FD0002805D0022810D003284E
:1043780012D0002014E0002005F0B6FC094B83425F
:10438800804140420CE0084B9B6B5B09184007E0FA
:10439800054B986BC00602E0034B986B0007C00FF3
:1043A80008BDC046FF0300000000054030B5324B91
:1043B800324901225A609A60D961314983B0196241
:1043C800202119638021C900D9622E4938238B60C6
:1043D8002D4B01205A609A60E02252031A622B4A40
:1043E800DA61C0221201DA62C02292001A63C02385
:1043F8001B048B610122152107F00EFC002100220D
:1044080000231D480424C46201240463002001E041
:10441800019801300190019C1D488442F8D9164842
:10442800846BA50603D5806B040700D401331248BA
:104438000124C46204240463002001E001980130CF
:104448000190019C12488442F8D90B48846BA50658
:1044580003D4806B040700D5013201310A29D0D179
:104468000A2A03D10A2B01D1012200E00022094BBC
:1044780003B01A7030BDC0460000054007040000B4
:10448800380000C00080054000100540E00F4000E3
:10449800E70300006008002000B5012808D00028C4
:1044A80003D002280BD0002025E080231B0101E067
:1044B8008023DB0010480363104B996006E08023DB
:1044C8000F48DB0003630F4B996004E00B4BD9687E
:1044D800C806FBD403E00B4BD968C806FBD4986820
:1044E800C0B2002A07D0064A8023DB00D362C0236B
:1044F800014A1B01D36200BD0010054000100940AD
:10450800000005400000094008B5002007210122ED
:1045180007F082FB00200821012207F07DFB002024
:104528000921012207F078FB01200E21032207F060
:1045380073FB01200D21032207F06EFB01200C21E3
:10454800032207F069FB0A4A8023DB00D362094A89
:10455800C0231B01D362084B0222C721082019601F
:104568005A601861054B19605A6028221A6108BD03
:1045780000000540001005400000094000100940F7
:10458800F0B585B0041C0D1C171C002949D0002863
:1045980047D0A14245D05601F6B206233343191C31
:1045A8000020019305F074F90C2131430390002099
:1045B80005F06EF90290201C08F076FB041C281CFC
:1045C80008F072FB011C201C07F0AEFF041C0398C6
:1045D80008F06AFB211C07F0A7FF07F08DFF061CF7
:1045E800029808F061FB211C07F09EFF07F084FF8A
:1045F800051C002E00D10126002D00D10125201C0C
:10460800094907F051FF002803D0381C291C05F080
:10461800A7FA321C0020019905F0C8F9034B0122C2
:10462800DA5505B0F0BDC0460000A0415800002092
:10463800F8B50C4F041C3B5C002B11D0C6B2062306
:1046480071011943084B8500EA58C9B2002005F0EA
:10465800BDF9064B301CE95805F082FA00233B559A
:10466800F8BDC0465800002008080020FC030020C0
:1046780070B5B54A82B053789278191C6031C9B2C6
:10468800182902D8002A03D0B8E1022A00D9B5E1D6
:10469800A42B00D168E2A42B67D8842B00D1E0E0DA
:1046A800842B2DD8062B00D128E1062B12D8022BFB
:1046B80000D1D6E0022B06D8002B00D1BFE0012B99
:1046C80000D002E3BFE0042B00D1EEE0042B00D9B8
:1046D80004E1E5E0802B00D1B1E0802B09D80C2B58
:1046E80000D11BE10D2B00D138E1072B00D0ECE203
:1046F8000CE1822B00D146E1822B00D9D5E0A2E063
:10470800942B00D10AE1942B18D88A2B00D14DE1C3
:104718008A2B09D8862B00D1E0E0862B00D2BFE097
:10472800872B00D0D1E23CE18D2B00D168E1932B9F
:1047380000D113E18C2B00D0C7E24DE1A02B00D1B2
:10474800FCE1A02B09D8992B00D17EE19A2B00D14E
:104758008DE1952B00D0B8E257E1A22B00D1F8E10A
:10476800794CA22B00D9FAE1EEE1B32B00D156E245
:10477800B32B2DD8AB2B00D11EE2AB2B13D8A72B14
:1047880000D103E2A72B06D8A52B00D1F2E1A62B76
:1047980000D09AE2F4E1A92B00D102E26A4CA92BDD
:1047A80000D904E2F8E1AF2B00D122E2AF2B07D801
:1047B800AD2B00D111E2644CAD2B00D913E201E21C
:1047C800B12B00D120E2604CB12B00D922E216E2D5
:1047D800C32B00D175E1C32B18D8B82B00D148E200
:1047E800B82B09D8B62B00D12AE2B62B00D938E26B
:1047F800B52B00D069E218E2C12B00D150E1C12BE2
:1048080000D954E1C02B00D05FE27FE0D22B00D169
:1048180044E2D22B09D8CC2B00D15DE1D12B00D1B9
:104828002DE2C72B00D050E268E0D62B00D169E119
:10483800FE2B00D171E1D42B00D046E257E1424B68
:104848009978490104E0404B0222997849011143C3
:104858005A68D87812020243C9B2002005F0A6F8B7
:1048680036E2394C0823A178626849011943E37894
:1048780012021A43C9B2002005F0A8F8A17806234D
:10488800626849011943E37812021A43D317D21810
:10489800C9B25A40002005F099F8A37801211AE01E
:1048A800294B0A229978490171E0274C0623A178FF
:1048B800626849011943E37812021A43C9B2002019
:1048C80005F084F86068E278A378000210431F4A74
:1048D8009900885000211E4AD154F9E11A4C6168A8
:1048E800E37809021943A07805F03AF96068E2789C
:1048F800A378000210439900164AEAE7124B1649BA
:104908009A78DB7852018A185372E1E10E4B12490A
:104918009A78DB7852018A189372D9E10A4C1423E9
:10492800A17801AD49011943C9B22A1C002004F03D
:10493800DFFF6168E27809026B78114301D0022237
:1049480075E0022276E0C046D00200200808002068
:1049580058000020FC030020BC080020CC4C142385
:10496800A17801AD49011943C9B22A1C002004F0FD
:10497800BFFF6168E27809026B78114301D0012218
:1049880055E0012256E0C24B0422997849011143AF
:104998005A68D87812020243C9B2002005F016F806
:1049A80096E1BB4B0E2299784901F0E7B84C1426E2
:1049B800A17801AD49013143C9B22A1C002004F095
:1049C80097FFE3780020AB70A1782A1C49010E43B9
:1049D800F1B205F03DF87BE1AD4CA378002B0DD189
:1049E800E3780821C91AC9B2002003F0FFFFA378B1
:1049F800A84A5B01D318E278DA7269E1042265E11A
:104A0800A34B1A2299784901C1E7A14C1423A17834
:104A180001AD49011943C9B22A1C002004F068FFFE
:104A28006168E27809026B78114302D004221343CB
:104A380001E0042293436B70954B0020997814236E
:104A480049011943C9B201AAC3E7914D1826A978AB
:104A580001AC49013143C9B2221C002004F048FFCF
:104A680061780F23EA7899431A400B1C0FE0884DB0
:104A78001826A97801AC49013143C9B2221C00208B
:104A880004F036FFEA7861780F2312010B401343D4
:104A98006370A978002049010E43F1B2221C98E7FF
:104AA8007B4B9A78D978520108327A4B14E7784BC5
:104AB80059689A78D8780902764B52010143D15047
:104AC80006E1734B73499A7852015218D9785B689A
:104AD8001B020B435360FBE06D4B99785A68D878FA
:104AE8006C4B4901120202435B18DA81F0E0684B13
:104AF80068499A7852018A18D9785B681B020B4377
:104B08005361E5E0624B63499A7852015218D978AB
:104B18005B681B020B439383DAE05D4B5D4A586880
:104B2800D97800029B78014304D05B019A180123CD
:104B38001373CDE05B019A181173C9E0544B987850
:104B4800D97803F045FFC3E0A078E17803F036FF99
:104B5800BEE04F4B9878D97803F02CFEB8E0A078E7
:104B6800E17803F01DFEB3E0494B9878D97803F05B
:104B780003FEADE0464B9878D97803F0F3FDA7E043
:104B8800434B9878D97803F0E3FDA1E0404B98783F
:104B9800D97803F0D3FD9BE0A078E17803F040FDDD
:104BA80096E03B4B9878D97803F02EFD90E0A078FA
:104BB800E17803F01DFD8BE0354B9878D97803F048
:104BC8000BFD85E0E178A07803F0FAFCA378324980
:104BD800DB00E2785B185A717AE02D4B9878D97827
:104BE80003F092FC74E0A0780321615603F080FC86
:104BF8006EE0274B9878D97803F094FE68E0A078A7
:104C0800E17803F083FE63E0214B9878D97803F0CC
:104C180071FE5DE0A078E17803F060FE58E01C4B7F
:104C28009878D97803F042FE52E0194B19499A78DE
:104C380052015218D9785B681B020B43936147E015
:104C4800134BDA7898785B68C1001B021343124A49
:104C58008B50002B3CD1104BCB18597903F0B0FC8A
:104C680036E00B4B0C499878DA78C00043181A7173
:104C78002EE0074B9878D97803F088FD28E0044B9C
:104C88005968DA7809029878114305F003F91FE0AA
:104C9800D0020020BC080020300800200D4C0E4A2D
:104CA800A0786568E37841012D021D4310318D50CD
:104CB8001F21194005F0B0F86168E378090219432B
:104CC800A078491105F09EF802E00322034B1A7000
:104CD80002B070BDD0020020BC080020F003002004
:104CE80030B5AB4A83B053789278191C6031C9B299
:104CF800182902D8002A06D001E0022A03D9A54BB8
:104D080004221A7005E3A32B00D159E2A14DA32B6D
:104D180000D984E0832B00D121E1832B39D8082BDB
:104D280000D13FE1082B18D8032B00D10DE1032B4C
:104D380006D8012B00D1F8E0012B00D900E1F0E002
:104D4800052B00D110E1052B00D208E1062B00D17C
:104D58000FE1072B00D0C7E212E10C2B00D12BE1A9
:104D68000C2B06D80A2B00D15AE10A2B00D946E1B0
:104D78003FE1802B00D1D4E0802B03D80D2B00D04D
:104D8800B2E228E1812B00D1CFE0822B00D0ABE248
:104D980054E1942B00D10FE1942B1BD8872B00D121
:104DA80051E1872B06D8852B00D1CEE0852B00D981
:104DB800DAE0C5E08C2B00D157E18C2B03D88A2B85
:104DC80000D091E244E18D2B00D15AE1932B00D021
:104DD8008AE200E19C2B00D122E19C2B0FD8992B71
:104DE80000D169E1992B03D8952B00D07CE252E1E0
:104DF8009A2B00D16FE19B2B00D075E2FFE0A02B2E
:104E080000D1CEE1A02B03D89D2B00D06CE2C9E0E5
:104E1800A12B00D1CAE1A22B00D065E2CBE1B52BD2
:104E280000D126E2B52B38D8AC2B00D1F3E1AC2B5E
:104E380019D8A72B00D1D5E1A72B07D8A52B00D1CE
:104E4800C7E1534AA52B00D9C8E1BEE1A92B00D17F
:104E5800D2E1A92B00D2CAE1AA2B00D1D1E1AB2B18
:104E680000D041E2D2E1B02B00D1E9E1B02B07D864
:104E7800AE2B00D1DAE1464AAE2B00D9DCE1D1E114
:104E8800B22B00D1E6E1B22B00D2DEE1B32B00D188
:104E9800E5E1B42B00D027E2E6E1C72B69D0C72BA8
:104EA8001AD8C02B6CD0C02B09D8B72B00D1ECE195
:104EB800B72B00D2E4E1B82B00D015E2EDE1C22B0C
:104EC80000D11CE1C22B00D213E1C32B00D11BE19E
:104ED800C42B00D008E21EE1D12B00D1E4E1D12B94
:104EE8000FD8CE2B00D122E1CE2B03D8CC2B00D06B
:104EF800FAE115E1CF2B00D11FE1D02B00D0F3E16F
:104F080036E1D42B00D137E1D42B03D8D22B00D0F3
:104F1800EAE1CEE1D62B00D135E1FE2B00D0E3E16A
:104F280038E11B4B9978490104E0194B9978022321
:104F380049011943C9B2002004F0AAFC6860D5E110
:104F4800134B99780823490103E0114B99780A23F8
:104F580049011943C9B2002004F0B4FCEEE70C4B38
:104F68009A780D4B9200A9E1094B9A780B4B920065
:104F7800E1E0074B0A4A9B785B01D3185B7A8AE128
:104F8800034B074A9B785B01D3189B7A83E1C046A1
:104F9800D0020020F003002008080020FC030020B5
:104FA800BC080020002004F097FBC54B9B785B00F1
:104FB800184101231840C1E7C14B01AC997814236B
:104FC80049011943C9B20020221C04F091FC6378FE
:104FD8009B07DB0F5FE1BA4B01AC997814234901B9
:104FE8001943221CC9B2002004F082FC6278012314
:104FF8006FE00020FFF7B4F9431E984151E101AC7E
:10500800221C00207C2104F073FCAD4B02229B780B
:105018005B009A40131CA27813405A1E93413AE150
:1050280001AC221C00207C2104F062FCA44BA27875
:105038009B785B001A41131C01224AE0A04B997827
:105048000423490121E09E4B99780E23490180E70A
:105058009B4B01AC9978142349011943221CC9B20E
:10506800002004F045FCA27823E0954B9B78002BA8
:1050780005D1002003F0E0F80823181A5EE704239E
:1050880033E18F4B99781A2349011943C9B200209B
:1050980004F018FC05E18A4B01AC99781423490106
:1050A8001943221CC9B2002004F022FC627852077E
:1050B800D20F844B5A6019E1814B01AC99781823BF
:1050C80049011943221CC9B2002004F011FC62787E
:1050D8000F231340DFE07A4B01AC9978182349017C
:1050E8001943221CC9B2002004F002FC627812099C
:1050F800DFE7734B9A78744B52010832B7E0704B74
:105108009A78714B520116E06D4B6F4A9B785B01A0
:105118009B185A68CDE76A4B9A786C4B9200CDE0A1
:10512800674B694A9B785B01D318DA89C1E7644BFE
:105138009A78674B9200D358ADE0624A00235360D7
:105148005F4B64499B78C95C002901D001215160FB
:10515800604A0021D154604AD25C002A04D0594ADE
:1051680002215068014351605B4A0021D154BDE0DF
:10517800534B5A4A9B787AE0514B534A9B785B01D0
:10518800D3185B6987E04E4B4F4A9B785B019B18AD
:105198009A8B8EE74A4B4C4A9B785B01D3181A7B53
:1051A80087E7474B987803F04FF8C7E6444B987861
:1051B80003F052F875E0424B987803F055F870E028
:1051C8003F4B987803F058F86BE0907803F064F858
:1051D800B4E63B4B987803F067F8AFE6907803F0B5
:1051E8006BF8ABE6364B987803F06EF8A6E6344BCE
:1051F800987803F071F854E0314B987803F074F81C
:105208009CE62F4B987803F077F84AE02C4B987877
:1052180003F07AF845E02A4B314A9B78DB009B186B
:105228005B7938E0907803F07FF887E6244B98782C
:1052380003F082F840B281E6907803F08FF87DE6BB
:105248001F4B987803F092F878E61D4B987803F096
:1052580095F826E01A4B987803F098F86EE6184B04
:10526800987803F0A5F81CE0154B1E4A9B78D25C91
:105278001FE7134B144A9B785B019B189B690AE054
:105288000F4B9A78164BD20018E00D4B144A9B78B6
:10529800DB009B181B796B6028E0094B987802F0BB
:1052A800F3FF084B586021E0054B987804F0E2FDC5
:1052B80044E6034B9A78044B52011032D258F8E670
:1052C800D0020020F0030020BC08002018080020AD
:1052D80054080020B40800204C080020B80800201A
:1052E800300800202C08002003232B700A4B1B7861
:1052F800002B0ED0094B5A68094B1A60094B002A3B
:1053080003D1196808220A4302E01A6808218A436F
:105318001A6003B030BDC046EA030020F003002045
:10532800D8030020D802002038B5924CA078022873
:1053380000D9BAE06278952A27D8932A00D39DE04D
:105348000D2A10D80C2A00D398E0052A60D0052A27
:1053580003D8042A00D009E146E0062A70D0072ABB
:1053680000D003E17BE0862A52D0862A06D8822A1A
:1053780000D185E0832A00D0F8E035E08C2A00D1FE
:1053880082E08D2A00D0F1E091E0C32A00D1B1E09B
:10539800C32A14D8B52A00D18DE0B52A05D86732BA
:1053A800D2B2012A00D9E1E083E0C12A00D18DE020
:1053B800C12A00D998E0C02A00D0D7E04FE0D22A0D
:1053C80000D1A9E0D22A05D8C72A39D0CC2A00D0E2
:1053D800CCE096E0D62A00D1AFE0FE2A00D1B7E0B3
:1053E800D42A00D0C2E09CE0062104F097FB614D6E
:1053F8000623AC78002061011943C9B204F062FAAF
:105408005D4BA400E050AB785C4A0021D154B0E079
:105418000C2104F083FB574D0C23AC78002061016C
:105428001943C9B204F04EFA554BA400E050A878CD
:10543800524A002111548200D15804F091FB98E09F
:10544800504B440108341C19821C611C4001520154
:1054580052181B18D01A02F0E9FA607089E0494B1B
:10546800440108341C19821CA11C40015201521825
:105478001B18D01A02F0DAFAA0707AE0142100E0C2
:10548800042104F04BFB74E000280ED13E4D4B2064
:10549800291C012202F0A6FAA07808214301EB5C3E
:1054A800C91AC9B203F0A2FA63E004225FE01A2124
:1054B800E7E71821E5E74301191C324A18310230A1
:1054C800511840014018D318C01A34E02D4C45013A
:1054D800831C083562195B0140019B182018181AB3
:1054E80002F0A4FA285544E0264943010230C918BD
:1054F800400120E023494301C918181C04314430F5
:1055080019E0204B4101C918821C0E31400152019B
:1055180052181B18D01A19E041011A4B10315918AA
:1055280003E0184B4101C9181431821C5201400193
:1055380052181B18D01A042215E0124A4301991870
:1055480002301C3140014018D318C01A02220AE068
:105558000C4B4101C918821C0C31400152015218F0
:105568001B18D01A012202F03DFA02E00322074B71
:105578001A7038BDD002002008080020580000200A
:10558800FC030020BC080020C7080020F00300200E
:10559800F8B5334900230B603249334A0B6033496D
:1055A80053600B601372002400256E01F6B20621C9
:1055B8003143002004F06CF92D4B0C21E0503143AD
:1055C800002004F065F92B4B0135E0500434032D1D
:1055D800EBD1294B0821DB7A0020C91AC9B203F0A4
:1055E80005FA264B8021C9005A18002102C39342AC
:1055F800FBD1234B9B7E002B16D0C324E4000EE086
:10560800301C291C0422013702F0ECF90436043559
:10561800032FF5D1E1230C34DB009C4204D0194D53
:10562800261C2D190027EBE7154BDB7E002B0ED12E
:10563800A724E400114A144B201CD118091904228C
:1056480002F0D0F9C3230434DB009C42F2D10C4BA6
:105658005A7D054B002A00D001225A72F8BDC04677
:10566800D8030020F803002058000020D8020020AA
:1056780008080020FC030020BC08002008040020C3
:1056880008000020D0FCFF1FC8FAFFFF10B5C14A70
:105698009378022B00D1F2E0032B00D1F8E0002B25
:1056A80000D0BDE15178CBB24B2B00D18EE04B2B13
:1056B8001DD8442B57D0442B0ED8412B40D0412B1A
:1056C80003D8402B00D0A9E136E0422B3FD0C9B225
:1056D800432900D0A2E140E0462B52D0462B4BD3C1
:1056E800472B5AD0C9B2492900D097E15FE0522B25
:1056F80000D196E0522B0AD84D2B76D04D2B6FD384
:10570800502B77D0C9B2512900D087E178E0832B9C
:1057180000D1A7E0832B07D8532B00D18AE0C9B268
:10572800552900D07AE18FE0842B00D19EE0C9B2E0
:10573800FF2900D072E19EE0964B9748D97803E0A4
:10574800D178964B0020197002F004FA6BE1914B66
:105758000120D978914B5970F6E78E4B0420D978FF
:105768008E4B1971F0E75368D0788C491B020343BC
:10577800CB611C201C310CE0D178884B0520597175
:10578800E2E75368D07885491B020343CB600C20BD
:105798000C31042202F062F945E17E4B7F49DA7848
:1057A8005B6808201B0213438B600831F1E7794BD3
:1057B8007A4ADB78002B01D1D37503E00123D37536
:1057C800774A5360754B1720D97DBDE7734CD17864
:1057D8000320E17002F0BEF9E07802F02BFC22E130
:1057E800D1786E4B02209970AEE7D1786B4B1520BB
:1057F8005975A9E7674B1620D978684B9975A3E7BF
:10580800664B1A7D01231A4205D0624AD2781A42A1
:1058180001D102F077FA5F4B1420D9785F4B1975E4
:1058280092E75368D0785D491B0203430B6220203E
:105838002031AEE7574B5949DA785B6810201B02D4
:1058480013430B611031A4E7524AD378526812020D
:105858001A43012A00D9E3E050491B20CB760122E4
:105868001B3197E74E4B5A684E4B43E04C4B5A68F6
:105878004D4B1A60D7E0474BDA784C4BD2E0D378DF
:1058880051785268890012021A43494BCA50CAE03B
:1058980053782E2B00D9C1E0464A9B009B589F465F
:1058A8003C4B5A68D9781202434B0A431A6002F0FB
:1058B80081FC3C4B1861B6E0364B5A68D978120225
:1058C8003D4B0A435A6002F075FC364B5861AAE01A
:1058D800304B5A68D9781202374B0A439A6002F063
:1058E80069FC304B98619EE02A4B5A68D9781202BD
:1058F800314B0A43DA6096E0264B5A68D97812028F
:105908002D4B0A431A618EE0224B5A68D97812024D
:10591800294B0A435A6186E01E4B00205968DA7801
:10592800090211431AE01B4B00205968DA78090272
:1059380011431CE0174B01205968DA78090211431A
:105948000CE0144B01205968DA78090211430EE083
:10595800104B02205968DA780902114304F0B4F8B0
:1059680061E00C4B02205968DA780902114304F00F
:105978007FF858E0074B5A68D97812020E4B0A4351
:105988009A6150E0034B5A68D97812020A4B0A43CD
:10599800DA6148E0D0020020FF070000080000207C
:1059A800F003002058000020EC030020E903002049
:1059B800080400205CDB0000200900201A4B5A680C
:1059C800D9781202194B0A431A622CE0164B5A680E
:1059D800D9781202154B0A435A6224E0124B5A68CE
:1059E800D9781202114B0A439A621CE00E4B5A688E
:1059F800D97812020D4B0A43DA6214E00A4B5A684E
:105A0800D9781202094B0A431A630CE0064B5A680C
:105A1800D9781202054B0A435A6304E0032200E0D6
:105A28000422034B1A7010BDD00200202009002068
:105A3800F003002010B58B4B9A78022A00D1ADE014
:105A4800032A00D1B1E0002A00D0F4E05A78D3B29A
:105A5800502B7AD0502B29D8452B62D0452B11D802
:105A6800422B55D0422B06D8402B49D0D2B2412ADE
:105A780000D0DEE04AE0432B4DD0D2B2442A00D019
:105A8800D7E04BE0492B54D0492B06D8462B4BD0B6
:105A9800D2B2472A00D0CCE048E04C2B4FD0D2B24B
:105AA8004D2A4FD04B2A00D0C3E045E0812B5ED071
:105AB800812B11D8532B51D0532B06D8512B47D0BB
:105AC800D2B2522A00D0B4E045E0552B49D0D2B228
:105AD800802A00D0ADE047E0842B54D0842B06D830
:105AE800822B4AD0D2B2832A00D0A2E048E0FE2B13
:105AF8004CD0D2B2FE2A4CD8F02A00D099E045E02A
:105B0800594801F093FF594B586097E0584B3EE0D5
:105B1800574B5A7846E0564B1A7943E0544BDA69AA
:105B280040E0534B5A793DE0514B2AE0504B9A687C
:105B380038E04F4BDA7D2EE04D4BDA7832E04C4BB3
:105B48009A782FE04A4B5A7D2CE0494B9A7D29E000
:105B5800474B1A7D26E0464B1A6A23E0444B1A69E4
:105B680020E0434BDA7E1DE0424B5A7A1AE0414B63
:105B78005A7A043A53425A4114E03E4B5A6811E0AB
:105B88003C4BDA680EE03C4B1A680BE03B4B1A784A
:105B980008E03B4B1A78531E9A4103E05A78394B78
:105BA8009200D258314B5A6048E05B782E2B40D88F
:105BB800354A9B009B582D4C9F46344B1B6801E08F
:105BC800324B5B68636039E0304B9B68FAE72F4BD8
:105BD800DB68F7E72D4B1B69F4E72C4B5B69F1E7B2
:105BE800002002E0002008E0012003F0A9FE06E002
:105BF800012002E00220F8E7022003F08DFE606039
:105C08001CE0224B9B69DDE7204BDB69DAE71F4B81
:105C18001B6AD7E71D4B5B6AD4E71C4B9B6AD1E72D
:105C28001A4BDB6ACEE7194B1B6BCBE7174B5B6B49
:105C3800C8E7032200E004220C4B1A70144B1B78AF
:105C4800002B0ED0094B5A68124B1A60124B002ACF
:105C580003D1196808220A4302E01A6808218A4316
:105C68001A6010BDD0020020FF070000F0030020DA
:105C78000800002058000020EC0300205D090020E7
:105C8800E90300200804002018DC00002009002097
:105C9800EA030020D8030020D802002030B5554B75
:105CA80083B01A7A002A12D153494A68C878120276
:105CB8000243511C01D1514A126891008A185200BE
:105CC800DA6102F077FA4B4B012218621A724A4BDA
:105CD8005B78042B00D98BE0494A9B009B589F4670
:105CE80002F068FA434B1A6A801AC21780185040AB
:105CF800DA69904279D900221A7279E03E4B987895
:105D080003F01CFA3B4C002801D1207253E0E369F0
:105D1800002B69D002F04EFA236AC01AC317C018C4
:105D28005840E36998425FD90023237256E0002067
:105D380003F0D2FC304B2F4C9D7801236D00284195
:105D4800051C1D4035D1E369002B4DD002F032FA15
:105D5800236AC01AC117401848403BE001AC221C16
:105D680000207C2103F0C4FD234B9D7802236D00A5
:105D7800AB401D1CA3781F4C1D401AD1E369002BB2
:105D880032D002F017FA236AC01AC217801850409E
:105D980020E001AC221C00207C2103F0A9FD164A5A
:105DA800A3789578134C6D002B411D1C01231D40D1
:105DB80006D000232372134B10211A688A4311E07E
:105DC800E369002B10D002F0F5F9236AC01AC31753
:105DD800C0185840E369984206D92572094B102229
:105DE80019680A431A6003E0024B5A68013A5A607C
:105DF80003B030BD58000020D0020020D803002096
:105E0800D4DC0000D802002010B52D4B5A78812A26
:105E180054D19A78922A51D19A79A32A4ED15A7993
:105E2800B42A4BD11A79C52A48D1DB78D62B45D16B
:105E38008023244ADB03D362234B0533DB7F072B04
:105E48002BD102F0B7F9041C02F0B4F9001BC317F8
:105E5800C01858401D4B9842F6DD04F011FB1C4A4F
:105E68008023DB04D3671B49C02252008B50F022E9
:105E7800012192023023184805F0A0FD02F09AF99A
:105E8800041C02F097F9001BC317C01858400F4BA9
:105E98009842F6DD0120FEF759FAFEF715FA0020C0
:105EA80005F0E4FA06F012F900220320002106F0BA
:105EB80029F905F041FF094B01221A7010BDC046AF
:105EC800D00200200010054058000020E703000021
:105ED80004E100E000E100E0000001405C0900206E
:105EE800F0B5D34CD34D2178642369702B7060686A
:105EF800E37802021A43CBB287B06A60212B01D142
:105F080000F00BFF212B77D80E2B01D100F0B0FC4D
:105F18000E2B32D8072B00D109E3072B13D8032BFC
:105F280000D152E1032B07D8012B00D1F3E0022B5B
:105F380001D001F084F91BE1052B00D1EFE2052B1C
:105F480000D9F0E260E10A2B01D100F032FC0A2B03
:105F580009D8082B01D100F024FC092B01D001F04D
:105F68006EF900F022FC0C2B01D100F042FC0C2B46
:105F780001D900F05BFC00F020FC182B01D100F0E7
:105F88002EFE182B19D8142B01D100F042FD142B2A
:105F980009D80F2B01D100F085FC132B01D001F09B
:105FA8004EF900F0BEFC162B01D100F003FE162BB3
:105FB80001D900F002FE00F056FD1C2B01D100F0C3
:105FC80042FE1C2B09D81A2B01D100F027FE1A2BF0
:105FD80001D900F035FE00F00EFE1F2B01D100F0B4
:105FE80050FE1F2B01D900F088FEC9B21E2901D02E
:105FF80001F025F900F02BFE802B01D100F078FF8D
:10600800802B43D8402B01D100F05AFF402B1ED8DB
:10601800242B01D100F0E3FE242B09D8222B01D137
:1060280000F0C1FE232B01D001F009F900F0C8FEF1
:10603800262B01D100F00BFF262B01D200F0F6FE33
:10604800C9B2272901D001F0FAF800F021FF442B4A
:1060580001D100F041FF442B09D8422B01D100F0B7
:1060680035FF422B01D900F034FF00F02CFF462BFE
:1060780001D100F037FF462B01D200F030FFC9B242
:10608800472901D001F0DBF800F02FFF872B01D161
:1060980000F0F8FF872B1AD8832B01D100F03FFFBF
:1060A800832B09D8812B01D100F026FF822B01D048
:1060B80001F0C5F800F02FFF852B01D100F060FF3B
:1060C8005D4A852B01D900F05FFF00F047FF8C2B5C
:1060D80001D101F030F88C2B0ED8892B01D100F0BA
:1060E800F9FF892B01D200F0ACFFC9B28A2901D08F
:1060F80001F0A5F801F009F8F22B01D101F08FF8B1
:10610800FF2B01D101F08EF8C9B28D2901D001F021
:1061180096F801F037F8A378022B24D8474A0121D2
:10612800D1544749424C0022CA54A178454B00201B
:106138005A54022203F08AFBA17806234901194325
:10614800C9B20020404A03F041FCA17808236268E4
:1061580049011943E3781202C9B21A43002003F037
:1061680035FC01F06FF8334B04221A7001F06AF81D
:106178002F4CA178022923D8304B01225A54304A97
:10618800002353542F4A00205354022203F05EFB8D
:10619800A178062349011943C9B200202A4A03F00D
:1061A80015FCA1780823626849011943E3781202B3
:1061B8001A43C9B25242002003F008FC01F042F829
:1061C8001C4B04221A7001F03DF8A078022817D859
:1061D80002F0AAFF0222A178002003F037FBA17881
:1061E800082349011943C9B2002003F0FFFBA37833
:1061F800124A0121D154134A0021D15401F022F846
:1062080004232B7001F01EF8094B9878022803D953
:106218005B78022B00D07DE1054C6578012D2CD0F0
:10622800002D13D0022D4CD0032D00D06DE148E194
:10623800D0020020F00300200800002058000020B1
:10624800B40800204C080020FF070000FEF7F0F912
:10625800A178D04B00205D54CF4B5D546268E37841
:10626800490112021A43C9B203F0A0FBA178002029
:10627800002203F0EBFA00F0E5FFFEF7D9F9A17868
:10628800C44A00235354C44A0020535402234901EA
:106298001943C9B203F0FCFA6568E378A1782D02C6
:1062A8001D4345194901C9B200202A1C03F07EFB91
:1062B800A1780020002203F0C9FAB84B5D6000F015
:1062C800C1FFC025054026D102281FD86368E2789F
:1062D8001B021343142B19DC5A00D3181B18B04A9D
:1062E8009B009E58FEF7A4F9A178AA4B321C5D5476
:1062F800A94B00205D544901C9B203F057FBA178AE
:106308000020002203F0A2FA00F09CFFA34B042215
:106318001A7000F097FF402D00D099E06768E37885
:106328003F021F43142F00DD8DE0002300930193EB
:1063380002930024021C1A41D10704D503AA13555D
:106348000134032C02D00133032BF3D1002519E0CB
:1063580003AB5E5D301CFEF76BF902237101194334
:10636800C9B2002003F094FA7A00D21996198C4A1F
:10637800B600B258AB00801AC217801850406A465F
:10638800D0500135A542E3DB012C0ADD022C0ED1E9
:10639800009B019903AC8B4205DD6278181CFEF75F
:1063A800EFF800242AE0081C2278191CF7E7032CD0
:1063B800F7D1009D019F029EBD420ADD03ACB542A4
:1063C80013DD6278281C391CFEF7DAF8A278281C3D
:1063D80009E003ACB74208DD2278381C291CFEF717
:1063E800CFF8A278381C311CD9E72278301C291C38
:1063F800FEF7C6F86278301C391CD0E7694A9378F2
:10640800191C2141C80719D5D17852686148120270
:106418000A4351008A181219614992005258002102
:10642800C1545D48E5B2C1546901C9B2002003F006
:10643800BDFA0020291C002203F008FA0134032CBD
:10644800DCD100F0FFFE554B04221A7000F0FAFE72
:10645800802D01D000F0F6FE6368E2781B0213433A
:10646800142B29DC00254F4CA3782B41D9071ED5C6
:106478006368E2781B0213435A00D3185B19484A31
:106488009B00281C9E58FEF7D3F8A37841490022A8
:10649800CA544149ECB2CA546101C9B20020321C45
:1064A80003F084FA0020211C002203F0CFF9013503
:1064B800032DD8D100F0C6FE384B04221A7000F024
:1064C800C1FE43B2002B01DA00F0BCFE6368E2783B
:1064D8001B0213435A00D3181B18314A9B009D58BE
:1064E800FEF7A6F8A1782B4A002353542A4A002025
:1064F800535449012A1CC9B203F058FAA178002064
:10650800002203F0A3F900F09DFE244B03221A7029
:1065180000F098FE214B04221A7000F093FEFEF75B
:10652800A7F800F08FFEFEF7DBFB00F08BFEA078EB
:10653800022803D904232B7000F084FE6178CBB2C3
:10654800952B31D8932B00D387E00D2B11D80C2B2A
:1065580000D382E0CAB2052A5AD0052A03D8042AF1
:1065680000D019E14FE0062A57D0072A00D013E1DE
:1065780063E0862B4CD0CAB2862A05D8822A71D00D
:10658800832A00D008E13EE08C2A70D08D2A00D002
:1065980002E17AE04C080020B4080020F003002053
:1065A800DC020020D0020020C32B00D19FE0C32BC7
:1065B80013D8B52B73D0CAB2B52A05D86731C9B27A
:1065C800012900D9E8E065E0C12A77D0C12A00D9BD
:1065D80083E0C02A00D0DFE02FE0D22B00D1A0E07A
:1065E800CBB2D22B05D8C72B17D0CC2B00D0D3E0F9
:1065F80088E0D62B00D1B2E0FE2B00D1BDE0D42B31
:1066080000D0C9E09CE0062103F0AEF900F01AFEC4
:106618000C2103F0A9F900F015FE4301D64A08330E
:10662800D318811C5C1C4001490109191218881AE9
:10663800597801F08FFA00F005FE4301CE4A08337D
:10664800D318811C9C1C4001490109191218881A89
:10665800997801F07FFA00F0F5FD142103F084F930
:1066680000F0F0FD042103F07FF900F0EBFD0028B5
:1066780006D14B20C149012201F0F0F900F0E2FDFA
:10668800BF4B04221A7000F0DDFD1A2103F06CF9EB
:1066980000F0D8FD182103F067F900F0D3FD43019D
:1066A800B54A191C1831023051184001D318401846
:1066B800C01A042201F0D2F900F0C4FDAE4B420129
:1066C8000832811C9C184901400109191818081A38
:1066D800D15C01F03FFA00F0B5FDA7494301023053
:1066E800C9184001042201F0B9F900F0ABFDA24934
:1066F8004301C918181C04314430042201F0AEF9D2
:1067080000F0A0FD9C4B4101C918821C0E314001CC
:10671800520152181B18D01A022201F09FF900F0FA
:1067280091FD4101944B821C1031591840015201CE
:1067380052181B18D01A042201F090F900F082FDBB
:106748008D4B4101C918821C143140015201521865
:106758001B18D01A042201F081F900F073FD864A53
:106768004301991802301C314001D3184018C01A4F
:10677800022201F073F900F065FD7F4B4101C91851
:10678800821C0C314001520152181B18D01A0122E8
:1067980001F064F900F056FD794B03221A7000F0FD
:1067A80051FDFEF7C1FD00F04DFDFEF76FFF00F053
:1067B80049FDFFF73FF900F045FDA378022B13D1FF
:1067C800617837290BD8A72252006E4B88188900A8
:1067D80080005918042201F041F900F033FD684B9C
:1067E80003221A7000F02EFD654B04221A7000F087
:1067F80029FDA378022B14D1634B597837290BD87C
:10680800A7235B00C8185F4B890080005918042231
:1068180001F0E8F800F016FD594B03221A7000F059
:1068280011FD574B04221A7000F00CFDA0780228C5
:1068380019D86378012B09D0002B03D0504C022BB8
:106848000DD107E002F066FC00F0FCFC02F06CFCE5
:1068580000F0F8FC02F072FC606000F0F3FC032327
:10686800237000F0EFFC464B04221A7000F0EAFC9B
:10687800A378002B02D0022B10D104E0101CFDF7E6
:106888001FFD00F0DFFC6078002A03D1FDF7D4FC7F
:1068980000F0D8FCFDF7B2FC00F0D4FC04232B7008
:1068A80000F0D0FCA378DAB2012A12D0DBB2002BB8
:1068B80003D0334C022B19D112E0334A5078082800
:1068C80002D8FDF74DFD08E00A2811D12C4A536083
:1068D8000EE02D4B587803F007FA294B586007E073
:1068E800294B5878FDF7C6FC606001E0042323704B
:1068F800264B1B78002B01D100F0A4FC204B5A68D2
:10690800234B1A60234B002A05D1196808220A4331
:106918001A6000F097FC1A6808218A431A6000F090
:1069280091FC194B5B78092B62D81B4A9B009B583A
:10693800174C9F46144BDA785B681B021343226896
:106948009B1854E0104BDA785B681B0213432268EB
:10695800D31A4CE00C4BDA785B681B0213432268AD
:10696800534344E0084B20685968DA780902114318
:1069780005F026FD20603BE0BC080020C708002089
:10698800F003002008040020D0020020EA030020C1
:10699800D8030020D8020020E8DC0000C24B2068A1
:1069A8005968DA780902114305F060FD21601FE09B
:1069B800BD4BDA785B681B0213432268134016E06C
:1069C800B94BDA785B681B02134322680EE0B64BBA
:1069D800DA785B681B0213432268534007E0236898
:1069E800DB4304E0B04BDA785B681B021343236097
:1069F800AE4B1A68AE4B002A05D1196808220A4323
:106A08001A6000F01FFC1A6808218A431A6000F017
:106A180019FCA64B1968914205DDA54B04211A689B
:106A28000A4303210EE0A24B914205D11A680621C0
:106A38008A4301210A4306E01A6804218A43022195
:106A48000A4301218A431A60984B1A68984B002A16
:106A580004D1196808220A431A60F3E31A68082166
:106A68008A431A60EEE3904B5B780C2B00D9E9E37C
:106A7800904A9B009A588E4B97461B68180700D47B
:106A8800E0E3894B5A68D97812028B4B0A435A6063
:106A9800D8E31B68190700D5D4E3834B5A68D97823
:106AA8001202854B0A435A60CCE31B68DA0700D40C
:106AB800C8E37D4B5A68D97812027F4B0A435A6063
:106AC800C0E31B68D80700D5BCE3774B5A68D97870
:106AD8001202794B0A435A60B4E31B68590700D481
:106AE800B0E3714B5A68D9781202734B0A435A6063
:106AF800A8E31A6805231A4200D1A3E36A4B5A682F
:106B0800D97812026C4B0A435A609BE31B689A07B8
:106B180000D497E3644B5A68D9781202664B0A434B
:106B28005A608FE31B68980700D18BE35E4B5A6865
:106B3800D9781202604B0A435A6083E31B68D9066E
:106B480000D47FE3584B5A68D97812025A4B0A434B
:106B58005A6077E31B689A0600D473E3524B5A686D
:106B6800D9781202544B0A435A606BE31B685806E3
:106B780000D467E34C4B5A68D97812024E4B0A434B
:106B88005A605FE31B68190600D45BE3464B5A68FA
:106B9800D9781202484B0A435A6053E31B68DA0556
:106BA80000D44FE3404B5A68D9781202424B0A434B
:106BB8005A6047E3404B5A6044E33F4B9A6A072ABE
:106BC80000D93FE39100586801329A62C918364AE1
:106BD800C862D178526812020A435A6032E3364BCF
:106BE8009A6A002A00D12DE3013A9A629200D218DB
:106BF800D26A5A6026E32C4B5B782E2B03D82F4A97
:106C08000121D1541EE3FF2B04D12B4B01224C331D
:106C18001A7017E32A4B03221A7013E363782E2B9A
:106C280003D8264A0021D1540CE3FF2B04D1224B70
:106C380000224C331A7005E3214B03221A7001E33A
:106C4800FFF72CF8FEE21C4B00225A72FAE2164BB0
:106C58009978022911D85A78142A0AD8500082182B
:106C680051185A68D8781202164B89000243CA5044
:106C7800E8E2134B03221A70E4E2114B04221A7063
:106C8800E0E2A278022A1FD8074B0D4C5B78142B40
:106C980007D85900CB189A180A49920053586360CC
:106CA80015E00323237012E0D0020020D80300204F
:106CB800D802002010DD00005800002078090020CC
:106CC800F0030020DC020020C94B04221A70C94BD3
:106CD8001B78002B00D1B5E2C54B5A68C64B1A6029
:106CE800C64B002A04D1196808220A431A60A9E28F
:106CF8001A6808218A431A60A4E2C14B9A78022ACA
:106D080007D85B78142B00D89CE2B94B03221A7081
:106D180098E2B74B04221A7094E263780A2B33D8AE
:106D2800B84A9B009A58B44CB74B97461A682368E0
:106D3800D31802E022681B68D31A236024E01B687A
:106D480022685343F9E72068196805F039FB206089
:106D58001AE02068196805F089FB216014E01A68B8
:106D680023681340E9E71A6823681343E5E71A68BC
:106D780023685340E1E71A68D24304E0226802E03E
:106D88001968226821601A609B4B1A689B4B002A7D
:106D980004D1196808220A431A6053E21A680821C4
:106DA8008A431A604EE2944B1A78E2701A68FF23FD
:106DB8001B06120A034013436360FDF759FC41E2C6
:106DC8008D4A8F4B11785868D9701168FF221206C6
:106DD800090A02400A435A60FEF758FC32E2637817
:106DE800052B00D92EE2894A9B009A58834B974677
:106DF80019680F220A401A6024E21A6810218A438F
:106E08001A601FE21A6820218A431A601AE21A6877
:106E180040218A431A6015E21A6880218A431A6061
:106E280010E219687A4A0A401A600BE2744B5A78E1
:106E38002E2A08D8774992005218D9785B681B0225
:106E48000B431365FEE16A4B03221A70FAE1724B99
:106E5800694AD9689869116019696B4A11606D4A65
:106E68005969516065490860D9691172196A1162D6
:106E7800596A2833D1611B78684AD25C002A02D04B
:106E8800664A0121D154644B00222C331A70D9E18F
:106E98005B4B9A78022A0FD85B78142B08D85900D4
:106EA800CB189A18544B5E491B6892005350C9E19D
:106EB8004F4B03221A70C5E14D4B04221A70C1E1F1
:106EC80001F092F9BEE101F091F9BBE101F090F90E
:106ED800B8E101F08FF9B5E101F08EF9B2E101F006
:106EE8008DF9AFE101F08CF9ACE101F08BF9A9E182
:106EF800484B00225A72A5E1464B01225A72637828
:106F0800012B00D09EE13E4B5A68D9781202414BC2
:106F18000A435A6096E13F4B02225A7292E13D4978
:106F280000230A1C4C3213703B4A50312C32137028
:106F3800002201235B42394808C1002383540132EF
:106F48002F2AF6D1334A53725360936213722A4A36
:106F580013602D4A1360294A136073E1137D980763
:106F68000AD42C4B04225A72254B5A68D97812023B
:106F7800294B0A431A6365E11D4B08221A7061E127
:106F8800244B00225A725DE1264901230B70917847
:106F9800254C21701A494868CD7800028021284381
:106FA8000901884202DC167D1E4002D01F4BDA1D03
:106FB8003EE003AD291C00F0E7FE2B7863706B7888
:106FC800A370AB78E370AB7923716B7963712B791C
:106FD800A371EB782672E3710134E21D124B20781D
:106FE800197A0134411819729442F7D12AE1C0463E
:106FF800F0030020EA030020D8030020D802002074
:10700800D002002044DD0000F803002070DD0000FD
:10701800FFFEFFFF580000205801002078090020DB
:10702800DC020020DC030020E0030020E103002054
:107038000021197001339342FAD1834B1A781A72DE
:1070480000E1824B5A78002A11D1814B01221A7033
:10705800804B7D4A9B7813707F4B1968531C09320B
:1070680008780131187001339342F9D1EAE0012A16
:1070780000D0E7E0794B0421D971562199715A71F2
:107088001A71DFE06378012B12D0002B05D0022B98
:1070980018D0032B00D0D5E018E0714B5A7A1B7A30
:1070A800EA71AB716F4B1B6B1A0A6A712B71C9E0DD
:1070B8006B4B5A7AEA711A7A5B68AA711A0A6A7172
:1070C8002B71BFE0684B1B686B60BBE0674B1B68AC
:1070D8006B60B7E06378002B00D0B3E05B4B9A7825
:1070E800002A00D0AEE05A68D9781202604B0A43F1
:1070F8009A4200D0A6E05F48002100F02BFD00F086
:1071080001FE0120FDF722F99CE0504B5A785A4BBA
:10711800002A00D001221A704C4BDA78574B1A70AB
:107128004F4B0533DA7F564B1A70564A00231370BB
:10713800554A137086E06678002E02D0012E1ED1C3
:1071480010E00422514805A900F04CFC6268E3787D
:1071580012021A43059B9A4202D101236B6071E027
:107168006E606FE0A3782A2B05D14848484904226D
:1071780000F074FC66E0394B03221A7062E00323C6
:107188002B705FE0314B5A78012A07D0002A0ED0C5
:10719800022A33D0314C032A3ED13AE05868314AAA
:1071A800DC780002516B20433832002323E02D4A5B
:1071B800516B092909D8DC785B6888001B028018A4
:1071C80023430131836351633CE0244B09221A7045
:1071D80038E010CA84420DD1224A98003832013969
:1071E800121802E05068013301C28B42FAD31D4BDA
:1071F800596327E001338B42EBD323E0194B00227C
:107208005A631A1C38326033002102C29A42FBD1F9
:1072180018E00A23636015E00323237012E0FEF7E9
:10722800F3FD0FE0094B5A68D9781202104B0A4354
:107238009A4207D10B4B012260331A7002E0074BC8
:1072480002221A7007B0F0BDE0030020D00200202F
:10725800DC0300200800002004000020F0030020C8
:107268005800002058010020D8030020F80300200F
:10727800D2040000FF070000240800205008002066
:10728800680900204F080020A7090020FB0700001C
:10729800D3020020F0B51F4D83B00C1C6B46291C8F
:1072A800C0C9C0C31C4B42781A7082785A70C27821
:1072B8009A7002799A7142795A7182791A71C279EF
:1072C800DA70164B00221A70FEF70AFE144B1B7870
:1072D800002B0ED1237063702B78A3706B78E3704A
:1072E800EB792371AB7963716B79A3712B79E371B6
:1072F80009E0012B07D100230A4AD2185278E25438
:107308000133082BF8D1034B6A4603B011CA11C3E5
:10731800F0BDC046F0030020D0020020EA030020A0
:10732800DC030020E0030020F0B585B0104C02AD6E
:1073380001922E1C271C8C4606CF06C60D4E6146B0
:107348006A467170111D0A787168B270FF221206C0
:10735800F3700A401B0A1A43074B72600022307010
:107368001A70FEF7BDFD05B0606806CD06C4F0BD15
:10737800F0030020D0020020EA030020F0B5C54B3E
:1073880099B01B78002B0DD0C34B1B78062B09D066
:107398000A2B07D00F2B05D01F2B03D0BF4B002281
:1073A8000533DA77BD4B0533DB7F032B22D1BC4B8A
:1073B8001B78002B11D1BB4DBB4CA8786E78237875
:1073C8008619F6186378F618E379F618A379F6188B
:1073D8006379F6182379F61819E0012B00D094E0A8
:1073E800B24C251C09352078013400F0F3FDAC427D
:1073F800F9D18AE0042B26D1AB4C0023A94D0122F8
:10740800637022706360A8786E788619013600F080
:10741800E1FD687800F0DEFD207800F0DBFD6078A3
:1074280000F0D8FDE07900F0D5FDA07900F0D2FD9C
:10743800607900F0CFFDF6B2207900F0CBFD301C6A
:1074480000F0C8FD61E0072B40D1954B1B78002B5D
:107458002AD1944B9E785F78934B99791D785C7804
:10746800D87904915A79102103921B796A469C466F
:1074780012AB8A5C1E70BE199D70AD19DC705A7112
:1074880064190C226946515C18710019049C5F70DC
:10749800039F624699712118DA717A1862441A7248
:1074A8006D4612AC51350AE0012BF9D100237F4A11
:1074B800995C12AAD1540133092BF8D1F0E720784E
:1074C800013403F00BFDAC42F9D11EE0082B1CD1AE
:1074D800754A00230120537010705360714A12AC32
:1074E800917852786D4662708A1801322170A070C6
:1074F800E37023716371A371E371227251352078AF
:10750800013403F0EBFCAC42F9D1694B1B78002B3A
:107518004ED0684B1B78032B02D0072B43D123E0B6
:10752800604C654DA07866782B7886190A36F6186F
:1075380000F050FD607800F04DFD802000F04AFD1D
:107548008A2000F047FD002000F044FD002000F0F4
:1075580041FD002000F03EFDF6B2287800F03AFD2B
:10756800301C00F037FD1EE04E4B0FAC9878597870
:10757800514B61701A7880235B42A37041187623BF
:107588005B420A31E370E271002352186D462070A5
:1075980023716371A371227245352078013403F099
:1075A8009DFCAC42F9D1444A00231370404A137041
:1075B8003A4A00230532D377394A13703F4B603378
:1075C8001B78002B02D00120FCF7C0FE68465F3014
:1075D80000F018FD002877D000F032FD002803D015
:1075E800364B002261331A70344B6C461A1C6132D8
:1075F80011785F34C818247801316430C9B2047036
:107608001170092900D0B6E0002111702549033214
:1076180010784978884200D0ADE06C3300211078AA
:1076280001320918C9B29A42F9D1244C1B4D231CC6
:107638006C331B788B4229D1221C6532164B127889
:107648001A70221C663212785A70221C673212781D
:107658009A70221C683212789A71221C6932127848
:107668005A71221C6A3212781A71221C6B321278F3
:107678006134DA7000F09EFD114B124A1860002345
:10768800137003216A1DD17723704EE0053504235A
:1076980058E0C046E9030020D0020020580000202E
:1076A800DC03002008000020F0030020E003002095
:1076B800A7090020680900204F0800205801002071
:1076C800600900206709002015AC201C02F0E0FECC
:1076D800002839D0B64B22785B789A424BD117AB49
:1076E8000022217801345218D2B29C42F9D115AB4C
:1076F800197AB04D914223D15978AF4A11709978CF
:107708005170D97891701979917159795171997924
:107718001171DB79D37000F04DFDA84B0022186081
:10772800A74B1A706B1D0722DA776B7A5A1ED2B2F2
:10773800012A01D9052B1BD10022A24B1A701AE08D
:1077480005350823EB7716E09A4C637A013BDBB2E8
:10775800012B10D880226368120193420AD85A1C60
:107768006260181C944900F00FFB05340923E37785
:107778000122E2E760728F4A537A042B05D18E4DBD
:1077880029784BB2002B00DBE4E08A4B0533DB7F22
:10779800042B07D0002B05D0082B03D0062B01D0D3
:1077A800FEF79EFB834C631DDB7F092B00D0AEE008
:1077B80000F000FD2269844B801AC11740181B682D
:1077C8004840984209D9814B1A78012A01D10222EE
:1077D8001A7000F0EFFC774B186100F0EBFC754A6B
:1077E800794B52695B68801AC217801850409842DA
:1077F80009D9764B5A78012A01D102225A7000F031
:10780800D9FC6C4B586100F0D5FC6A4A6E4B926902
:107818009B68801AC41700196040984209D96B4BBD
:107828009A78012A01D102229A7000F0C3FC614BB8
:1078380098616048031C4C331B78002B67D0644A5E
:10784800131C2C331B78002B61D1624B076A1B6811
:107858000A970D939769604B05971B68D7690C9336
:1078680008975E4B176AC1691B680497576A0B93A0
:107878000991D66815695469039728321278017AF4
:107888000792002243680692503001914F4FB95C2D
:10789800BC46022917D101684F1C11D0D7B2019CF0
:1078A80007970F1C0999089403910A9C0B99049453
:1078B8000591012400210C9D0D9E0694019104E080
:1078C80000216746B9541F1C231C013204302F2A9B
:1078D80002D01C1C3B1CD9E73D4A36480199089C3C
:1078E8005361059B0172D46169461C249361615CF4
:1078F800131C283347601970049F03986B4618249B
:10790800E35CD6601561176250622C321370294B04
:107918005A1DD07F092804D15A7A022A01D105229A
:107928005A722B4A516B002940D009283ED1214B6D
:10793800587A01283AD158683832002307E010CA2B
:10794800A04203D11B4B05225A722FE001338B4210
:10795800F5D32BE0531DDB7F042B27D0002B25D03C
:10796800082B23D0062B21D01D4E194C71706B6843
:10797800E9781B020B437360206B80231B0198423C
:1079880010D8291C00F01CF9206B291C00F050F9B4
:10799800002804D0236B01332363652300E0072309
:1079A800337003E0072333700023537219B0F0BD1E
:1079B8000800002058000020D002002060090020A4
:1079C80067090020EA030020200900207809002028
:1079D80058010020D8030020F8030020D802002016
:1079E800F003002070B5041C0E1C151C0321002296
:1079F8000220FCF751FD210AC9B200220220FCF73F
:107A08004BFDE1B202200022FCF746FD002409E00C
:107A18006A1EA21A53425A4102200021FCF73CFD7B
:107A280030550134AC42F3D370BDC04610B5041CC8
:107A3800032100220220FCF72FFD210AC9B20022EF
:107A48000220FCF729FDE1B200220220FCF724FD08
:107A5800002101220220FCF71FFD10BDF0B583B004
:107A6800041C0191161C022006210122FCF714FDBA
:107A7800052100220220FCF70FFD0220002101222F
:107A8800FCF70AFD8307F3D5022100220220FCF748
:107A980003FD210AC9B200220220FCF7FDFCE1B275
:107AA80002200022FCF7F8FC002542E0019B01348B
:107AB8003F27595D274001D1012203E0721EAA1A0F
:107AC80053425A41D2B20220FCF7E6FC002F2FD1D4
:107AD800731E9D422CD2052100220220FCF7DCFCFB
:107AE800022000210122FCF7D7FCC307F3D40220AF
:107AF80006210122FCF7D0FC052100220220FCF718
:107B0800CBFC022000210122FCF7C6FC8307F3D539
:107B1800022100220220FCF7BFFC210AC9B2002280
:107B28000220FCF7B9FCE1B202200022FCF7B4FC09
:107B38000135B542BAD3052100220220FCF7ACFC7E
:107B4800022000210122FCF7A7FCC307F3D403B0ED
:107B5800F0BDC04638B5041C0D1C022006210122C8
:107B6800FCF79AFC052100220220FCF795FC022074
:107B780000210122FCF790FC8307F3D502210022A3
:107B88000220FCF789FC210AC9B200220220FCF776
:107B980083FCE1B200220220FCF77EFC0220291CB3
:107BA8000122FCF779FC052100220220FCF774FC75
:107BB800022000210122FCF76FFCC307F3D438BD73
:107BC800F8B5C4008023241A1B010D1CE01809789D
:107BD8000133E618FFF7BEFF104B6978301CE71831
:107BE800FFF7B8FF0E4BA978381CE618FFF7B2FF6D
:107BF8000C4BE978301CE718FFF7ACFF0A4B2979E2
:107C0800E618381CFFF7A6FF6979301CFFF7A2FFBA
:107C1800064BA979E018FFF79DFFF8BD02080000A0
:107C2800030800000408000005080000060800001A
:107C3800F0B50C1CC50080212D1A090187B06D18FC
:107C4800002203210220FCF727FC290AC9B20022DE
:107C58000220FCF721FCE9B200220220FCF71CFC00
:107C6800002100220220FCF717FC00210022051C3D
:107C78000220FCF711FC00210022061C0220FCF760
:107C88000BFC00210022071C0220FCF705FC002148
:107C9800019000220220FCF7FFFB00210290002245
:107CA8000220FCF7F9FB0021039001220220FCF7D7
:107CB800F3FB2378AB4221D16378B3421ED1A3787A
:107CC800BB421BD108216A468A5C04AB1A7169461B
:107CD8000C22515C987159715B68019A1B022079DA
:107CE8001343E27800021043627912041043A27928
:107CF80012061043181A4342584100E0002007B00A
:107D0800F0BDC04638B58024240102200621012296
:107D1800FCF7C2FB052100220220FCF7BDFB022074
:107D280000210122FCF7B8FB8307F3D502210022CA
:107D38000220FCF7B1FB210AC9B200220220FCF79D
:107D4800ABFBE1B202200022FCF7A6FB00252A1CAF
:107D58003F3A53425A41022000210135FCF79CFB6F
:107D6800402DF4D1052100220220FCF795FB0220CA
:107D780000210122FCF790FBC307F3D48023403491
:107D8800DB019C42C1D138BD38B5C50080231B0139
:107D98002D1AED180C1C002203210220FCF77CFB95
:107DA800290AC9B200220220FCF776FBE9B20022B8
:107DB8000220FCF771FB002100220220FCF76CFB7B
:107DC8000021207000220220FCF766FB0021607071
:107DD80000220220FCF760FB0021A0700022022094
:107DE800FCF75AFB0021E07000220220FCF754FB4C
:107DF8000021207100220220FCF74EFB0021607157
:107E080001220220FCF748FBA07138BD30B583B0D1
:107E1800052100220220FCF73FFB0220002101225D
:107E2800FCF73AFB71231842F2D100F0C3F90024A1
:107E3800051C06E03448FFF7F9FD041CE53C6342E5
:107E48005C4100F0B7F9401BC317C01858402F4BCE
:107E5800984202DC002CEDD001E0002C03D02C4B22
:107E68001B78002B3ED028480021FFF773FEFFF750
:107E780049FF002027494022FFF7F0FD80244025D4
:107E88006400201C2449B422FFF7E8FD281C23497C
:107E98002022FFF7E3FDC723B4349B0020359C4222
:107EA800EFD10023C3240193E40001AD201C291C59
:107EB8000422FFF7D3FDFF230434DB009C42F4D1F6
:107EC8000023A7240193E400201C291C0422FFF7A7
:107ED800C5FDC3230434DB009C42F5D10A48E521E3
:107EE800FFF738FE00200B494022FFF77BFD4024B6
:107EF8000B49201C091920222034FFF773FDA02C00
:107F0800F6D103B030BDC046FF070000CF07000020
:107F1800600800200800002088DD0000B8DD0000AF
:107F28007C08002030B5254B5A6A59691140C807AA
:107F38001DD5234A526B900601D59B6A17E0214B49
:107F48001A680132202A00D100221E4B586882424A
:107F580006D01A4C1868A46AC018E4B204721A60F1
:107F6800194B05221A60174B9A6A184B1A608A0730
:107F78001BD5164B1A68002A17D1124BDC6A186BEE
:107F880084420FD00E482024C462186BC4183434BD
:107F980025780A4C0130E5621863186B202804D153
:107FA8001A6302E00A4A054B5A618B0505D5044B52
:107FB80020221A63014B01225A6130BD001008408B
:107FC80000100540C8010020AC090020A8090020C5
:107FD8000102000000B5094BDA6A0132202A00D1FB
:107FE8000022064B196B8A4207D0D96AC918343166
:107FF8000870DA62024B03225A6100BDC8010020F2
:108008000010084000B50A4B59681A68914201D11E
:1080180000200BE05A68D118097A013201705A60C1
:108028005A68202A01D100225A60012000BDC046AA
:10803800C8010020014B98627047C046C801002063
:1080480000B5054B1A78002A01D1002002E0002271
:108058001A70012000BDC046B009002030B5194B88
:1080680000245C6083B01C60051C1C6301201C603C
:108078000421012203F0D0FD01220120032103F095
:10808800CBFD0120032103F003FE0F4B0F49AD0088
:1080980020221A6369580E4B01225A609A601963AC
:1080A8008C21090119615021D96001A85A610F2357
:1080B8000370032343708470C27003F081FE03B021
:1080C80030BDC046C801002000100540D8DD0000C2
:1080D8000010084030B52B4B1A6801321A602A4B41
:1080E8001A6801321A60294B1A68002A02D01A68E5
:1080F800013A1A60264B1A68002A08D01A68013A11
:108108001A601B68002B02D1224B01221A70224BE5
:10811800224A9B6A22499BB2136010680B689842F6
:108128000DDD15680B681F4CED1A1F481F4BA54243
:1081380011DD1C6812680D6801681D4817E0106899
:108148000B68984218DA0D681368164CED1A164831
:10815800164BA54205DC1C6815680A680168AA1A4E
:1081680007E01C6812680D68016880204002121838
:10817800521B4A4312191A60084B1A68084B1A60B6
:1081880030BDC0461C020020EC030020A8090020D6
:10819800AC090020B009002000000C40280800208D
:1081A8001C090020FF7F00006408002068080020E8
:1081B8000000FFFF014B18687047C0461C020020F2
:1081C80008B5012003F062FF054803F071FF0320A2
:1081D8000021012203F096FF03F070FF08BDC0469E
:1081E800409C00007047C0467047C0467047C04674
:1081F8007047C0467047C0467047C0467047C04683
:108208007047C0467047C04610B5FFF7D3FF084C0B
:108218002368C01AFA235B00984207D9054B8022CD
:10822800596B4A409A62FFF7C5FF206010BDC046EF
:10823800B409002000100540024BC000C018C079E6
:108248007047C04620020020024BC000C018407989
:108258007047C04620020020024BC000C018807939
:108268007047C04620020020024BC000C018007AA8
:108278007047C04620020020024BC000C018407A58
:108288007047C04620020020024BC000C018C07AC8
:108298007047C04620020020024BC000C018807AF8
:1082A8007047C04620020020024BC000C018007B67
:1082B8007047C04620020020024BC000C018407B17
:1082C8007047C04620020020024BC000C018807BC7
:1082D8007047C0462002002083001818014BC018C0
:1082E800007C70472002002083001818014BC0183A
:1082F800407C70472002002083001818014BC018EA
:10830800807C70472002002083001818014BC01899
:10831800C07C70472002002083001818014BC01849
:10832800007D70472002002043001818014BC01838
:10833800007E70472002002043001818024BC01826
:10834800407E40B27047C046200200204300181803
:10835800014BC018807E704720020020C300181A05
:10836800014BC018007F704720020020C300181A74
:10837800014BC018407F704720020020C300181A24
:10838800014BC018807F704720020020C300181AD4
:10839800014BC018C07F704720020020C300181A84
:1083A800024BC0181C3000797047C04620020020DC
:1083B800C300181A024BC0181C3040797047C046D9
:1083C80020020020C300181A024BC0181C30807904
:1083D8007047C0462002002000B5062812D80A4B74
:1083E8008000C258094B97465B6A0AE09B6A08E01E
:1083F800DB6A06E01B6B04E05B6B02E09B6B00E052
:10840800DB7B0B6000BDC046FCDD000020020020C5
:1084180070B5010C051CC9B200220120FCF73CF81C
:108428000A4C0602290A6662C9B200220120FCF73A
:1084380033F8064336026662E9B201220120FCF7EE
:108448002BF806433609666270BDC046200200203C
:1084580010B5204A43001B189B18183301229A565E
:108468003F2A01DD3F225A701A4B42001218D218D7
:1084780018320123D3563F3302DA3F235B4253704D
:10848800144A43001B189B1818339A781F2A01D9DD
:108498001F229A700F4BC0221203DA63420012188F
:1084A800D218127E012A02D1D0221203DA63094CB3
:1084B80043001B181B191833E26B987810435A783D
:1084C8007F2313401B021843E063FFF7A1FFE36B10
:1084D800636310BD2002002008B54300034A1B183F
:1084E8009B189976FFF7B4FF08BDC046200200200C
:1084F80008B54300034A1B189B185976FFF7A8FFD5
:1085080008BDC0462002002008B54300034A1B18D6
:108518009B181976FFF79CFF08BDC0462002002073
:1085280010B5264A83001B189B181A7C012A01D90A
:1085380001221A74214A83001B189B1810335A7899
:10854800032A01D903225A701C4A83001B189B185E
:1085580010339A780F2A01D90F229A70174A83008C
:108568001B189B181033DA78032A01D90322DA7012
:10857800124A83001B189B1810331A790F2A01D945
:108588000F221A710D4C8100081801190B1C1033A9
:108598001879097CA02212031043C90308435978AB
:1085A800490308439978DB78090208435B011843BB
:1085B800E063FFF72DFFE36B236310BD200200206B
:1085C80008B58300034A1B189B181975FFF7A8FF05
:1085D80008BDC0462002002008B58300034A1B18C6
:1085E8009B18D974FFF79CFF08BDC04620020020E5
:1085F80008B58300034A1B189B189974FFF790FF6E
:1086080008BDC0462002002008B58300034A1B1895
:108618009B185974FFF784FF08BDC046200200204C
:1086280008B58300034A1B189B181974FFF778FFD5
:1086380008BDC0462002002010B5314BC200D31837
:108648001A7A032A01D903221A722D4BC200D318B1
:1086580008339A78032A01D903229A70284BC2005A
:10866800D31808331A790F2A01D90F221A71244B0B
:10867800C200D31808335A79072A01D907225A7138
:108688001F4BC200D31808339A790F2A01D90F2239
:108698009A711B4BC400E418227A8021D203090383
:1086A8001143D963627A002A03D08022D201114390
:1086B800D963134BC200D218D27A002A04D0D96BDE
:1086C800802292010A43DA630D4BC000C0180830BB
:1086D80081780279C902D2010A43D96B0A434179E8
:1086E80009010A43DA63C179002902D181790A4371
:1086F800DA63034CE06BFFF78BFEE36BE36210BDBC
:108708002002002008B5002806D1044BDA7B002A95
:1087180002D0D873FFF790FF08BDC04620020020A2
:1087280008B5002807D1044BDA7B002A03D10122BF
:10873800DA73FFF781FF08BD2002002008B5034B5C
:10874800C200D3189973FFF777FF08BD20020020F5
:1087580008B5034BC200D3185973FFF76DFF08BD66
:108768002002002008B5034BC200D3181973FFF785
:1087780063FF08BD2002002008B5034BC200D318D0
:108788009972FFF759FF08BD2002002008B5034B76
:10879800C200D318D972FFF74FFF08BD200200208E
:1087A80008B5034BC200D3185972FFF745FF08BD3F
:1087B8002002002008B5034BC200D3181972FFF736
:1087C8003BFF08BD2002002010B5204BC200121A42
:1087D800D218141C1C34117F6278890312030A43CF
:1087E800E02109031143D963A278012A03D1802229
:1087F800D2001143D963154BC100091AC9181C319D
:10880800CA78DC6B12022243DA630979012902D1A2
:1088180080210A43DA630D4BC200121AD2181C32A7
:108828005279012A03D1D96B40220A43DA63074CF3
:10883800C300181A00191C308079E36B0001184333
:10884800E063FFF7E5FDE36BA36310BD20020020A2
:1088580008B5C300034A1B1A9B181C339971FFF70C
:10886800B3FF08BD2002002070B5C3000D4A1B1AD3
:108878009B181C339E79041C032E02D00321FFF79A
:10888800E7FF201CFFF7A0FF064B5D6A2B0301D50D
:10889800054B1D43032E03D0201C311CFFF7D8FFC6
:1088A800281C70BD200200200000F0FF08B5C3009E
:1088B800034A1B1A9B181C335971FFF785FF08BD23
:1088C8002002002008B5C300034A1B1A9B181C335A
:1088D8001971FFF779FF08BD2002002008B5C30011
:1088E800034A1B1A9B18D977FFF76EFF08BDC046CD
:1088F8002002002008B5C300034A1B1A9B18997769
:10890800FFF762FF08BDC0462002002008B5C3007B
:10891800034A1B1A9B185977FFF756FF08BDC04634
:108928002002002008B5C300034A1B1A9B181977B8
:10893800FFF74AFF08BDC0462002002010B5154BBE
:108948000022DA63C200D2185279002A02D08022AB
:108958009200DA630F4BC200D2189279002A04D031
:10896800D96B802252000A43DA630A4BC200D3183B
:10897800DA790F2A01D90F22DA71064CC0000019E2
:10898800E36BC0791843E063FFF742FDE36BA36232
:1089980010BDC04620020020F8B506AC277807AC09
:1089A8002678054CC50029552919CF700E714A70D3
:1089B8008B70FFF7C3FFF8BD2002002008B5034BFA
:1089C800C200D3189971FFF7B9FF08BD2002002033
:1089D80008B5054BC200D3185971002901D00422EB
:1089E800DA71FFF7ABFF08BD2002002008B5054B80
:1089F800C200D318D971042901D000225A71FFF797
:108A08009DFF08BD20020020F0B5314C83B01E1C2C
:108A1800231C019240331A5C051C0F1C042A1DD824
:108A28002C4B9200D3589F46FFF706FE4034012393
:108A380003E0FFF7C9FE40340223635510E0FFF757
:108A48006FFD40340323F8E7FFF702FD40340423A9
:108A5800F3E7FFF773FF40340023EEE700221A54D0
:108A6800EA001B4B551BED181C35AA79012A10D0BA
:108A7800002A02D0022A21D111E0002F02D05B6A1D
:108A88009B0C3B70019A002A18D0114B5B6A9B0A19
:108A980013E0002E12D05B6A9B0A33600EE0002EB2
:108AA80003D05B6ADB0B5B013360089B002B05D0AE
:108AB800074B089A5B6A5B04DB0E1370099B002B5B
:108AC80003D0034B099A5B6A137003B0F0BDC0462C
:108AD8002002002018DE000038B51B4B00220521BB
:108AE80001245D1C597699761C76EA779D1CEC77F3
:108AF8000320DD1C0224EC771877997358779A774E
:108B0800DA771A745A749A74DA741A755A719A71EF
:108B1800DA711C725A72DA729A721C735873DA73A9
:108B28000A4A8023DB0313630020FFF7F9FC0020C7
:108B3800FFF78EFC0020FFF747FE0020FFF7FEFE40
:108B48000020FFF779FD38BD200200200010054005
:108B58007047C0467047C046F0B5994B85B01A7843
:108B6800002A05D1974A5A609A60DA6001221A7081
:108B7800954D934C2B7B002B00D041E2FFF71AFB5D
:108B88002369C01AC117401848400A2800DCA6E229
:108B9800237D002B00D066E100200A2100F092FE20
:108BA800061C002825D1217D082349011943C9B293
:108BB800002000F087FE00281BD1FFF7FBFA237D79
:108BC8009A0011194968401AC117401848405901BC
:108BD8004919898B8F0079184900884227DD0132AD
:108BE800D2005519A978181CFBF7A8FB237D012191
:108BF8001BE0734BF217187DB418744B5440C20035
:108C0800D1588C4202D2D318197903E06E4A430135
:108C1800D318597AFBF792FB694C257DFFF7CAFAFE
:108C2800AD002D19237D68600021694AD154644C38
:108C3800684A207D00218300D318674A12180092E1
:108C4800664A121801920022FFF7DEFE207D5E4D73
:108C580043015B199B69002B19D0FBF737FB0028F0
:108C680015D0F317207DF2185A4043015D19AB69FE
:108C78009A420CD900F0C8FE237D594A0121D154EB
:108C8800584A0F33D15C012901D10221D154002E59
:108C98000AD14B4B0020197D082349011943C9B259
:108CA80000F010FE002805D0454D4F4B2C7D1B5D74
:108CB800002B2BD0424B44491B7D5A018A18D2897C
:108CC800002A03D1484AD35C002B24D0FFF772FA5C
:108CD8003B4C237D9A00111989690132401AC1174A
:108CE800401848403849D2005218D28891008A1852
:108CF800520090420FDD3D4DEA5C002A0BD1181C52
:108D0800FFF70EFD237D0122EA5404E0FFF752FA33
:108D1800A4006519A8612A4C2B4D217D4B01EB1845
:108D28005B69002B00D19EE0002E00D19BE0304B08
:108D38005B5C002B00D096E0022349011943C9B2BD
:108D4800002000F0A5FD061C207D01F093F8217D90
:108D5800361A4B01EB185B69F217B618D81756404C
:108D68001A184240964200DC7DE0002B42DD081CC8
:108D780000F04AFE237D5B015B199B7F002B14D01A
:108D88001E3500240E4B104A1B7D5B019B189A7FF1
:108D98002B789A4205D1201C00F036FEE0B200F094
:108DA800C3F901342035032CECD1054B0D4A1B7D4A
:108DB8001533D15C01294FD10221D1544CE0C04672
:108DC80064020020FFFFFF7FBC080020300800205D
:108DD8006C090020540800202C080020B808002046
:108DE800B4080020780900207009002074090020C8
:108DF8004C0800200020022200F028FD217D0823D5
:108E080049011943C9B2002000F0F0FD237D5B0140
:108E18005B199B7F002B1FD02E1C1E360024B14BE4
:108E2800B14A1B7D5B019B189A7F33789A420FD118
:108E3800E5B20020291C022200F008FD0823690180
:108E480019430020C9B200F0D1FD281C00F06CF9CC
:108E580001342036032CE2D1A24B0122187DA34B0A
:108E68001A5400F061F99F4C237D022B1ED8002074
:108E780000F032FC053403ABE27F1870F82313408E
:108E8800E377C10702D501221343E377420705D5EB
:108E9800944B02220533D97F0A43DA77C30605D5F6
:108EA800904B04220533D97F0A43DA77904A137826
:108EB800002B0BD08B490531C97F0B4206D18D4958
:108EC8000B708D4B1B78002B00D11370894B1B78CE
:108ED800002B08D0834A0532D27F1A409A4202D129
:108EE800864B01221A707F4901224B1DDB7F1342FA
:108EF80009D00631C97F114205D1814AD1780129AB
:108F080001D10221D1700222134209D075490631DC
:108F1800C97F114204D17A490879012800D10A7120
:108F2800042213420AD06F490631C97F114205D184
:108F3800734A5179012901D102215171694D0321E7
:108F48002C7DAA1DD377201C03F0ECF903ABC0B22B
:108F58001B56002B43DA16236101194302ACC9B230
:108F68000020221C00F0C4FCA378580608D52A7DEE
:108F7800634952001B32885C012801D102208854C1
:108F88005AB2002A09DA574A5D49127D0E32520058
:108F9800885C012801D102208854D90609D5514A94
:108FA8005749127D52001B32885C012801D10220EA
:108FB80088549A0609D54B4B514A1B7D0E335B00EA
:108FC800D15C012901D10221D154464B0020197DE1
:108FD800162349011943C9B202AA00F039FD414CD0
:108FE800207D00F0B1F8237D0133DBB22375032B1C
:108FF80001D900232375FFF7DDF83A4B18616EE0BD
:10900800002323753F4B404E0093002000223F4B26
:1090180000210196FFF7F8FC207D32560319002A3B
:1090280021DB28331B78022B03D1394B1B5C002B27
:1090380011D02D4A4301D318597AFBF77FF9294CEF
:10904800207DFFF75FFB237D02221C192834227044
:109058002F4A0021D154234C257DFFF7ABF8AD00F2
:109068002C1960603BE028331B78012B11D0FFF7E7
:10907800A1F8237D9A0014195B0162685D19AB8B16
:10908800801AC1179A004018D31848405B009842CC
:1090980005DC144B1E4A1B7DD35C002B1FD0114CE2
:1090A800114D207D4301EB18997AFBF747F9207D94
:1090B8004301ED18AB7A002B02D1FFF731FB05E035
:1090C800134B1B5C002B01D0FFF71CFB054A012149
:1090D800137D9A18283211700D4A0021D15405B019
:1090E800F0BDC04664020020BC0800204C080020E7
:1090F800500800204F08002024080020A70900205D
:10910800780900202C080020B80800205408002006
:109118006409002000B5034B1A5C002A01D1012222
:109128001A5400BD9002002000B5034B1A5C002AB7
:1091380001D00F221A5400BD90020020014B185C88
:109148007047C04690020020F0B587B0450105AED3
:10915800EDB27C21041C321C2943002000F0C8FB1E
:1091680061000291B37802228A401A4001920122DA
:109178008A40134003936201D94B0832D35C7F269F
:109188001E405BB2002B05DA0020FBF7E9F84742E6
:10919800474105E00020FBF7E3F8071C7B1E9F41D1
:1091A800002E00D18FE2042E03D9082E00D98AE2BE
:1091B80046E1CC4B1B5D013BDBB20E2B00D982E2B2
:1091C800C94A9B009B589F461421294305AA0020A1
:1091D80000F08EFBC34A69464B7DA700BF187B6031
:1091E80006231D43291C002000F06CFB211C38615C
:1091F8000222002000F02AFB023E0020291CBB4A64
:1092080000F0E4FBF6B20020211C032200F0FCFA77
:10921800012E01D8022341E1B24904230B5552E241
:10922800B04EA3009B195A6804231A4001231A431D
:109238000020211C00F0E8FAA94B08216201D2584D
:109248002943002000F0C2FB032323E0039A002AED
:1092580000D138E202212943002000F019FBA44B79
:10926800A200D050042221E29E4EA3009B195A6806
:1092780004231A4002231A430020211C00F0C4FAD8
:10928800974B6201D258082129435242002000F02E
:109298009DFB0523335516E2019B002B00D112E2FA
:1092A800201C00F0B1FB062200E2211C0020032252
:1092B80000F0AAFA8A4B6201D318082129435A6898
:1092C800002000F083FB58E10199002900D0FAE161
:1092D80008231D430020291C002200F077FB804B47
:1092E8006201D3185A6800205242291C00F06EFB14
:1092F8007C4B0822DBE1019A002A00D1E3E102213C
:109308002943002000F0C4FA0821071C2943002043
:10931800002200F05BFB764BA200D1580020C91B4D
:10932800D150211C032200F06FFA6D4B6601F3182F
:1093380006215A682943002000F048FBF1B20020BA
:109348003A1C00F033FB00220020211C00F07EFABA
:109358000922ABE1002000F0BFF9029B1841C107C8
:1093680000D4B0E108232B43191C002000220193EC
:1093780000F02CFB0020211C022200F067FA0221D9
:109388002943002000226701033E00F00FFBF6B2DC
:10939800F9B20020002200F009FB524D012E0ED830
:1093A8000020211C022200F051FA4D4B0020FF182A
:1093B8007A680199524200F009FB0A2382E10E23E0
:1093C80080E1019B002B00D17DE10B226EE1019928
:1093D800002900D077E102212943002000F058FA43
:1093E8000821061C29430020002200F0EFFAF20FA2
:1093F80061019619C9B27210002000F0D7FA002254
:109408000020211C00F022FA0D224FE1002000F07C
:1094180063F9029A1041C30700D454E145E1314F82
:10942800A600F619062129433269002000F0CEFA79
:1094380032790020211C00F0E7F900233B5542E176
:10944800284B1B5D013BDBB20E2B00D93BE1294ABF
:109458009B009B589F4605AF142129433A1C0020C6
:1094680000F046FA1F497A78A3005B185A6000207A
:10947800211C022200F0EAF90621294300201B4A98
:1094880000F0A4FA0020211C032200F0BDF9082EE8
:1094980001D0062E01D1022208E10423114A1355F6
:1094A80011E1062E0AD10F4BA200D3185A680423E3
:1094B8001A4001231A430020211C04E0082E04D17D
:1094C8000020211C032200F09FF9054B08216201AE
:1094D800D2582943002000F079FA0322E6E0C0467A
:1094E800BC080020900200202CDE0000FF070000CE
:1094F8001808002068DE0000039B002B08D0731FAB
:10950800DBB2012B04D8714D062E31D10423D9E0EA
:10951800002F00D1D7E00C22C8E0052E0AD16B4BF2
:10952800A200D3185A6804231A4002231A430020C1
:10953800211C04E0072E04D10020211C032200F086
:1095480063F9634B6201D258082152422943002033
:1095580000F03CFA0522A9E0019900290AD0731FFE
:10956800DBB2012B06D8594D052E01D10223A9E003
:109578000F23A7E0002F00D1A5E0072296E0002FD7
:1095880000D0A0E0514EA3009B195A6804231A404A
:1095980001231A43211C002000F036F94C4B6201CC
:1095A8000821D31829435A6815E0002F00D08AE013
:1095B800464EA3009B195A6804231A4002231A43F3
:1095C800211C002000F020F9414B6201D3185A6891
:1095D800082129435242002000F0F8F90A2359E6ED
:1095E800002F70D002212943002000F051F9374B99
:1095F800A200D218D0610B2259E0002F63D10221BA
:109608002943002000F044F9A200314B01920132B5
:109618006601D200D2180621F31802902943577127
:1096280000205A6800F0C2F9019A284DF1B2531986
:10963800DA69029B00209A18D30F9A18521000F08A
:10964800B5F90020211C002200F000F90D2339E0B3
:10965800002000F041F802990841C20733D51B4B9E
:109668000E2208211A5529430020002200F0AEF9E5
:10967800211C0020022200F0E9F8022129430020E1
:109688000022640100F092F9E1B20020002200F00B
:109698008DF918E00020211C022200F0D7F80821DB
:1096A80029430020002200F091F90E22074B1A5599
:1096B80009E0064DA3005B191A790020211C00F06F
:1096C800A3F800232B5507B0F0BDC0469002002038
:1096D800BC0800200000000008B50020012101227C
:1096E800FAF7DAFE08BDC046F8B51378061C5D0621
:1096F800AD0F0F1C141C002D27D13D4A127B002AE8
:1097080023D1DA0721D45F2B1FD83A4A1278002ACE
:109718001BD19F221340082B01D0002B15D1364AAC
:109728001378002B07D0324B0020597AFAF706FE3F
:10973800314A00231370314A1378002B05D00020DA
:10974800FEF7E0FF2D4A0023137021780022002045
:10975800FAF7A2FE3870617800220020FAF79CFE22
:109768007870A17800220020FAF796FEB870E178A8
:1097780000200122FAF790FEF8702378DA0735D432
:109788005F2B33D81E221340082B04D0142B23D070
:10979800062B2BD112E0A1786800E2784519F00079
:1097A8008619090211437519154AAD00A950A07808
:1097B80018421BD0134B1943A95017E06B005D19D1
:1097C800F3009E1975190E4BAD00ED18A378E278D9
:1097D8001B0213436B6009E06B005D19F3009E19CF
:1097E8007519074BAD00ED18E3782B72F8BDC0462C
:1097F800BC080020700900206C09002074090020B2
:109808006C08002000F0FFFFF0B585B04F0103ACF5
:1098180002ADFFB215233B43291C0192221C061CF2
:109828002370FFF761FF14231F4327706B786A4684
:109838006370131D1A78301CA270EB78291C221C47
:10984800E370FFF751FF05B0F0BDC046F0B585B035
:109858004F0103AC02ADFFB215233B43291C019213
:10986800221C061C2370FFF73FFF14231F43277099
:109878006B786A466370AB78301CA370131D1A7836
:10988800291CE270221CFFF72FFF05B0F0BDC0466F
:1098980010B582B00123194301AC6A461170211C2E
:1098A800FFF722FF6078A37800041B021843E378CF
:1098B800184380231B04184202D0FF231B061843B9
:1098C80002B010BD10B582B00123194301AC6A463D
:1098D8001170211CFFF708FFA078E37800021843F5
:1098E800030501D5014B184302B010BD00F0FFFF7E
:1098F80030B583B0012301AC151C19436A461170B9
:10990800211CFFF7F1FE637803B02B70A378207851
:109918006B70E378AB7030BD10B5162382B041018F
:10992800194301ACC9B20020221CFFF7E1FF63789C
:10993800D8099A0601D50223184302B010BDC046C3
:1099480010B5162382B04101194301ACC9B20020F9
:10995800221CFFF7CDFF63785806C00FDA0601D541
:109968000223184302B010BD70B582B00E1C41012D
:1099780001AC3143221C051CC9B20020FFF7B8FF17
:10998800B4235D437608730001359E19FF35AD1980
:10999800281C2178FEF7DEF8681C6178FEF7DAF8F3
:1099A800A81CA178FEF7D6F802B070BD00B583B048
:1099B80001AB19701114597011129970DA70694657
:1099C8001A1CFFF791FE03B000BDC04600B583B076
:1099D80001AB19700021597011129970DA7069463B
:1099E8001A1CFFF781FE03B000BDC04600B583B066
:1099F80001AA00231170537069469370D370FFF762
:109A080073FE03B000BDC04610B5C4B20222211CCB
:109A180000206401FFF71AFFE4B208212143002067
:109A2800FFF7E4FF0A2121430020FFF7DFFF10BD05
:109A380030B583B0141C06AA157801AA1170D57028
:109A4800694654709370FFF74FFE03B030BDC046AF
:109A580000B583B001AB19701178597051789970BD
:109A680092786946DA701A1CFFF73EFE03B000BD13
:109A780070B54601162382B01E4301ACF6B2221C13
:109A88000D1C0020311CFFF733FF6278EB0704D56B
:109A980080235B421343637002E07F231A406270A5
:109AA80001ABAA0703D5597820220A4302E05A7865
:109AB80020218A435A7001AA0023311C9370002088
:109AC800FFF7C6FF02B070BD70B5162346011E43EE
