:020000040800F2
:100000003808002089010008F1010008F10100080A
:10001000F1010008F1010008F101000800000000F2
:10002000000000000000000000000000F1010008D6
:10003000F101000800000000F10100084D0800086F
:10004000F1010008F1010008F1010008F1010008C8
:10005000F1010008F1010008F1010008F1010008B8
:10006000F1010008F1010008F1010008F1010008A8
:10007000F1010008F1010008F1010008F101000898
:10008000F1010008F1010008F1010008F101000888
:10009000F1010008F1010008F1010008F101000878
:1000A000F1010008F1010008F1010008F101000868
:1000B000F90C0008F1010008F1010008F101000845
:1000C000F1010008F1010008F1010008F101000848
:1000D000F1010008F1010008F1010008F101000838
:1000E000F1010008F1010008F1010008F101000828
:1000F000F1010008F1010008F1010008F101000818
:10010000F1010008F1010008F1010008F101000807
:10011000F1010008F1010008F1010008F1010008F7
:10012000F1010008F1010008F1010008F1010008E7
:10013000F1010008F1010008F1010008F1010008D7
:10014000F1010008F1010008F1010008F1010008C7
:10015000F1010008F1010008F1010008F1010008B7
:10016000F1010008F1010008F1010008F1010008A7
:10017000F1010008F1010008F1010008F101000897
:10018000F1010008F101000880B582B000AF40F62F
:10019000A053C0F600037B6040F20003C2F20003EC
:1001A0003B600BE07B681A683B681A603B6803F1B0
:1001B00004033B607B6803F104037B603A6840F210
:1001C0001003C2F200039A42ECD3074807494FF0EC
:1001D00000028842B8BF40F8042BFADB00F0A4F814
:1001E00007F10807BD4680BD100000203400002044
:1001F00080B400AFFEE700BF80B582B000AF78608A
:100200004FF48050C4F202004FF4006100F04AFC49
:100210004FF48050C4F202004FF4805100F050FCC3
:100220004FF48050C4F202004FF4005100F03AFC49
:100230004FF48050C4F202004FF4804100F040FCC3
:100240007B68184600F0EAFA4FF48050C4F20200CE
:100250004FF4006100F034FC4FF48050C4F202000F
:100260004FF4805100F01EFC4FF48050C4F20200A5
:100270004FF4005100F016FC4FF48050C4F202001D
:100280004FF4804100F01CFC7B68184600F0C6FA71
:100290004FF48050C4F202004FF4006100F010FCF3
:1002A0004FF48050C4F202004FF4805100F0FAFB8A
:1002B0004FF48050C4F202004FF4005100F000FCF3
:1002C0004FF48050C4F202004FF4804100F0EAFB8A
:1002D0007B68184600F0A2FA4FF48050C4F2020086
:1002E0004FF4006100F0DEFB4FF48050C4F20200D6
:1002F0004FF4805100F0E4FB4FF48050C4F2020050
:100300004FF4005100F0DCFB4FF48050C4F20200C7
:100310004FF4804100F0C6FB7B68184600F07EFA7F
:1003200007F10807BD4680BD80B584B000AF00F07E
:10033000D5FB00F02BFA4FF001004FF0010100F067
:1003400099F940F22C03C2F200034FF001021A6047
:1003500040F22C03C2F200034FF000021A7140F287
:100360002C03C2F200034FF000029A7140F22C03FA
:10037000C2F200034FF00002DA7140F22C03C2F225
:1003800000034FF003025A714FF00000C4F2020064
:1003900040F22C01C2F2000100F0BCFA4FF0100054
:1003A0004FF0010100F066F940F22C03C2F20003A5
:1003B0004FF4F0421A6040F22C03C2F200034FF0F7
:1003C00001021A7140F22C03C2F200034FF0000246
:1003D0009A7140F22C03C2F200034FF00002DA716E
:1003E00040F22C03C2F200034FF003025A714FF4A3
:1003F0008050C4F2020040F22C01C2F2000100F071
:1004000089FA4FF008004FF0010100F033F940F293
:100410002C03C2F200034FF4C0421A6040F22C03D6
:10042000C2F200034FF001021A7140F22C03C2F233
:1004300000034FF000029A7140F22C03C2F2000355
:100440004FF00002DA7140F22C03C2F200034FF0C9
:1004500003025A714FF44060C4F2020040F22C01D2
:10046000C2F2000100F056FA4FF00003FB604FF0BB
:100470000003BB604FF000037B6000E000BF4FF063
:100480000000C4F202004FF0010100F0EDFA034653
:100490007B607B68012BF1D14CF25030FFF7ACFE52
:1004A000ECE700BF80B489B000AF78604FF0000384
:1004B000BB614FF000037B614FF00003FB614FF025
:1004C00002033B614FF00003FB604FF00203BB608F
:1004D0004FF46053C4F202039B6803F00C03BB614A
:1004E000BB69042B0AD0082B0FD0002B62D17A688D
:1004F0004FF41053C0F2F403136062E07A6847F6D9
:100500004003C0F27D1313605BE04FF46053C4F20C
:1005100002035B6803F480034FEA9353FB604FF4DC
:100520006053C4F202035B6803F03F03BB60FB68E7
:10053000002B15D047F64003C0F27D13BA68B3FB19
:10054000F2F24FF46053C4F202035B68194647F6B7
:10055000C0730B404FEA931303FB02F3FB6114E0FB
:100560004FF41053C0F2F403BA68B3FBF2F24FF445
:100570006053C4F202035B68194647F6C0730B4030
:100580004FEA931303FB02F3FB614FF46053C4F291
:1005900002035B6803F440334FEA134303F10103A2
:1005A0004FEA43033B61FA693B69B2FBF3F27B68B4
:1005B0001A6006E07A684FF41053C0F2F403136037
:1005C00000BF4FF46053C4F202039B6803F0F003D2
:1005D000BB61BB694FEA1313BB6140F20003C2F277
:1005E0000003BA699B181B78DBB27B617B681A68D1
:1005F0007B6922FA03F27B685A604FF46053C4F2BD
:1006000002039B6803F4E053BB61BB694FEA932389
:10061000BB6140F20003C2F20003BA699B181B7869
:10062000DBB27B617B685A687B6922FA03F27B68E4
:100630009A604FF46053C4F202039B6803F4604372
:10064000BB61BB694FEA5333BB6140F20003C2F2A6
:100650000003BA699B181B78DBB27B617B685A6820
:100660007B6922FA03F27B68DA6007F12407BD4652
:1006700080BC704780B483B000AF78600B46FB70DD
:10068000FB78002B0DD04FF46053C4F202034FF4FB
:100690006052C4F20202126B11467A680A431A636E
:1006A0000EE04FF46053C4F202034FF46052C4F200
:1006B0000202126B11467A686FEA02020A401A635C
:1006C00007F10C07BD4680BC704700BF80B483B003
:1006D00000AF03463960FB7197F90730002B10DA41
:1006E0004FF46D43CEF20003FA7902F00F02A2F14B
:1006F00004013A68D2B24FEA0212D2B25B181A76FB
:100700000DE04FF46143CEF2000397F907103A6809
:10071000D2B24FEA0212D2B25B1883F8002307F17B
:100720000C07BD4680BC704780B582B000AF7860D2
:100730007A686FF07F439A4202D94FF001031FE0BD
:100740004EF21003CEF200037A6822F07F4202F1EB
:10075000FF325A604FF0FF304FF00F01FFF7B6FF46
:100760004EF21003CEF200034FF000029A604EF2F8
:100770001003CEF200034FF007021A604FF000039F
:10078000184607F10807BD4680BD00BF80B584B09C
:1007900000AF40F21003C2F200034FF000021A60F3
:1007A00040F21403C2F200034FF000021A6040F25C
:1007B0001803C2F200034FF000021A6040F21C035B
:1007C000C2F200034FF000021A6040F21C03C2F2B2
:1007D00000034FF000025A6040F22403C2F200030B
:1007E0004FF000021A6040F22403C2F200034FF0FF
:1007F00000025A603B461846FFF754FE7A684DF6F1
:100800008363C4F21B33A3FB02134FEA93431846DE
:10081000FFF78AFF07F11007BD4680BD80B483B0A3
:1008200000AF78607A6840F21003C2F200031A60E9
:1008300000BF40F21003C2F200031B68002BF8D186
:1008400007F10C07BD4680BC704700BF80B400AF05
:1008500040F21003C2F200031B68002B0BD040F2E1
:100860001003C2F200031B6803F1FF3240F21003D1
:10087000C2F200031A6040F21403C2F200031B68C4
:10088000002B0BD040F21403C2F200031B6803F1EB
:10089000FF3240F21403C2F200031A6040F2180360
:1008A000C2F200031B68002B0BD040F21803C2F207
:1008B00000031B6803F1FF3240F21803C2F2000389
:1008C0001A6040F21C03C2F200031B68002B0BD01D
:1008D00040F21C03C2F200035B6803F1010240F224
:1008E0001C03C2F200035A6040F22403C2F2000368
:1008F0001B68002B0BD040F22403C2F200035B689C
:1009000003F1010240F22403C2F200035A60BD4623
:1009100080BC704780B487B000AF786039604FF01A
:1009200000037B614FF000033B614FF00003FB606D
:100930004FF000037B618EE07B694FF0010202FA09
:1009400003F33B613B681A683B691340FB60FA683C
:100950003B699A427BD17B681B681A467B694FEAE8
:1009600043034FF0030101FA03F36FEA03031A4054
:100970007B681A607B681B681A463B681B791946BE
:100980007B694FEA430301FA03F31A437B681A6059
:100990003B681B79012B03D03B681B79022B38D1B4
:1009A0007B689B681A467B694FEA43034FF003015B
:1009B00001FA03F36FEA03031A407B689A607B68CD
:1009C0009B681A463B685B7919467B694FEA43038B
:1009D00001FA03F31A437B689A607B685B681A46E6
:1009E0007B699BB24FF0010101FA03F36FEA030345
:1009F0001A407B685A607B685B681A463B689B7943
:100A000019467B699BB201FA03F39BB21A437B68D8
:100A10005A607B68DB681A467B699BB24FEA4303E6
:100A20004FF0030101FA03F36FEA03031A407B68F6
:100A3000DA607B68DB681A463B68DB7919467B69BC
:100A40004FEA430301FA03F31A437B68DA607B69D8
:100A500003F101037B617B690F2B7FF66DAF07F11B
:100A60001C07BD4680BC704780B485B000AF78607D
:100A70000B467B804FF00003FB737B681B691A46B3
:100A80007B881340002B03D04FF00103FB7302E07F
:100A90004FF00003FB73FB7B184607F11407BD46BC
:100AA00080BC704780B483B000AF78600B467B8019
:100AB0007B687A881A8307F10C07BD4680BC7047B3
:100AC00080B483B000AF78600B467B807B687A8807
:100AD0005A8307F10C07BD4680BC704780B500AF54
:100AE0004FF46053C4F202034FF46052C4F20202A6
:100AF000126842F001021A604FF46053C4F202031C
:100B00004FF000029A604FF46053C4F202034FF4B6
:100B10006052C4F20202126822F0847222F480321F
:100B20001A604FF46053C4F2020343F21002C2F29F
:100B300000425A604FF46053C4F202034FF4605213
:100B4000C4F20202126822F480221A604FF4605349
:100B5000C4F202034FF00002DA6000F009F84FF42B
:100B60006D43CEF200034FF000629A6080BD00BF7B
:100B700080B483B000AF4FF000037B604FF0000300
:100B80003B604FF46053C4F202034FF46052C4F26E
:100B90000202126842F480321A604FF46053C4F2C9
:100BA00002031B6803F400333B607B6803F101031D
:100BB0007B603B68002B03D17B68B3F5A06FECD161
:100BC0004FF46053C4F202031B6803F40033002B9C
:100BD00003D04FF001033B6002E04FF000033B60A5
:100BE0003B68012B40F082804FF46053C4F2020353
:100BF0004FF46052C4F20202126C42F080521A6446
:100C00004FF4E043C4F200034FF4E042C4F20002A8
:100C1000126842F480421A604FF46053C4F2020337
:100C20004FF46052C4F2020292689A604FF460532B
:100C3000C4F202034FF46052C4F20202926842F41A
:100C400000429A604FF46053C4F202034FF46052C2
:100C5000C4F20202926842F4A0529A604FF46053C8
:100C6000C4F2020345F21942C0F240725A604FF4D6
:100C70006053C4F202034FF46052C4F202021268DD
:100C800042F080721A6000BF4FF46053C4F2020356
:100C90001B6803F00073002BF6D04FF47053C4F2BE
:100CA000020340F205621A604FF46053C4F202037B
:100CB0004FF46052C4F20202926822F003029A607A
:100CC0004FF46053C4F202034FF46052C4F20202C4
:100CD000926842F002029A6000BF4FF46053C4F27F
:100CE00002039B6803F00C03082BF6D107F10C07F5
:100CF000BD4680BC704700BF80B500AF4FF080405C
:100D00004FF0010100F00AF80346002B05D04FF028
:100D100080404FF0010100F031F880BD80B485B013
:100D200000AF78600B467B804FF00003FB734FF001
:100D30000003BB814FF000037B817B681B8A9AB262
:100D40007B881340BB817B689B899AB27B88134068
:100D50007B81BB89002B06D07B89002B03D04FF011
:100D60000103FB7302E04FF00003FB73FB7B1846AB
:100D700007F11407BD4680BC704700BF80B483B044
:100D800000AF78600B467B807B886FEA03039AB2E2
:100D90007B681A8207F10C07BD4680BC704700BF14
:100DA0000000000001020304010203040607080911
:0400000508000000EF
:00000001FF
