:020000040800F2
:100000008C08002089010008F5010008F5010008AE
:10001000F5010008F5010008F501000800000000E6
:10002000000000000000000000000000F5010008D2
:10003000F501000800000000F5010008F5010008C6
:10004000F5010008F5010008F5010008F5010008B8
:10005000F5010008F5010008F5010008F5010008A8
:10006000F5010008F5010008F5010008F501000898
:10007000F5010008F5010008F5010008F501000888
:10008000F5010008F5010008F5010008F501000878
:10009000F5010008F5010008F5010008F501000868
:1000A000F5010008F5010008F5010008F501000858
:1000B000F5010008F5010008F5010008F501000848
:1000C000F5010008F5010008F5010008F501000838
:1000D000F5010008F5010008F5010008F501000828
:1000E000F5010008F5010008F5010008F501000818
:1000F000F5010008F5010008F5010008F501000808
:10010000F5010008F5010008F5010008F5010008F7
:10011000F5010008F5010008F5010008F5010008E7
:10012000F5010008F5010008F5010008F5010008D7
:10013000F5010008F5010008F5010008F5010008C7
:10014000F5010008F5010008F5010008F5010008B7
:10015000F5010008F5010008F5010008F5010008A7
:10016000F5010008F5010008F5010008F501000897
:10017000F5010008F5010008F5010008F501000887
:10018000F5010008F501000880B582B000AF40F627
:100190003873C0F600037B6040F20003C2F2000334
:1001A0003B600BE07B681A683B681A603B6803F1B0
:1001B00004033B607B6803F104037B603A6840F210
:1001C0008C03C2F200039A42ECD3084808494FF06E
:1001D00000028842B8BF40F8042BFFF6FAAF00F0E7
:1001E000D3F807F10807BD4680BD00008C00002051
:1001F0008C00002080B400AFFEE700BF80B584B063
:1002000000AF4FF00003FB7362E0F97B40F20002A5
:10021000C2F200020B464FEA83035B184FEA8303E6
:10022000D31803F10C031B6818464FF0010100F0CE
:10023000F5F8F97B40F20002C2F200020B464FEAE9
:1002400083035B184FEA8303D31803F108031B8869
:100250007B604FF001033B724FF00003BB724FF025
:100260000103FB724FF002037B72F97B40F2000244
:10027000C2F200020B464FEA83035B184FEA830386
:10028000D31803F104031A6807F104031046194652
:1002900000F0A2FCF97B40F20002C2F200020B4621
:1002A0004FEA83035B184FEA8303D31803F110036B
:1002B0001B78002B04D1FB7B184600F011F803E0FB
:1002C000FB7B184600F036F8FB7B03F10103FB7360
:1002D000FB7B032B99D907F11007BD4680BD00BFFA
:1002E00080B483B000AF0346FB71F97940F200029D
:1002F000C2F200020B464FEA83035B184FEA830306
:10030000D31803F104031868F97940F20002C2F22D
:1003100000020B464FEA83035B184FEA8303D318AE
:1003200003F108031B88438307F10C07BD4680BC1B
:10033000704700BF80B483B000AF0346FB71F9790A
:1003400040F20002C2F200020B464FEA83035B1840
:100350004FEA8303D31803F104031868F97940F2D4
:100360000002C2F200020B464FEA83035B184FEA19
:100370008303D31803F108031B88038307F10C07D9
:10038000BD4680BC704700BF80B582B000AF00F0B2
:10039000C5FC00F057FAFFF731FF4FF0000000F006
:1003A0009BFA0346FB80FB88B3F5806F04D94FF0BE
:1003B0000000FFF7BFFF03E04FF00000FFF790FFE2
:1003C000FB88B3F5006F04D94FF00100FFF7B2FFCF
:1003D00003E04FF00100FFF783FFFB88B3F5406FA8
:1003E00004D94FF00200FFF7A5FF03E04FF0020031
:1003F000FFF776FF4FF0010000F06EFA0346FB8036
:10040000FB88B3F5006F04D94FF00300FFF792FFAC
:10041000C3E74FF00300FFF763FFBEE780B483B08C
:1004200000AF78600B46FB70FB78002B0CD04FF4CC
:100430006053C4F202034FF46052C4F20202116B23
:100440007A680A431A630DE04FF46053C4F2020362
:100450004FF46052C4F20202116B7A686FEA020232
:100460000A401A6307F10C07BD4680BC704700BF05
:1004700080B483B000AF78600B46FB70FB78002B34
:100480000CD04FF46053C4F202034FF46052C4F234
:100490000202516C7A680A435A640DE04FF46053CB
:1004A000C4F202034FF46052C4F20202516C7A6843
:1004B0006FEA02020A405A6407F10C07BD4680BC8D
:1004C000704700BF80B485B000AF786039604FF0EE
:1004D0000003FB604FF00003FB727B685B68FB600E
:1004E000FB6823F0407323F48073FB603B681B7947
:1004F0004FEA03223B681B681343FA681343FB600F
:100500007B68FA685A607B689B68FB60FA684FF208
:10051000FD73CCF2FF031340FB603B681A693B6834
:10052000DB681A433B689B681A433B685B794FEA78
:1005300043031343FA681343FB607B68FA689A60CD
:100540007B68DB6AFB60FB6823F47003FB603B683D
:100550001B7D03F1FF33DAB2FB7A1343FB72FB7AA4
:100560004FEA0353FA681343FB607B68FA68DA6268
:1005700007F11407BD4680BC704700BF80B485B04A
:1005800000AF78604FF00003FB604FF40C53C4F2EF
:1005900001035B68FB60FA6843F2E003CFF6FC738B
:1005A0001340FB607B681A687B685B681A437B6852
:1005B0009B681A437B68DB681343FA681343FB604C
:1005C0004FF40C53C4F20103FA685A6007F11407A0
:1005D000BD4680BC704700BF80B483B000AF786078
:1005E0000B46FB70FB78002B06D07B689B6843F0C2
:1005F00001027B689A6005E07B689B6823F001023A
:100600007B689A6007F10C07BD4680BC704700BF4D
:1006100080B485B000AF7860F970BA707B704FF02D
:100620000003FB604FF00003BB60FB78092B27D968
:100630007B68DB68FB60FA7813464FEA43039B183C
:10064000A3F11E034FF0070202FA03F3BB60BB687D
:100650006FEA0303FA681340FB607978FA7813466F
:100660004FEA43039B18A3F11E0301FA03F3BB6097
:10067000FA68BB681343FB607B68FA68DA6022E0C3
:100680007B681B69FB60FA7813464FEA43039B18AB
:100690004FF0070202FA03F3BB60BB686FEA030383
:1006A000FA681340FB607978FA7813464FEA4303FF
:1006B0009B1801FA03F3BB60FA68BB681343FB6045
:1006C0007B68FA681A61BB78062B27D87B685B6B5E
:1006D000FB60BB7803F1FF3213464FEA83039B189C
:1006E0004FF01F0202FA03F3BB60BB686FEA03031B
:1006F000FA681340FB60F978BB7803F1FF321346C8
:100700004FEA83039B1801FA03F3BB60FA68BB68E6
:100710001343FB607B68FA685A6351E0BB780C2B8B
:1007200027D87B681B6BFB60BA7813464FEA8303BC
:100730009B18A3F123034FF01F0202FA03F3BB60DF
:10074000BB686FEA0303FA681340FB60F978BA7874
:1007500013464FEA83039B18A3F1230301FA03F323
:10076000BB60FA68BB681343FB607B68FA681A6376
:1007700026E07B68DB6AFB60BA7813464FEA8303A6
:100780009B18A3F141034FF01F0202FA03F3BB6071
:10079000BB686FEA0303FA681340FB60F978BA7824
:1007A00013464FEA83039B18A3F1410301FA03F3B5
:1007B000BB60FA68BB681343FB607B68FA68DA6267
:1007C00007F11407BD4680BC704700BF80B483B0FA
:1007D00000AF78607B689B6843F080427B689A60DA
:1007E00007F10C07BD4680BC704700BF80B483B0E2
:1007F00000AF78607B68DB6C9BB2184607F10C0792
:10080000BD4680BC704700BF80B485B000AF786043
:100810000B46FB704FF00003FB737B681A68FB7894
:100820001340002B03D04FF00103FB7302E04FF0A5
:100830000003FB73FB7B184607F11407BD4680BC21
:10084000704700BF80B500AF00F034F900F084F9C4
:1008500080BD00BF80B584B000AF0346FB714FF090
:100860000003FB81F97940F25002C2F200020B460C
:100870004FEA83035B184FEA8303D31803F1100395
:100880001B784FF40050C4F2010019464FF00102EA
:100890004FF00003FFF7BCFE4FF40050C4F201001C
:1008A000FFF794FF00BF4FF40050C4F201004FF077
:1008B0000201FFF7A9FF0346002BF4D04FF40050CC
:1008C000C4F20100FFF792FF0346FB81FB89184643
:1008D00007F11007BD4680BD80B586B000AF034666
:1008E000FB714FF000037B614FF001033B824FF03F
:1008F0000003FB81F97940F25002C2F200020B467C
:100900004FEA83035B184FEA8303D31803F1100304
:100910005B78002B06D14FF001033B824FF00003C0
:10092000FB81A6E0F97940F25002C2F200020B46C8
:100930004FEA83035B184FEA8303D31803F11003D4
:100940005B78012B06D14FF002033B824FF001038D
:10095000FB818EE0F97940F25002C2F200020B46B0
:100960004FEA83035B184FEA8303D31803F11003A4
:100970005B78022B06D14FF004033B824FF0020359
:10098000FB8176E0F97940F25002C2F200020B4698
:100990004FEA83035B184FEA8303D31803F1100374
:1009A0005B78032B06D14FF008033B824FF0030323
:1009B000FB815EE0F97940F25002C2F200020B4680
:1009C0004FEA83035B184FEA8303D31803F1100344
:1009D0005B78042B06D14FF010033B824FF00403E9
:1009E000FB8146E0F97940F25002C2F200020B4668
:1009F0004FEA83035B184FEA8303D31803F1100314
:100A00005B78052B06D14FF020033B824FF00503A6
:100A1000FB812EE0F97940F25002C2F200020B464F
:100A20004FEA83035B184FEA8303D31803F11003E3
:100A30005B78062B06D14FF040033B824FF0060354
:100A4000FB8116E0F97940F25002C2F200020B4637
:100A50004FEA83035B184FEA8303D31803F11003B3
:100A60005B78072B05D14FF080033B824FF00703E3
:100A7000FB814FF000037B820DE0FB791846FFF706
:100A8000E9FE0346BB81BB897A69D3187B617B8A07
:100A900003F101037B827A8A3B8A9A42EDD3FB8978
:100AA0007A6922FA03F3BB81BB89184607F118075C
:100AB000BD4680BD80B584B000AF4FF00003FB732E
:100AC00042E0F97B40F25002C2F200020B464FEACC
:100AD00083035B184FEA8303D31803F10C031B68ED
:100AE00018464FF00101FFF799FCF97B40F25002E4
:100AF000C2F200020B464FEA83035B184FEA8303FE
:100B0000D31803F108031B887B604FF003033B728B
:100B10004FF00003FB72F97B40F25002C2F2000278
:100B20000B464FEA83035B184FEA8303D31803F1A4
:100B300004031A6807F104031046194600F04CF844
:100B4000FB7B03F10103FB73FB7B022BB9D907F19C
:100B50001007BD4680BD00BF80B58AB000AF4FF41E
:100B600080704FF00101FFF783FC4FF00003BB6181
:100B70004FF48033FB614FF000033B624FF0000302
:100B80007B6207F118031846FFF7F8FC4FF00003EB
:100B90003B604FF000033B714FF000037B714FF05F
:100BA0000003BB604FF000033B614FF001033B7556
:100BB0003B464FF40050C4F201001946FFF782FC97
:100BC0004FF40050C4F201004FF00101FFF704FDA3
:100BD00007F12807BD4680BD80B487B000AF7860BC
:100BE00039604FF000037B614FF000033B614FF031
:100BF0000003FB604FF000037B6186E07B694FF0F0
:100C0000010202FA03F33B613B681A683B69134037
:100C1000FB60FA683B699A4273D17B681A687B690A
:100C20004FEA43034FF0030101FA03F36FEA0303B2
:100C30001A407B681A607B681A683B681B79194602
:100C40007B694FEA430301FA03F31A437B681A6096
:100C50003B681B79012B03D03B681B79022B34D1F5
:100C60007B689A687B694FEA43034FF0030101FAFE
:100C700003F36FEA03031A407B689A607B689A6803
:100C80003B685B7919467B694FEA430301FA03F33A
:100C90001A437B689A607B685A687B699BB24FF005
:100CA000010101FA03F36FEA03031A407B685A60FB
:100CB0007B685A683B689B7919467B699BB201FA4D
:100CC00003F39BB21A437B685A607B68DA687B69DE
:100CD0009BB24FEA43034FF0030101FA03F36FEABB
:100CE00003031A407B68DA607B68DA683B68DB796B
:100CF00019467B694FEA430301FA03F31A437B6801
:100D0000DA607B6903F101037B617B690F2B7FF65E
:100D100075AF07F11C07BD4680BC704780B500AFBA
:100D20004FF46053C4F202034FF46052C4F2020263
:100D3000126842F001021A604FF46053C4F20203D9
:100D40004FF000029A604FF46053C4F202034FF474
:100D50006052C4F20202126822F0847222F48032DD
:100D60001A604FF46053C4F2020343F21002C2F25D
:100D700000425A604FF46053C4F202034FF46052D1
:100D8000C4F20202126822F480221A604FF4605307
:100D9000C4F202034FF00002DA6000F009F84FF4E9
:100DA0006D43CEF200034FF000629A6080BD00BF39
:100DB00080B483B000AF4FF000037B604FF00003BE
:100DC0003B604FF46053C4F202034FF46052C4F22C
:100DD0000202126842F480321A604FF46053C4F287
:100DE00002031B6803F400333B607B6803F10103DB
:100DF0007B603B68002B03D17B68B3F5A06FECD11F
:100E00004FF46053C4F202031B6803F40033002B59
:100E100003D04FF001033B6002E04FF000033B6062
:100E20003B68012B40F082804FF46053C4F2020310
:100E30004FF46052C4F20202126C42F080521A6403
:100E40004FF4E043C4F200034FF4E042C4F2000266
:100E5000126842F480421A604FF46053C4F20203F5
:100E60004FF46052C4F2020292689A604FF46053E9
:100E7000C4F202034FF46052C4F20202926842F4D8
:100E800000429A604FF46053C4F202034FF4605280
:100E9000C4F20202926842F4A0529A604FF4605386
:100EA000C4F2020345F20842C0F240725A604FF4A5
:100EB0006053C4F202034FF46052C4F2020212689B
:100EC00042F080721A6000BF4FF46053C4F2020314
:100ED0001B6803F00073002BF6D04FF47053C4F27C
:100EE000020340F205621A604FF46053C4F2020339
:100EF0004FF46052C4F20202926822F003029A6038
:100F00004FF46053C4F202034FF46052C4F2020281
:100F1000926842F002029A6000BF4FF46053C4F23C
:100F200002039B6803F00C03082BF6D107F10C07B2
:080F3000BD4680BC704700BF04
:100F380000000000000C0240001000000800000043
:100F48000000000001000000000C0240002000002A
:100F5800080000000000000002000000000C024031
:100F6800004000000800000000000000030000002E
:100F7800000C024000800000080000000000000093
:100F8800000000000000024008000000010000000E
:100F980003050000010000000008024010000000E6
:100FA800040000000E0600000200000000080240D5
:0C0FB80020000000040000000F000000FA
:0400000508000000EF
:00000001FF
