:020000040800F2
:100000004408002089010008F1010008F1010008FE
:10001000F1010008F1010008F101000800000000F2
:10002000000000000000000000000000F1010008D6
:10003000F101000800000000F1010008F1010008D2
:10004000F1010008F1010008F1010008F1010008C8
:10005000F1010008F1010008F1010008F1010008B8
:10006000F1010008F1010008F1010008F1010008A8
:10007000F1010008F1010008F1010008F101000898
:10008000F1010008F1010008F1010008F101000888
:10009000F1010008F1010008F1010008F101000878
:1000A000F1010008F1010008F1010008F101000868
:1000B000F1010008F1010008F1010008F101000858
:1000C000F1010008F1010008F1010008F101000848
:1000D000F1010008F1010008F1010008F101000838
:1000E000F1010008F1010008F1010008F101000828
:1000F000F1010008F1010008F1010008F101000818
:10010000F1010008F1010008F1010008F101000807
:10011000F1010008F1010008F1010008F1010008F7
:10012000F1010008F1010008F1010008F1010008E7
:10013000F1010008F1010008F1010008F1010008D7
:10014000F1010008F1010008F1010008F1010008C7
:10015000F1010008F1010008F1010008F1010008B7
:10016000F1010008F1010008F1010008F1010008A7
:10017000F1010008F1010008F1010008F101000897
:10018000F1010008F101000880B582B000AF41F232
:100190004053C0F600037B6040F20003C2F200034C
:1001A0003B600BE07B681A683B681A603B6803F1B0
:1001B00004033B607B6803F104037B603A6840F210
:1001C0003C03C2F200039A42ECD3074807494FF0C0
:1001D00000028842B8BF40F8042BFADB00F00CF8AC
:1001E00007F10807BD4680BD3C0000204400002008
:1001F00080B400AFFEE700BF80B500AF00F04EFD59
:100200004FF001004FF0010100F040F840F23C03D4
:10021000C2F200034FF001021A6040F23C03C2F246
:1002200000034FF001021A7140F23C03C2F20003D6
:100230004FF000029A7140F23C03C2F200034FF00B
:100240000002DA7140F23C03C2F200034FF00302F5
:100250005A714FF44060C4F2020040F23C01C2F215
:10026000000100F00DFC00F03BF900F0D3F94FF075
:100270000000C4F202004FF0010100F0ABFC4FF0AF
:1002800000004FF0100100F0CDF9FEE780B483B01C
:1002900000AF78600B46FB70FB78002B0DD04FF45D
:1002A0006053C4F202034FF46052C4F20202126BB4
:1002B00011467A680A431A630EE04FF46053C4F2A1
:1002C00002034FF46052C4F20202126B11467A68C4
:1002D0006FEA02020A401A6307F10C07BD4680BCB0
:1002E000704700BF80B483B000AF78600B46FB70EE
:1002F000FB78002B0DD04FF46053C4F202034FF48F
:100300006052C4F20202126C11467A680A431A64FF
:100310000EE04FF46053C4F202034FF46052C4F293
:100320000202126C11467A686FEA02020A401A64ED
:1003300007F10C07BD4680BC704700BF80B483B096
:1003400000AF78600B46FB70FB78002B0DD04FF4AC
:100350006053C4F202034FF46052C4F20202526CC2
:1003600011467A680A435A640EE04FF46053C4F2AF
:1003700002034FF46052C4F20202526C11467A68D2
:100380006FEA02020A405A6407F10C07BD4680BCBE
:10039000704700BF80B485B000AF786039604FF01F
:1003A0000003FB604FF00003FB727B685B68FB603F
:1003B000FB6823F0407323F48073FB603B681B7978
:1003C0004FEA03223B681B681343FA681343FB6040
:1003D0007B68FA685A607B689B68FB60FA684FF23A
:1003E000FD73CCF2FF031340FB603B681A693B6866
:1003F000DB681A433B689B681A433B685B794FEAAA
:1004000043031343FA681343FB607B68FA689A60FE
:100410007B68DB6AFB60FB6823F47003FB603B686E
:100420001B7D03F1FF33DAB2FB7A1343FB72FB7AD5
:100430004FEA0353FA681343FB607B68FA68DA6299
:1004400007F11407BD4680BC704700BF80B485B07B
:1004500000AF78604FF00003FB604FF40C53C4F220
:1004600001035B68FB60FA6843F2E003CFF6FC73BC
:100470001340FB607B681A687B685B681A437B6883
:100480009B681A437B68DB681343FA681343FB607D
:100490004FF40C53C4F20103FA685A6007F11407D1
:1004A000BD4680BC704700BF80B483B000AF7860A9
:1004B0000B46FB70FB78002B06D07B689B6843F0F3
:1004C00001027B689A6005E07B689B6823F001026B
:1004D0007B689A6007F10C07BD4680BC704700BF7F
:1004E00080B500AF00F004F800F054F880BD00BF04
:1004F00080B584B000AF4FF00003FB7342E0F97B9E
:1005000040F20002C2F200020B464FEA83035B187E
:100510004FEA8303D31803F10C031B6818464FF00E
:100520000101FFF7B3FEF97B40F20002C2F20002C4
:100530000B464FEA83035B184FEA8303D31803F19A
:1005400008031B887B604FF003033B724FF00003EE
:10055000FB72F97B40F20002C2F200020B464FEA46
:1005600083035B184FEA8303D31803F104031A686B
:1005700007F104031046194600F082FAFB7B03F1F1
:100580000103FB73FB7B002BB9D007F11007BD46BD
:1005900080BD00BF80B58AB000AF4FF480704FF0CF
:1005A0000101FFF7CBFE4FF00003BB614FF4803336
:1005B000FB614FF000033B624FF000037B6207F1E9
:1005C00018031846FFF742FF4FF000033B604FF05F
:1005D00000033B714FF000037B714FF00003BB60E1
:1005E0004FF000033B614FF001033B753B464FF476
:1005F0000050C4F201001946FFF7CCFE4FF4005042
:10060000C4F201004FF00101FFF74EFF07F1280788
:10061000BD4680BD80B500AF00F06AF800F0E2F89A
:1006200080BD00BF80B483B000AF02460B46FA71B4
:10063000BB80BB88FF2B02D94FF0FF03BB80F97949
:1006400040F21402C2F200020B464FEA83035B1829
:100650004FEA8303D3185B78012B05D14FF4006375
:10066000C4F20003BA885A63F97940F21402C2F264
:1006700000020B464FEA83035B184FEA8303D3184B
:100680005B78022B05D14FF40063C4F20003BA88F3
:100690009A63F97940F21402C2F200020B464FEA63
:1006A00083035B184FEA8303D3185B78032B05D1D0
:1006B0004FF40063C4F20003BA88DA63F97940F2B8
:1006C0001402C2F200020B464FEA83035B184FEAA2
:1006D0008303D3185B78042B05D14FF40063C4F275
:1006E0000003BA881A6407F10C07BD4680BC704746
:1006F00080B584B000AF4FF00003FB736BE0F97B73
:1007000040F21402C2F200020B464FEA83035B1868
:100710004FEA8303D31803F10C031B6818464FF00C
:100720000101FFF7B3FDF97B40F21402C2F20002AF
:100730000B464FEA83035B184FEA8303D31803F198
:1007400008031B887B604FF002033B724FF00303EA
:100750007B724FF00003BB724FF00103FB72F97B19
:1007600040F21402C2F200020B464FEA83035B1808
:100770004FEA8303D31803F104031A6807F1040353
:100780001046194600F07CF9F97B40F21402C2F2DF
:1007900000020B464FEA83035B184FEA8303D3182A
:1007A00003F104031868F97B40F21402C2F200025C
:1007B0000B464FEA83035B184FEA8303D31803F118
:1007C00010031B7819464FF0020200F011FAFB7B70
:1007D00003F10103FB73FB7B012B90D907F1100799
:1007E000BD4680BD80B58AB000AF4FF004004FF029
:1007F0000101FFF777FD4FF0FF03FB6140F2471364
:100800003B834FF000033B844FF000037B8307F1F1
:1008100018034FF40060C4F20000194600F04CFBCE
:100820004FF0000387F8273011E197F8271040F2C6
:100830001402C2F200020B464FEA83035B184FEA30
:100840008303D3185B78012B32D14FF06003BB8058
:100850004FF00103FB8097F8271040F21402C2F218
:1008600000020B464FEA83035B184FEA8303D31859
:1008700003F110035B88BB84BB8CFF2B02D94FF0C4
:10088000FF03BB84BB8CFB604FF000033B8207F18E
:1008900004034FF40060C4F20000194600F0C6FBE8
:1008A0004FF40060C4F200004FF0080100F0D0FDEA
:1008B00097F8271040F21402C2F200020B464FEAEA
:1008C00083035B184FEA8303D3185B78022B32D182
:1008D0004FF06003BB804FF00103FB8097F82710B7
:1008E00040F21402C2F200020B464FEA83035B1887
:1008F0004FEA8303D31803F110035B88BB84BB8CDE
:10090000FF2B02D94FF0FF03BB84BB8CFB604FF081
:1009100000033B8207F104034FF40060C4F20000BF
:10092000194600F001FC4FF40060C4F200004FF0E3
:10093000080100F0A9FD97F8271040F21402C2F256
:1009400000020B464FEA83035B184FEA8303D31878
:100950005B78032B32D14FF06003BB804FF0010373
:10096000FB8097F8271040F21402C2F200020B46F7
:100970004FEA83035B184FEA8303D31803F1100394
:100980005B88BB84BB8CFF2B02D94FF0FF03BB8479
:10099000BB8CFB604FF000033B8207F104034FF474
:1009A0000060C4F20000194600F052FC4FF40060F1
:1009B000C4F200004FF0080100F086FD97F8271000
:1009C00040F21402C2F200020B464FEA83035B18A6
:1009D0004FEA8303D3185B78042B32D14FF06003C6
:1009E000BB804FF00103FB8097F8271040F2140200
:1009F000C2F200020B464FEA83035B184FEA8303FF
:100A0000D31803F110035B88BB84BB8CFF2B02D986
:100A10004FF0FF03BB84BB8CFB604FF000033B82B5
:100A200007F104034FF40060C4F20000194600F01F
:100A30009FFC4FF40060C4F200004FF0080100F08A
:100A40005FFD97F8273003F1010387F8273097F807
:100A50002730012B7FF6E9AE4FF40060C4F20000AE
:100A60004FF0010100F0A2FA4FF40060C4F2000060
:100A70004FF0010100F0BAFA07F12807BD4680BD2A
:100A800080B487B000AF786039604FF000037B61BD
:100A90004FF000033B614FF00003FB604FF0000399
:100AA0007B618EE07B694FF0010202FA03F33B6148
:100AB0003B681A683B691340FB60FA683B699A42DD
:100AC0007BD17B681B681A467B694FEA43034FF072
:100AD000030101FA03F36FEA03031A407B681A600B
:100AE0007B681B681A463B681B7919467B694FEA8D
:100AF000430301FA03F31A437B681A603B681B79CE
:100B0000012B03D03B681B79022B38D17B689B6893
:100B10001A467B694FEA43034FF0030101FA03F3DE
:100B20006FEA03031A407B689A607B689B681A46E9
:100B30003B685B7919467B694FEA430301FA03F38B
:100B40001A437B689A607B685B681A467B699BB234
:100B50004FF0010101FA03F36FEA03031A407B68C7
:100B60005A607B685B681A463B689B7919467B69CB
:100B70009BB201FA03F39BB21A437B685A607B680D
:100B8000DB681A467B699BB24FEA43034FF00301CF
:100B900001FA03F36FEA03031A407B68DA607B68AB
:100BA000DB681A463B68DB7919467B694FEA4303E9
:100BB00001FA03F31A437B68DA607B6903F10103EE
:100BC0007B617B690F2B7FF66DAF07F11C07BD467C
:100BD00080BC704780B483B000AF78600B467B80E8
:100BE0007B687A881A8307F10C07BD4680BC704782
:100BF00080B485B000AF786013460A467A807B7077
:100C00004FF00003FB604FF00003BB607A787B88F5
:100C100003F007034FEA830302FA03F3FB607B88C8
:100C20004FEAD3039BB21A467B884FEAD3039BB2A9
:100C300019467B6801F1080153F8213019467B8879
:100C400003F007034FEA83034FF00F0000FA03F3AA
:100C50006FEA030319407B6802F1080243F822108F
:100C60007B884FEAD3039BB21A467B6802F10802E5
:100C700053F822301A46FB681343BB607B884FEA67
:100C8000D3039BB21A467B6802F10802B96843F8A5
:100C9000221007F11407BD4680BC704780B500AF35
:100CA0004FF46053C4F202034FF46052C4F20202E4
:100CB000126842F001021A604FF46053C4F202035A
:100CC0004FF000029A604FF46053C4F202034FF4F5
:100CD0006052C4F20202126822F0847222F480325E
:100CE0001A604FF46053C4F2020343F21002C2F2DE
:100CF00000425A604FF46053C4F202034FF4605252
:100D0000C4F20202126822F480221A604FF4605387
:100D1000C4F202034FF00002DA6000F009F84FF469
:100D20006D43CEF200034FF000629A6080BD00BFB9
:100D300080B483B000AF4FF000037B604FF000033E
:100D40003B604FF46053C4F202034FF46052C4F2AC
:100D50000202126842F480321A604FF46053C4F207
:100D600002031B6803F400333B607B6803F101035B
:100D70007B603B68002B03D17B68B3F5A06FECD19F
:100D80004FF46053C4F202031B6803F40033002BDA
:100D900003D04FF001033B6002E04FF000033B60E3
:100DA0003B68012B40F082804FF46053C4F2020391
:100DB0004FF46052C4F20202126C42F080521A6484
:100DC0004FF4E043C4F200034FF4E042C4F20002E7
:100DD000126842F480421A604FF46053C4F2020376
:100DE0004FF46052C4F2020292689A604FF460536A
:100DF000C4F202034FF46052C4F20202926842F459
:100E000000429A604FF46053C4F202034FF4605200
:100E1000C4F20202926842F4A0529A604FF4605306
:100E2000C4F2020345F20842C0F240725A604FF425
:100E30006053C4F202034FF46052C4F2020212681B
:100E400042F080721A6000BF4FF46053C4F2020394
:100E50001B6803F00073002BF6D04FF47053C4F2FC
:100E6000020340F205621A604FF46053C4F20203B9
:100E70004FF46052C4F20202926822F003029A60B8
:100E80004FF46053C4F202034FF46052C4F2020202
:100E9000926842F002029A6000BF4FF46053C4F2BD
:100EA00002039B6803F00C03082BF6D107F10C0733
:100EB000BD4680BC704700BF80B485B000AF78608D
:100EC00039604FF00003FB817B681B88FB817A68E7
:100ED0004FF00003C4F201039A421FD07A684FF426
:100EE0008063C4F201039A4218D07B68B3F1804F4B
:100EF00014D07A684FF48063C4F200039A420DD094
:100F00007A684FF40063C4F200039A4206D07A680C
:100F10004FF44063C4F200039A4208D1FB8923F0E6
:100F20007003FB813B685A88FB891343FB817A6815
:100F30004FF48053C4F200039A420FD07A684FF402
:100F4000A053C4F200039A4208D0FB8923F44073F3
:100F5000FB813B681A89FB891343FB817B68FA8913
:100F60001A803B685A687B68DA623B681A887B683B
:100F70001A857A684FF00003C4F201039A4206D042
:100F80007A684FF48063C4F201039A4204D13B684B
:100F90009B7A1A467B681A867B684FF001029A8218
:100FA00007F11407BD4680BC704700BF80B483B012
:100FB00000AF78600B46FB70FB78002B08D07B6895
:100FC0001B889BB243F080039AB27B681A8007E0CB
:100FD0007B681B889BB223F080039AB27B681A80DF
:100FE00007F10C07BD4680BC704700BF80B483B0DA
:100FF00000AF78600B46FB70FB78002B08D07B6855
:101000001B889BB243F001039AB27B681A8007E009
:101010007B681B889BB223F001039AB27B681A801D
:1010200007F10C07BD4680BC704700BF80B485B097
:1010300000AF786039604FF000037B814FF0000310
:10104000FB814FF00003BB817B681B8C9BB223F0BC
:1010500001039AB27B681A847B681B8CFB817B68D6
:101060009B88BB817B681B8B7B817B8923F0700312
:101070007B817B8923F003037B813B681A887B8912
:1010800013437B81FB8923F00203FB813B689A8930
:10109000FB891343FB813B685A88FB891343FB811F
:1010A0007A684FF00003C4F201039A4206D07A68CE
:1010B0004FF48063C4F201039A4223D1FB8923F0E9
:1010C0000803FB813B68DA89FB891343FB81FB89B9
:1010D00023F00403FB813B689A88FB891343FB815F
:1010E000BB8923F48073BB81BB8923F40073BB816C
:1010F0003B681A8ABB891343BB813B685A8ABB8908
:101100001343BB817B68BA899A807B687A891A838A
:101110003B689A687B685A637B68FA891A8407F18E
:101120001407BD4680BC704780B485B000AF7860BE
:1011300039604FF000037B814FF00003FB814FF0DB
:101140000003BB817B681B8C9BB223F010039AB217
:101150007B681A847B681B8CFB817B689B88BB81C6
:101160007B681B8B7B817B8923F4E0437B817B89BC
:1011700023F440737B813B681B884FEA03239AB2B8
:101180007B8913437B81FB8923F02003FB813B6830
:101190009B894FEA03139AB2FB891343FB813B6897
:1011A0005B884FEA03139AB2FB891343FB817A6889
:1011B0004FF00003C4F201039A4206D07A684FF45C
:1011C0008063C4F201039A422FD1FB8923F080038C
:1011D000FB813B68DB894FEA03139AB2FB89134317
:1011E000FB81FB8923F04003FB813B689B884FEA2E
:1011F00003139AB2FB891343FB81BB8923F48063F9
:10120000BB81BB8923F40063BB813B681B8A4FEA27
:1012100083039AB2BB891343BB813B685B8A4FEA65
:1012200083039AB2BB891343BB817B68BA899A80D6
:101230007B687A891A833B689A687B689A637B68C3
:10124000FA891A8407F11407BD4680BC704700BFB5
:1012500080B485B000AF786039604FF000037B81C7
:101260004FF00003FB814FF00003BB817B681B8CB8
:101270009BB223F480739AB27B681A847B681B8CC0
:10128000FB817B689B88BB817B689B8B7B817B8997
:1012900023F070037B817B8923F003037B813B6810
:1012A0001A887B8913437B81FB8923F40073FB81BC
:1012B0003B689B894FEA03239AB2FB891343FB8166
:1012C0003B685B884FEA03239AB2FB891343FB8197
:1012D0007A684FF00003C4F201039A4206D07A689C
:1012E0004FF48063C4F201039A422FD1FB8923F4A7
:1012F0000063FB813B68DB894FEA03239AB2FB89D9
:101300001343FB81FB8923F48063FB813B689B884B
:101310004FEA03239AB2FB891343FB81BB8923F471
:101320008053BB81BB8923F40053BB813B681B8A7C
:101330004FEA03139AB2BB891343BB813B685B8AB4
:101340004FEA03139AB2BB891343BB817B68BA8906
:101350009A807B687A899A833B689A687B68DA63AB
:101360007B68FA891A8407F11407BD4680BC704770
:1013700080B485B000AF786039604FF00003BB8166
:101380004FF000037B814FF00003FB817B681B8CD7
:101390009BB223F480539AB27B681A847B681B8CBF
:1013A0007B817B689B88FB817B689B8BBB81BB8936
:1013B00023F4E043BB81BB8923F44073BB813B68CA
:1013C0001B884FEA03239AB2BB891343BB817B89F5
:1013D00023F400537B813B689B894FEA03339AB225
:1013E0007B8913437B813B685B884FEA03339AB266
:1013F0007B8913437B817A684FF00003C4F20103B9
:101400009A4206D07A684FF48063C4F201039A428C
:101410000BD1FB8923F48043FB813B681B8A4FEA95
:1014200083139AB2FB891343FB817B68FA899A8004
:101430007B68BA899A833B689A687B681A647B6880
:101440007A891A8407F11407BD4680BC704700BF33
:1014500080B485B000AF78600B467B804FF000030E
:10146000FB817B681B8BFB81FB8923F00803FB81DD
:10147000FA897B881343FB817B68FA891A8307F119
:101480001407BD4680BC704780B485B000AF78605B
:101490000B467B804FF00003FB817B681B8BFB813D
:1014A000FB8923F40063FB817B884FEA03239AB214
:1014B000FB891343FB817B68FA891A8307F11407C0
:1014C000BD4680BC704700BF80B485B000AF786077
:1014D0000B467B804FF00003FB817B689B8BFB817D
:1014E000FB8923F00803FB81FA897B881343FB8186
:1014F0007B68FA899A8307F11407BD4680BC704760
:1015000080B485B000AF78600B467B804FF000035D
:10151000FB817B689B8BFB81FB8923F40063FB8150
:101520007B884FEA03239AB2FB891343FB817B68D4
:10153000FA899A8307F11407BD4680BC704700BF43
:101540000000000000000240080000000100000050
:101550000305000000010000000C02400010000024
:10156000080000000C00400001030000000C0240D5
:0C15700000400000080000000E00800099
:0400000508000000EF
:00000001FF
