:020000040800F2
:10000000380D00209D020008F9020008F9020008DE
:10001000F9020008F9020008F902000800000000D7
:10002000000000000000000000000000F9020008CD
:10003000F902000800000000F9020008150C000891
:10004000F9020008F9020008F9020008F9020008A4
:10005000F9020008F9020008F9020008F902000894
:10006000F9020008F9020008F9020008F902000884
:10007000F9020008F9020008F9020008F902000874
:10008000F9020008F9020008F9020008F902000864
:10009000F9020008F9020008F9020008F902000854
:1000A000F9020008F9020008F9020008F902000844
:1000B00041160008F9020008F9020008F9020008D8
:1000C000F9020008F9020008F9020008F902000824
:1000D000F9020008F9020008F9020008F902000814
:1000E000F9020008F9020008F9020008F902000804
:1000F000F9020008F9020008F9020008F9020008F4
:10010000F9020008F9020008F9020008F9020008E3
:10011000F9020008F9020008F9020008F9020008D3
:10012000F9020008F9020008F9020008F9020008C3
:10013000F9020008F9020008F9020008F9020008B3
:10014000F9020008F9020008F9020008F9020008A3
:10015000F9020008F9020008F9020008F902000893
:10016000F9020008F9020008F9020008F902000883
:10017000F9020008F9020008F9020008F902000873
:10018000F9020008F902000880B485B000AF786079
:1001900039600023FB600023BB60134B1B68FB60CE
:1001A00040F6FE727B6802FA03F3DB43FA68134001
:1001B000FB603B681A683B685B681A433B689B6856
:1001C0001A433B68DB681343BB60BA687B6802FA7A
:1001D00003F3FA681343FB60034AFB68136000BF34
:1001E0001437BD4680BC70470074004080B483B0B3
:1001F00000AF78600B46FB70FB78002B09D00C49F0
:100200000B4B1A6801207B6800FA03F313430B6061
:1002100009E00749064B1A6801207B6800FA03F3DE
:10022000DB4313400B6000BF0C37BD4680BC7047FA
:100230000074004080B485B000AF78600B467B80CE
:100240000023FB60074BFB60FA687B6813440833AC
:10025000FB60FB681A467B88136000BF1437BD46FD
:1002600080BC70470074004080B485B000AF7860F7
:100270000B467B800023FB60074BFB60FA687B68C2
:1002800013441433FB60FB681A467B88136000BF7D
:100290001437BD4680BC70470074004080B582B002
:1002A00000AF104B7B60104B3B6007E03B681A1DB2
:1002B0003A607A68111D796012681A603B680B4ACF
:1002C0009342F3D30A480B494FF000028842B8BF6B
:1002D00040F8042BFADB00F047F900BF0837BD46B1
:1002E00080BD00BFC029000800000020BC04002021
:1002F000C00400203805002080B400AFFEE700BF36
:1003000098B500AF002000F0F9FC0346184601F054
:10031000B5FF03460C46444AC2E90034424BD3E9D8
:1003200000341A4623464FF00000404902F046F9D7
:1003300003460C46184621464FF000023C4B01F0A4
:100340005FFE03460C463B4AC2E90034394BD3E911
:1003500000341A46234628A1D1E9000102F02EF903
:1003600003460C46344AC2E90034334BD3E900015A
:1003700023A3D3E9002302F021F903460C462F4AB8
:10038000C2E900342D4BD3E900341846214601F070
:10039000B9FB03460C462A4AC2E90034284BD3E98C
:1003A000000119A3D3E9002301F0DEFF03460C4648
:1003B0001846214616A3D3E9002301F023FE034685
:1003C0000C461A46234614A1D1E9000102F0F6F8C2
:1003D00003460C461B4AC2E900341A4BD3E900011C
:1003E0000FA3D3E9002301F00BFE03460C46164A87
:1003F000C2E9003400BF98BD000000000088B3408F
:10040000000000000088C3406666666666A272400F
:10041000B98D06F036ACB040C16ED82EF86A3341C3
:100420006666666666127140100500200000B040E6
:100430000000F03F2805002000050020F004002007
:1004400008050020F8040020180500200000000026
:1004500098B500AF01F022F803461A46284B1A80DF
:10046000274B1B88002B42D0254B1B881A46254B57
:1004700093FBF2F39AB2244B1A80234B1B88184645
:1004800001F00CFF1CA3D3E9002302F097F8034608
:100490000C461846214602F017FA03469AB21B4B47
:1004A0001A8001F00FF803461A46194B1A80184BB0
:1004B0001B88002B1BD0164B1B881A46114B93FB35
:1004C000F2F39AB2134B1A80114B1B88184601F0B5
:1004D000E5FE4FF00002104B02F070F803460C46A8
:1004E0001846214602F010FA02460C4B1A6000BF73
:1004F00098BD00BFAFF30080000000000094E14011
:10050000C0040020A0860100C204002020050020B5
:10051000C4040020C604002000C08240E80400207B
:1005200080B500AF0F4B4FF480621A8011E0FFF7E7
:10053000E7FEFFF78DFF0B4B1B88184600F01EFDF2
:100540000A2000F051FB074B1B8801339AB2054B80
:100550001A80044B1B8840F6B7329342E7D900BF9C
:1005600080BD00BF3005002080B500AF00F07CFEEC
:1005700000F08EFB00F0F0FA002000F0D7FC00F055
:100580007BFFFFF7CDFFFCE780B489B000AF786058
:100590000023BB6100237B610023FB6102233B61DD
:1005A0000023FB600223BB60484B9B6803F00C03F5
:1005B000BB61BB69042B07D0082B09D0002B3FD1AE
:1005C0007B68434A1A603FE07B68424A1A603BE01E
:1005D0003E4B5B6803F480039B0DFB603B4B5B6809
:1005E00003F03F03BB60FB68002B0DD0394ABB68AA
:1005F000B2FBF3F2354B596847F6C0730B409B09C9
:1006000003FB02F3FB610CE0314ABB68B2FBF3F27F
:100610002E4B596847F6C0730B409B0903FB02F34E
:10062000FB612A4B5B6803F440331B0C01335B0016
:100630003B61FA693B69B2FBF3F27B681A6003E045
:100640007B68234A1A6000BF204B9B6803F0F003CD
:10065000BB61BB691B09BB611F4ABB6913441B78A3
:10066000DBB27B617B681A687B69DA407B685A6021
:10067000164B9B6803F4E053BB61BB699B0ABB61EB
:10068000154ABB6913441B78DBB27B617B685A68EF
:100690007B69DA407B689A600C4B9B6803F460438B
:1006A000BB61BB695B0BBB610B4ABB6913441B7825
:1006B000DBB27B617B685A687B69DA407B68DA6011
:1006C00000BF2437BD4680BC704700BF00380240E1
:1006D0000024F40040787D010000002080B483B045
:1006E00000AF78600B46FB70FB78002B06D0094901
:1006F000084B1A6B7B6813430B6306E00549054BF7
:100700001A6B7B68DB4313400B6300BF0C37BD469D
:1007100080BC70470038024080B483B000AF78607E
:100720000B46FB70FB78002B06D00949084B1A6C6E
:100730007B6813430B6406E00549054B1A6C7B6824
:10074000DB4313400B6400BF0C37BD4680BC7047D1
:100750000038024080B483B000AF78600B46FB7075
:10076000FB78002B06D00949084B5A6C7B68134371
:100770004B6406E00549054B5A6C7B68DB4313402C
:100780004B6400BF0C37BD4680BC70470038024048
:1007900080B485B000AF786039600023FB6000232F
:1007A000FB727B685B68FB60FB6823F0407323F49B
:1007B0008073FB603B681B791A023B681B6813431C
:1007C000FA681343FB607B68FA685A607B689B6831
:1007D000FB60FA68174B1340FB603B681A693B6883
:1007E000DB681A433B689B681A433B685B795B0094
:1007F0001343FA681343FB607B68FA689A607B686E
:10080000DB6AFB60FB6823F47003FB603B681B7DC5
:10081000013BDAB2FB7A1343FB72FB7A1B05FA68E1
:100820001343FB607B68FA68DA6200BF1437BD4689
:1008300080BC7047FDF7FFC080B485B000AF786022
:100840000023FB600E4B5B68FB60FA680D4B1340A6
:10085000FB607B681A687B685B681A437B689B68EF
:100860001A437B68DB681343FA681343FB60044A4E
:10087000FB68536000BF1437BD4680BC704700BFA3
:1008800000230140E030FCFF80B483B000AF78600B
:100890000B46FB70FB78002B06D07B689B6843F00F
:1008A00001027B689A6005E07B689B6823F0010287
:1008B0007B689A6000BF0C37BD4680BC704700BFA4
:1008C00080B485B000AF7860084611461A460346EA
:1008D000FB700B46BB7013467B700023FB6000234C
:1008E000BB60FB78092B23D97B68DB68FB60FB7856
:1008F000A3F10A0213465B001344072202FA03F332
:10090000BB60BB68DB43FA681340FB607978FB7817
:10091000A3F10A0213465B00134401FA03F3BB6020
:10092000FA68BB681343FB607B68FA68DA601EE014
:100930007B681B69FB60FA7813465B00134407224F
:1009400002FA03F3BB60BB68DB43FA681340FB6049
:100950007978FA7813465B00134401FA03F3BB601D
:10096000FA68BB681343FB607B68FA681A61BB785E
:10097000062B21D87B685B6BFB60BB785A1E134645
:100980009B0013441F2202FA03F3BB60BB68DB43E6
:10099000FA681340FB60F978BB785A1E13469B0037
:1009A000134401FA03F3BB60FA68BB681343FB60AE
:1009B0007B68FA685A6347E0BB780C2B21D87B68C8
:1009C0001B6BFB60BB78DA1F13469B0013441F228E
:1009D00002FA03F3BB60BB68DB43FA681340FB60B9
:1009E000F978BB78DA1F13469B00134401FA03F32E
:1009F000BB60FA68BB681343FB607B68FA681A63E4
:100A000022E07B68DB6AFB60BB78A3F10D02134632
:100A10009B0013441F2202FA03F3BB60BB68DB4355
:100A2000FA681340FB60F978BB78A3F10D02134616
:100A30009B00134401FA03F3BB60FA68BB681343DD
:100A4000FB607B68FA68DA6200BF1437BD4680BC81
:100A5000704700BF80B483B000AF78607B689B684C
:100A600043F080427B689A6000BF0C37BD4680BC73
:100A7000704700BF80B483B000AF78607B68DB6CE8
:100A80009BB218460C37BD4680BC704780B485B019
:100A900000AF78600B46FB700023FB737B681A681D
:100AA000FB781340002B02D00123FB7301E00023ED
:100AB000FB73FB7B18461437BD4680BC704700BFF4
:100AC00080B483B000AF03463960FB7197F90730FB
:100AD000002B0BDA0D49FB7903F00F03043B3A6856
:100AE000D2B21201D2B20B441A7609E0084997F942
:100AF00007303A68D2B21201D2B20B4483F8002315
:100B000000BF0C37BD4680BC704700BF00ED00E061
:100B100000E100E080B582B000AF78607B68B3F19F
:100B2000807F01D3012311E00A4A7B6823F07F43D1
:100B3000013B53600F214FF0FF30FFF7C1FF054B22
:100B400000229A60034B07221A60002318460837D8
:100B5000BD4680BD10E000E080B584B000AF124B10
:100B600000221A60114B00221A60114B00221A60F9
:100B7000104B00221A600F4B00225A600E4B0022CD
:100B80001A600D4B00225A603B461846FFF7FCFCEA
:100B90007B680A4AA2FB03239B0C1846FFF7BAFFA7
:100BA00000BF1037BD4680BDC8040020CC04002023
:100BB000D0040020D4040020DC04002083DE1B438A
:100BC00080B483B000AF78607B68064A136000BFD2
:100BD000044B1B68002BFBD100BF0C37BD4680BC0B
:100BE000704700BFC804002080B584B000AF7860B3
:100BF0000023FB6006E04FF47A70FFF7E1FFFB682B
:100C00000133FB607B68FA689A42F4D300BF103767
:100C1000BD4680BD80B400AF184B1B68002B04D0CC
:100C2000164B1B68013B154A1360154B1B68002BC4
:100C300004D0134B1B68013B114A1360114B1B6816
:100C4000002B04D00F4B1B68013B0E4A13600E4B68
:100C50001B68002B04D00C4B5B6801330A4A5360BD
:100C60000A4B1B68002B04D0084B5B680133074A12
:100C7000536000BFBD4680BC704700BFC804002061
:100C8000CC040020D0040020D4040020DC04002088
:100C900080B500AF00F0DCF800F016F900BF80BDB1
:100CA00080B584B000AF0346FB710023FB81FA7965
:100CB000104913469B0013449B000B4410331978D2
:100CC000002301220C48FFF7FBFD0B48FFF7C2FE93
:100CD00000BF02210848FFF7D9FE0346002BF8D0D9
:100CE0000548FFF7C7FE0346FB81FB89184610370E
:100CF000BD4680BD100000200020014080B586B0B8
:100D000000AF0346FB7100237B6101233B8200237C
:100D1000FB81FA794D4913469B0013449B000B4419
:100D200011331B78002B04D101233B820023FB816C
:100D30006EE0FA79454913469B0013449B000B442F
:100D400011331B78012B04D102233B820123FB8149
:100D50005EE0FA793D4913469B0013449B000B4427
:100D600011331B78022B04D104233B820223FB8125
:100D70004EE0FA79354913469B0013449B000B441F
:100D800011331B78032B04D108233B820323FB81FF
:100D90003EE0FA792D4913469B0013449B000B4417
:100DA00011331B78042B04D110233B820423FB81D5
:100DB0002EE0FA79254913469B0013449B000B440F
:100DC00011331B78052B04D120233B820523FB81A3
:100DD0001EE0FA791D4913469B0013449B000B4407
:100DE00011331B78062B04D140233B820623FB8161
:100DF0000EE0FA79154913469B0013449B000B44FF
:100E000011331B78072B03D180233B820723FB81FF
:100E100000237B820CE0FB791846FFF741FF034675
:100E2000BB81BB897A6913447B617B8A01337B82F6
:100E30007A8A3B8A9A42EED3FB897A6922FA03F3D3
:100E4000BB81BB8918461837BD4680BD1000002005
:100E500080B584B000AF0023FB732BE0FA7B194907
:100E600013469B0013449B000B440C331B68012169
:100E70001846FFF733FCFA7B124913469B001344D4
:100E80009B000B4408331B887B6003233B720023C9
:100E9000FB72FA7B0B4913469B0013449B000B44E7
:100EA00004331B683A1D1146184600F007F9FB7B16
:100EB0000133FB73FB7B042BD0D900BF1037BD4639
:100EC00080BD00BF1000002080B58AB000AF0121B6
:100ED0004FF48070FFF73EFC0023BB614FF480337A
:100EE000FB6100233B6200237B6207F11803184675
:100EF000FFF7A2FC00233B6000233B7100237B71C2
:100F00000023BB6000233B6101233B753B46194630
:100F10000548FFF73DFC01210348FFF7B5FC00BF82
:100F20002837BD4680BD00BF0020014080B582B09B
:100F300000AF0346FB71104AFB791370FB79002B5D
:100F400002D0FB79022B06D100F050F800F07EF8B9
:100F5000002000F013F8FB79012B02D0FB79022B63
:100F600006D100F05BF800F08DF8002000F022F8C8
:100F700000BF0837BD4680BD3205002080B582B075
:100F800000AF0346FB800A4B1B78012B0CD0FB887B
:100F9000B3F5805F02D340F6FF73FB80FB881946F0
:100FA0000020FFF747F900E000BF0837BD4680BDCD
:100FB0003205002080B582B000AF0346FB800A4BAB
:100FC0001B78002B0CD0FB88B3F5805F02D340F672
:100FD000FF73FB80FB8819460020FFF745F900E00E
:100FE00000BF0837BD4680BD3205002080B582B005
:100FF00000AF01210120FFF771FB10233B600323A9
:101000003B710023FB713B461946034800F056F83C
:1010100000BF0837BD4680BD0000024080B582B0E9
:1010200000AF01210120FFF759FB20233B60032380
:101030003B710023FB713B461946034800F03EF824
:1010400000BF0837BD4680BD0000024080B584B0B7
:1010500000AF01214FF00050FFF75EFB00233B6023
:1010600000237B600023FB603B4619460020FFF70E
:101070008BF801210020FFF7B9F800BF1037BD46FB
:1010800080BD00BF80B584B000AF01214FF000509B
:10109000FFF742FB00233B6000237B600023FB60E3
:1010A0003B4619461020FFF76FF801211020FFF78B
:1010B0009DF800BF1037BD4680BD00BF80B487B02B
:1010C00000AF7860396000237B6100233B6100231F
:1010D000FB6000237B6176E001227B6902FA03F367
:1010E0003B613B681A683B691340FB60FA683B69E7
:1010F0009A4265D17B681A687B695B00032101FA1B
:1011000003F3DB431A407B681A607B681A683B680C
:101110001B7919467B695B0001FA03F31A437B686C
:101120001A603B681B79012B03D03B681B79022BAB
:101130002ED17B689A687B695B00032101FA03F377
:10114000DB431A407B689A607B689A683B685B79EE
:1011500019467B695B0001FA03F31A437B689A60C6
:101160007B685A687B699BB2012101FA03F3DB4378
:101170001A407B685A607B685A683B689B791946BD
:101180007B699BB201FA03F39BB21A437B685A60F6
:101190007B68DA687B699BB25B00032101FA03F389
:1011A000DB431A407B68DA607B68DA683B68DB798E
:1011B00019467B695B0001FA03F31A437B68DA6026
:1011C0007B6901337B617B690F2B85D900BF1C379D
:1011D000BD4680BC704700BF80B485B000AF78606A
:1011E0000B467B8013467B700023FB600023BB60B3
:1011F0007A787B8803F007039B0002FA03F3FB6015
:101200007B88DB089BB218467B88DB089BB21A46BA
:101210007B68083253F822207B8803F007039B0089
:101220000F2101FA03F3DB4302EA03017B6800F1BB
:10123000080243F822107B88DB089BB21A467B68C1
:10124000083253F82220FB681343BB607B88DB081D
:101250009BB21A467B680832B96843F8221000BF77
:101260001437BD4680BC704780B500AF124A124BA0
:101270001B6843F0010313600F4B00229A600E4A73
:101280000D4B1B6823F0847323F4803313600A4BE7
:101290000A4A5A60084A084B1B6823F480231360EB
:1012A000054B0022DA6000F00DF8054B4FF00062AC
:1012B0009A6000BF80BD00BF00380240103000249B
:1012C00000ED00E080B483B000AF00237B6000231A
:1012D0003B60354A344B1B6843F480331360324B18
:1012E0001B6803F400333B607B6801337B603B6821
:1012F000002B03D17B68B3F5A06FF0D12A4B1B689C
:1013000003F40033002B02D001233B6001E00023F3
:101310003B603B68012B42D1234A234B1B6C43F0BB
:1013200080531364214A214B1B6843F480431360AC
:101330001D4A1D4B9B6893601B4A1B4B9B6843F4E3
:1013400000439360184A184B9B6843F4A053936082
:10135000154B174A5A60144A134B1B6843F08073AD
:10136000136000BF104B1B6803F00073002BF9D013
:10137000104B40F205621A600B4A0B4B9B6823F03E
:1013800003039360084A084B9B6843F00203936091
:1013900000BF054B9B6803F00C03082BF9D100BF7D
:1013A0000C37BD4680BC70470038024000700040DA
:1013B00019544007003C024080B485B000AF78600B
:1013C0000023FB730023BB730F237B737B68DB78E5
:1013D000002B38D0264BDB68DB4303F4E0631B0AA9
:1013E000FB73FB7BC3F10403BB737A7BFB7B42FA89
:1013F00003F37B737B685B781A46BB7B02FA03F3CB
:10140000FB737B689A787B7B1340DAB2FB7B1343D8
:10141000FB73FB7B1B01FB73164A7B681B78134431
:10142000FA7B83F80023134A7B681B785B09DBB2E5
:1014300018467B681B7803F01F03012101FA03F3B0
:1014400042F820300FE00B497B681B785B09DBB268
:1014500018467B681B7803F01F0301229A4000F1B5
:10146000200341F8232000BF1437BD4680BC7047DD
:1014700000ED00E000E100E080B500AF064B002287
:101480001A80054B00225A8000F030F800F058F81E
:1014900000F0ACF800BF80BD3405002080B483B0FC
:1014A00000AF0023FB80064B1B88FB80044B00220F
:1014B0001A80FB8818460C37BD4680BC704700BFB9
:1014C0003405002080B483B000AF0023FB80064BBE
:1014D0005B88FB80044B00225A80FB8818460C373F
:1014E000BD4680BC704700BF3405002080B582B087
:1014F00000AF124BDB6801211846FFF7EFF80F4BE6
:101500001B893B6002233B7103237B710023BB716A
:101510000023FB71094B5B683A4611461846FFF7FA
:10152000CDFD064B5868054B1B7C9BB2012219462A
:10153000FFF752FE00BF0837BD4680BD7400002093
:1015400080B584B000AF01210120FFF7E5F801224A
:1015500040F247314FF0804000F0B2F8224B5B7808
:10156000012B14D10023BB800023FB8001233B818E
:1015700000237B810023BB813B1D19464FF0804037
:1015800000F0D2F850214FF0804000F0D9F9164B0E
:101590005B78022B14D10423BB800023FB80012342
:1015A0003B8100237B810023BB813B1D19464FF00B
:1015B000804000F0B9F860214FF0804000F0C0F9A1
:1015C00004214FF0804000F0D7F980214FF0804097
:1015D00000F0EEF901214FF0804000F085F800BFE7
:1015E0001037BD4680BD00BF7400002080B582B0BA
:1015F00000AF1C233B7100237B710123BB710123CE
:10160000FB713B1D1846FFF7D7FE0C4B5B78012B97
:1016100005D1012202214FF0804000F033F9074B41
:101620005B78022B05D1012204214FF0804000F0AD
:1016300029F900BF0837BD4680BD00BF74000020F7
:1016400080B500AF02214FF0804000F03FF9034623
:10165000012B14D102214FF0804000F061F94FF0CE
:10166000804000F0BDF803469AB2144B1A804FF048
:10167000804000F0C1F803469AB2104B5A80042112
:101680004FF0804000F022F90346012B14D10421D1
:101690004FF0804000F044F94FF0804000F0ACF88B
:1016A00003469AB2054B1A804FF0804000F098F83C
:1016B00003469AB2014B5A8000BF80BD340500201A
:1016C00080B483B000AF78600B467B8013463B80CC
:1016D0007B687A881A857B683A889A8200BF0C37C3
:1016E000BD4680BC704700BF80B483B000AF786057
:1016F0000B46FB70FB78002B08D07B681B889BB2E5
:1017000043F001039AB27B681A8007E07B681B886C
:101710009BB223F001039AB27B681A8000BF0C379A
:10172000BD4680BC704700BF80B584B000AF786014
:1017300039600023FB810123BB813B685B88002B60
:1017400002D10223FB8101E00023FB813B689B88DF
:10175000012B02D10223BB8101E00123BB813B6845
:101760001B88002B1CD13B6859883B689A883B68D2
:101770001B89786800F038F93B68DB88194678687F
:1017800000F046F83B681B89BA89F989786800F04F
:101790006DF93B68DB881946786800F055F81BE066
:1017A0003B6859883B689A883B681B89786800F0D9
:1017B0005DF93B68DB881946786800F045F83B68BE
:1017C0001B89BA89F989786800F00EF93B68DB88D3
:1017D0001946786800F01CF800BF1037BD4680BD80
:1017E00080B483B000AF78607B685B6B18460C37C1
:1017F000BD4680BC704700BF80B483B000AF786046
:101800007B689B6B18460C37BD4680BC704700BF99
:1018100080B483B000AF78600B467B807B681B8B05
:101820009BB223F00C039AB27B681A837B681B8BF4
:101830009AB27B8813439AB27B681A8300BF0C3735
:10184000BD4680BC704700BF80B483B000AF7860F5
:101850000B467B807B681B8B9BB223F440639AB260
:101860007B681A837B681B8B9AB27B881B029BB2B6
:1018700013439AB27B681A8300BF0C37BD4680BC05
:10188000704700BF80B483B000AF78600B467B80A8
:1018900013467B707B78002B08D07B689B899AB2BB
:1018A0007B8813439AB27B689A8109E07B689B89A5
:1018B0009AB27B88DB439BB213409AB27B689A81D1
:1018C00000BF0C37BD4680BC704700BF80B485B0F8
:1018D00000AF78600B467B800023FB730023BB8145
:1018E00000237B817B681B8A9AB27B881340BB8173
:1018F0007B689B899AB27B8813407B81BB89002BD4
:1019000005D07B89002B02D00123FB7301E000236B
:10191000FB73FB7B18461437BD4680BC704700BF85
:1019200080B483B000AF78600B467B807B88DB435C
:101930009AB27B681A8200BF0C37BD4680BC7047E4
:1019400080B485B000AF78600B467B800023FB81BC
:101950007B681B89FB81FB8923F07003FB81FA897B
:101960007B881343FB817B68FA891A8100BF143797
:10197000BD4680BC704700BF80B483B000AF7860C4
:101980000B467B807B681B899BB223F007039AB2CE
:101990007B681A817B681B899AB27B8813439AB251
:1019A0007B681A8100BF0C37BD4680BC704700BF02
:1019B00080B483B000AF78600B467B807B681B8966
:1019C0009BB223F080039AB27B681A817B681B89E3
:1019D0009AB27B8813439AB27B681A8100BF0C3796
:1019E000BD4680BC704700BF80B487B000AFF860D0
:1019F000084611461A4603467B810B463B81134637
:101A0000FB800023FB820023BB82FB681B8C9BB204
:101A100023F001039AB2FB681A84FB681B8BFB82DC
:101A2000FB681B8CBB82FB8A23F0F303FB82FB88E1
:101A30001B019AB23B8913439AB2FB8A1343FB8280
:101A4000BB8A23F00A03BB827A89BB8A13439BB209
:101A500043F00103BB82FB68FA8A1A83FB68BA8AE7
:101A60001A8400BF1C37BD4680BC704780B487B065
:101A700000AFF860084611461A4603467B810B46C4
:101A80003B811346FB800023FB820023BB820023A3
:101A90007B82FB681B8C9BB223F010039AB2FB681D
:101AA0001A84FB681B8BFB82FB681B8CBB827B89C7
:101AB0001B017B82FB8A23F440731B051B0DFB82F9
:101AC000FB881B039AB2FB8A1343FB823B891B02F0
:101AD0009AB2FB8A1343FB82BB8A23F0A003BB822A
:101AE0007A8ABB8A13439BB243F01003BB82FB6824
:101AF000FA8A1A83FB68BA8A1A8400BF1C37BD466B
:101B000080BC70472DE9F0418AB004460D4600F0D4
:101B100077F8364B93F90080B8F1FF3F06460F4641
:101B20000DD022462B462046294600F0B7FE30B99C
:101B3000002200232046294600F0A6FE20B13046B0
:101B400039460AB0BDE8F081294B0890CDE902453D
:101B5000CDE90445019320462946B8F1000F17D17D
:101B6000244D4FF0604400220023CDE9064500F0EB
:101B700063FE002832D002230093684600F034FA56
:101B800098B1089BB3B9DDE906010AB0BDE8F08160
:101B9000194D002400220023CDE9064500F04CFE3B
:101BA00068B1022398450093E7D100F0FDFE22239F
:101BB0000360E6E700F0F8FE089B0360E3E701231B
:101BC000B8F1020F00930BD100F0EEFE2123036069
:101BD0000A4800F00BFACDE90601D2E70123009391
:101BE000684600F001FA0028F2D1EDE788000020F5
:101BF000B4290008FFFFEFC70000F0FFB829000874
:101C00002DE9F04FB1F5801F85B006460F460B4613
:101C10005ADA024621F00044224300F0F8800029FD
:101C2000C0F27A810022D64B00F09EFB0B460F4695
:101C3000D4498B4206466FF035024ADCC3F31305E4
:101C400005F5152404F6647404F4801E8EF07F51AB
:101C500081F440111B15A3F2FF3341EA05079C18DC
:101C600030460022C84B394604EB1E5400F0C8F938
:101C7000AB1CC3F31303022B82468B464FF00002CA
:101C800030DC002300F0D8FD002800F0C980002CD3
:101C900000F04B81204600F001FBA5A3D3E900230F
:101CA00006460F4600F060FBA3A3D3E900230446D9
:101CB0000D463046394600F057FB02460B4620469B
:101CC000294600F09FF90AE0AE498B424FF000022E
:101CD000B4DD32463B463046394600F093F905B054
:101CE000BDE8F08F4FF0804300F08CF902460B46C0
:101CF0005046594600F062FC064620460F4600F06A
:101D0000CDFA3246CDE900013B4630463946CDE9B1
:101D1000026700F029FB02460B468046894600F028
:101D200023FB87A3D3E9002306460F4600F01CFBE4
:101D300085A3D3E9002300F065F932463B4600F065
:101D400013FB83A3D3E9002300F05CF932463B4642
:101D500000F00AFB80A3D3E9002300F053F94246C8
:101D60004B4600F001FB7EA3D3E900238046894661
:101D70003046394600F0F8FA7BA3D3E9002300F09F
:101D800041F932463B4600F0EFFA79A3D3E900234C
:101D900000F038F932463B4600F0E6FA0B460246C0
:101DA0004946404600F02EF9A5F5C223C5F5D725D2
:101DB000A3F27A4351351D43002D8046894656DDF6
:101DC0000022724B5046594600F0CEFA52465B460E
:101DD00000F0CAFA06460F46002C68D132463B4650
:101DE0004046494600F00EF9DDE9022300F0BCFA56
:101DF00002460B463046394600F002F902460B46D1
:101E00005046594600F0FCF805B0BDE8F08F0022BE
:101E1000002300205E4900F0D1FB05B0BDE8F08F43
:101E200055A3D3E900235046594600F09DFA0246D7
:101E30000B460020554900F0E3F8524606460F468F
:101E40005B465046594600F08FFA02460B46304634
:101E5000394600F089FA06460F46002C40F09A8079
:101E600002460B465046594600F0CAF837E7002CA8
:101E700000F0A4802EA3D3E90023DDE9000100F0E7
:101E800073FA42464B4604460D465046594600F00A
:101E9000B7F8DDE9022300F067FA27A3D3E90023AE
:101EA00006460F46DDE9000100F05EFA21E020A3BE
:101EB000D3E90023DDE9000100F056FA32463B4643
:101EC00004460D464046494600F09CF8DDE90223F1
:101ED00000F04AFA18A3D3E9002380468946DDE9D9
:101EE000000100F041FA02460B464046494600F028
:101EF00089F802460B463046394600F081F85246D2
:101F00005B4600F07DF802460B462046294600F06D
:101F100077F805B0BDE8F08F02460B4600F070F888
:101F20000022002300F04AFBD9E600200021D6E67B
:101F30000000E0FE422EE63F763C7935EF39EA3D7F
:101F400044523EDF12F1C23FDE03CB966446C73FE8
:101F5000599322942449D23F935555555555E53F01
:101F60009FC678D0099AC33FAF788E1DC571CC3F0C
:101F700004FA97999999D93F555555555555D53FD7
:101F800000005043FFFFEF7F0000F03F0000E03F04
:101F9000000050C3204600F081F90FA3D3E90023CD
:101FA0008046894600F0E0F90DA3D3E900230446FA
:101FB0000D464046494600F0D7F99AE702460B46DF
:101FC0005046594600F01CF8DDE9022300F0CCF938
:101FD00014E700BFAFF300800000E0FE422EE63FB2
:101FE000763C7935EF39EA3D002070470020014901
:101FF000704700BF0000F87F81F0004102E000BFA1
:1020000083F0004330B54FEA41044FEA430594EAB8
:10201000050F08BF90EA020F1FBF54EA000C55EAF3
:10202000020C7FEA645C7FEA655C00F0E2804FEAC4
:102030005454D4EB5555B8BF6D420CDD2C4480EAA6
:10204000020281EA030382EA000083EA010180EAD6
:10205000020281EA0303362D88BF30BD11F0004F24
:102060004FEA01314FF4801C4CEA113102D040425A
:1020700061EB410113F0004F4FEA03334CEA133395
:1020800002D0524263EB430394EA050F00F0A780AD
:10209000A4F10104D5F1200E0DDB02FA0EFC22FAA8
:1020A00005F2801841F1000103FA0EF2801843FA9C
:1020B00005F359410EE0A5F120050EF1200E012A8D
:1020C00003FA0EFC28BF4CF0020C43FA05F3C018CB
:1020D00051EBE37101F0004507D54FF0000EDCF144
:1020E000000C7EEB00006EEB0101B1F5801F1BD3ED
:1020F000B1F5001F0CD349085FEA30004FEA3C0CF1
:1021000004F101044FEA445212F5800F80F09A80E6
:10211000BCF1004F08BF5FEA500C50F1000041EBEA
:10212000045141EA050130BD5FEA4C0C404141EBEE
:10213000010111F4801FA4F10104E9D191F0000F15
:1021400004BF01460020B1FA81F308BF2033A3F198
:102150000B03B3F120020CDA0C3208DD02F1140C8F
:10216000C2F10C0201FA0CF021FA02F10CE002F1CA
:102170001402D8BFC2F1200C01FA02F120FA0CFCC3
:10218000DCBF41EA0C019040E41AA2BF01EB04510C
:10219000294330BD6FEA04041F3C1CDA0C340EDC0A
:1021A00004F11404C4F1200220FA04F001FA02F34D
:1021B00040EA030021FA04F345EA030130BDC4F10B
:1021C0000C04C4F1200220FA02F001FA04F340EA00
:1021D0000300294630BD21FA04F0294630BD94F0B1
:1021E000000F83F4801306BF81F480110134013D98
:1021F0004EE77FEA645C18BF7FEA655C29D094EA09
:10220000050F08BF90EA020F05D054EA000C04BF86
:102210001946104630BD91EA030F1EBF0021002071
:1022200030BD5FEA545C05D14000494128BF41F010
:10223000004130BD14F580043CBF01F5801130BD74
:1022400001F0004545F0FE4141F470014FF00000FF
:1022500030BD7FEA645C1ABF194610467FEA655CB0
:102260001CBF0B46024650EA013406BF52EA033552
:1022700091EA030F41F4002130BD00BF90F0000F40
:1022800004BF0021704730B54FF4806404F132047C
:102290004FF000054FF0000150E700BF90F0000F35
:1022A00004BF0021704730B54FF4806404F132045C
:1022B00010F0004548BF40424FF000013EE700BF2C
:1022C00042004FEAE2014FEA31014FEA02701FBFBC
:1022D00012F07F4393F07F4F81F06051704792F08E
:1022E000000F14BF93F07F4F704730B54FF4607408
:1022F00001F0004521F0004120E700BF50EA010253
:1023000008BF704730B54FF000050AE050EA0102FF
:1023100008BF704730B511F0004502D5404261EB6F
:1023200041014FF4806404F132045FEA915C3FF4B0
:10233000DCAE4FF003025FEADC0C18BF03325FEA49
:10234000DC0C18BF033202EBDC02C2F1200300FAFE
:1023500003FC20FA02F001FA03FE40EA0E0021FA23
:1023600002F11444C1E600BF70B54FF0FF0C4CF40D
:10237000E06C1CEA11541DBF1CEA135594EA0C0FC3
:1023800095EA0C0F00F0DEF82C4481EA030621EAFE
:102390004C5123EA4C5350EA013518BF52EA033539
:1023A00041F4801143F4801338D0A0FB02CE4FF0EB
:1023B0000005E1FB02E506F00042E0FB03E54FF01B
:1023C0000006E1FB03569CF0000F18BF4EF0010E13
:1023D000A4F1FF04B6F5007F64F5407404D25FEA0F
:1023E0004E0E6D4146EB060642EAC62141EA5551C2
:1023F0004FEAC52040EA5E504FEACE2EB4F1FD0C04
:1024000088BFBCF5E06F1ED8BEF1004F08BF5FEA81
:10241000500E50F1000041EB045170BD06F0004633
:1024200046EA010140EA020081EA0301B4EB5C04E0
:10243000C2BFD4EB0C0541EA045170BD41F48011D8
:102440004FF0000E013C00F3AB8014F1360FDEBFFD
:10245000002001F0004170BDC4F10004203C35DAD9
:102460000C341BDC04F11404C4F1200500FA05F35C
:1024700020FA04F001FA05F240EA020001F00042FD
:1024800021F0004110EBD37021FA04F642EB060173
:102490005EEA430E08BF20EAD37070BDC4F10C049D
:1024A000C4F1200500FA04F320FA05F001FA04F261
:1024B00040EA020001F0004110EBD37041F100014D
:1024C0005EEA430E08BF20EAD37070BDC4F1200558
:1024D00000FA05F24EEA020E20FA04F301FA05F2C0
:1024E00043EA020321FA04F001F0004121FA04F268
:1024F00020EA020000EBD3705EEA430E08BF20EA38
:10250000D37070BD94F0000F0FD101F00046400071
:1025100041EB010111F4801F08BF013CF7D041EAF3
:10252000060195F0000F18BF704703F000465200F7
:1025300043EB030313F4801F08BF013DF7D043EAC8
:102540000603704794EA0C0F0CEA135518BF95EA7E
:102550000C0F0CD050EA410618BF52EA4306D1D105
:1025600081EA030101F000414FF0000070BD50EA24
:10257000410606BF1046194652EA430619D094EAAE
:102580000C0F02D150EA013613D195EA0C0F05D198
:1025900052EA03361CBF104619460AD181EA0301EC
:1025A00001F0004141F0FE4141F470014FF00000A4
:1025B00070BD41F0FE4141F4780170BD70B54FF03F
:1025C000FF0C4CF4E06C1CEA11541DBF1CEA1355BF
:1025D00094EA0C0F95EA0C0F00F0A7F8A4EB0504A1
:1025E00081EA030E52EA03354FEA013100F0888098
:1025F0004FEA03334FF0805545EA131343EA126361
:102600004FEA022245EA111545EA10654FEA002615
:102610000EF000419D4208BF964244F1FD0404F5CE
:10262000407402D25B084FEA3202B61A65EB03052A
:102630005B084FEA32024FF480104FF4002CB6EBE7
:10264000020E75EB030E22BFB61A754640EA0C0067
:102650005B084FEA3202B6EB020E75EB030E22BFA7
:10266000B61A754640EA5C005B084FEA3202B6EBE8
:10267000020E75EB030E22BFB61A754640EA9C00A7
:102680005B084FEA3202B6EB020E75EB030E22BF77
:10269000B61A754640EADC0055EA060E18D04FEA35
:1026A000051545EA16754FEA06164FEAC30343EAD5
:1026B00052734FEAC2025FEA1C1CC0D111F4801FA2
:1026C0000BD141EA00014FF000004FF0004CB6E79B
:1026D00011F4801F04BF01430020B4F1FD0C88BF3A
:1026E000BCF5E06F3FF6AFAEB5EB030C04BFB6EB45
:1026F000020C5FEA500C50F1000041EB045170BD38
:102700000EF0004E4EEA113114EB5C04C2BFD4EB64
:102710000C0541EA045170BD41F480114FF0000EE8
:10272000013C90E645EA060E8DE60CEA135594EA64
:102730000C0F08BF95EA0C0F3FF43BAF94EA0C0F67
:102740000AD150EA01347FF434AF95EA0C0F7FF4DC
:1027500025AF104619462CE795EA0C0F06D152EA30
:1027600003353FF4FDAE1046194622E750EA410614
:1027700018BF52EA43067FF4C5AE50EA41047FF425
:102780000DAF52EA43057FF4EBAE12E74FF0FF3C8A
:1027900006E000BF4FF0010C02E000BF4FF0010C5B
:1027A0004DF804CD4FEA410C7FEA6C5C4FEA430CD4
:1027B00018BF7FEA6C5C1BD001B050EA410C0CBF23
:1027C00052EA430C91EA030F02BF90EA020F002085
:1027D000704710F1000F91EA030F58BF994208BFEC
:1027E00090422CBFD8176FEAE37040F001007047A9
:1027F0004FEA410C7FEA6C5C02D150EA013C07D100
:102800004FEA430C7FEA6C5CD6D152EA033CD3D04A
:102810005DF8040B704700BF8446104662468C4644
:102820001946634600E000BF01B5FFF7B7FF002877
:1028300048BF10F1000F01BD4DF808EDFFF7F4FFA0
:102840000CBF012000205DF808FB00BF4DF808ED2B
:10285000FFF7EAFF34BF012000205DF808FB00BF4E
:102860004DF808EDFFF7E0FF94BF012000205DF870
:1028700008FB00BF4DF808EDFFF7CEFF94BF012025
:1028800000205DF808FB00BF4DF808EDFFF7C4FF1E
:1028900034BF012000205DF808FB00BF4FEA410C67
:1028A0007FEA6C5C02D150EA013C0AD14FEA430C4A
:1028B0007FEA6C5C02D152EA033C02D14FF0000087
:1028C00070474FF0010070474A0011D212F5001214
:1028D00011D20DD56FF47873B3EB62520ED44FEA78
:1028E000C12343F0004343EA505323FA02F07047F8
:1028F0004FF00000704750EA013002D14FF0FF3036
:1029000070474FF0000070474FEA4102B2F1E043D8
:1029100024BFB3F5001CDCF1FE5C0DD901F0004CC6
:102920004FEAC0024CEA5070B2F1004F40EB830016
:1029300008BF20F00100704711F0804F21D113F142
:102940003872BCBF01F00040704741F480114FEA7B
:102950005252C2F11802C2F1200C10FA0CF320FA04
:1029600002F018BF40F001004FEAC1234FEAD32321
:1029700003FA0CFC40EA0C0023FA02F34FEA43038B
:10298000CCE77FEA625307D150EA01331EBF4FF014
:10299000FE4040F44000704701F0004040F0FE402F
:1029A00040F40000704700BF014B1868704700BF3B
:1029B000B80400206C6F67000000000043000000B6
:1029C00000000000010203040102030406070809D5
:1029D00000000000000802400100000004000000A8
:1029E0000A0300000100000000080240020000008D
:1029F000040000000B00000002000000000802407C
:102A000004000000040000000C00000003000000AF
:102A10000008024008000000040000000D00000053
:102A20000400000000080240100000000400000044
:102A30000E00000002020000000002400200000040
:102A40000100000001000000010000000000000083
:102A5000000000007C030020E40300204C04002060
:102A60000000000000000000000000000000000066
:102A70000000000000000000000000000000000056
:102A800000000000BC290008000000000000000059
:102A90000000000000000000000000000000000036
:102AA0000000000000000000000000000000000026
:102AB0000000000000000000000000000000000016
:102AC0000000000000000000000000000000000006
:102AD00000000000000000000000000000000000F6
:102AE00000000000000000000000000000000000E6
:102AF00000000000000000000100000000000000D5
:102B00000E33CDAB34126DE6ECDE05000B00000099
:102B100000000000000000000000000000000000B5
:102B200000000000000000000000000000000000A5
:102B30000000000000000000000000000000000095
:102B40000000000000000000000000000000000085
:0C2E7000000000000000000090000020A6
:0400000508000000EF
:00000001FF
